{
  "abi": [
    {
      "inputs": [],
      "stateMutability": "nonpayable",
      "type": "constructor"
    },
    {
      "anonymous": false,
      "inputs": [
        {
          "indexed": true,
          "internalType": "address",
          "name": "owner",
          "type": "address"
        },
        {
          "indexed": true,
          "internalType": "address",
          "name": "spender",
          "type": "address"
        },
        {
          "indexed": false,
          "internalType": "uint256",
          "name": "value",
          "type": "uint256"
        }
      ],
      "name": "Approval",
      "type": "event"
    },
    {
      "anonymous": false,
      "inputs": [
        {
          "indexed": true,
          "internalType": "bytes32",
          "name": "role",
          "type": "bytes32"
        },
        {
          "indexed": true,
          "internalType": "bytes32",
          "name": "previousAdminRole",
          "type": "bytes32"
        },
        {
          "indexed": true,
          "internalType": "bytes32",
          "name": "newAdminRole",
          "type": "bytes32"
        }
      ],
      "name": "RoleAdminChanged",
      "type": "event"
    },
    {
      "anonymous": false,
      "inputs": [
        {
          "indexed": true,
          "internalType": "bytes32",
          "name": "role",
          "type": "bytes32"
        },
        {
          "indexed": true,
          "internalType": "address",
          "name": "account",
          "type": "address"
        },
        {
          "indexed": true,
          "internalType": "address",
          "name": "sender",
          "type": "address"
        }
      ],
      "name": "RoleGranted",
      "type": "event"
    },
    {
      "anonymous": false,
      "inputs": [
        {
          "indexed": true,
          "internalType": "bytes32",
          "name": "role",
          "type": "bytes32"
        },
        {
          "indexed": true,
          "internalType": "address",
          "name": "account",
          "type": "address"
        },
        {
          "indexed": true,
          "internalType": "address",
          "name": "sender",
          "type": "address"
        }
      ],
      "name": "RoleRevoked",
      "type": "event"
    },
    {
      "anonymous": false,
      "inputs": [
        {
          "indexed": false,
          "internalType": "uint256",
          "name": "id",
          "type": "uint256"
        }
      ],
      "name": "Snapshot",
      "type": "event"
    },
    {
      "anonymous": false,
      "inputs": [
        {
          "indexed": true,
          "internalType": "address",
          "name": "from",
          "type": "address"
        },
        {
          "indexed": true,
          "internalType": "address",
          "name": "to",
          "type": "address"
        },
        {
          "indexed": false,
          "internalType": "uint256",
          "name": "value",
          "type": "uint256"
        }
      ],
      "name": "Transfer",
      "type": "event"
    },
    {
      "inputs": [],
      "name": "BURNER_ROLE",
      "outputs": [
        {
          "internalType": "bytes32",
          "name": "",
          "type": "bytes32"
        }
      ],
      "stateMutability": "view",
      "type": "function"
    },
    {
      "inputs": [],
      "name": "DEFAULT_ADMIN_ROLE",
      "outputs": [
        {
          "internalType": "bytes32",
          "name": "",
          "type": "bytes32"
        }
      ],
      "stateMutability": "view",
      "type": "function"
    },
    {
      "inputs": [],
      "name": "MINTER_ROLE",
      "outputs": [
        {
          "internalType": "bytes32",
          "name": "",
          "type": "bytes32"
        }
      ],
      "stateMutability": "view",
      "type": "function"
    },
    {
      "inputs": [],
      "name": "SNAPSHOT_ROLE",
      "outputs": [
        {
          "internalType": "bytes32",
          "name": "",
          "type": "bytes32"
        }
      ],
      "stateMutability": "view",
      "type": "function"
    },
    {
      "inputs": [
        {
          "internalType": "address",
          "name": "owner",
          "type": "address"
        },
        {
          "internalType": "address",
          "name": "spender",
          "type": "address"
        }
      ],
      "name": "allowance",
      "outputs": [
        {
          "internalType": "uint256",
          "name": "",
          "type": "uint256"
        }
      ],
      "stateMutability": "view",
      "type": "function"
    },
    {
      "inputs": [
        {
          "internalType": "address",
          "name": "spender",
          "type": "address"
        },
        {
          "internalType": "uint256",
          "name": "amount",
          "type": "uint256"
        }
      ],
      "name": "approve",
      "outputs": [
        {
          "internalType": "bool",
          "name": "",
          "type": "bool"
        }
      ],
      "stateMutability": "nonpayable",
      "type": "function"
    },
    {
      "inputs": [
        {
          "internalType": "address",
          "name": "account",
          "type": "address"
        }
      ],
      "name": "balanceOf",
      "outputs": [
        {
          "internalType": "uint256",
          "name": "",
          "type": "uint256"
        }
      ],
      "stateMutability": "view",
      "type": "function"
    },
    {
      "inputs": [
        {
          "internalType": "address",
          "name": "account",
          "type": "address"
        },
        {
          "internalType": "uint256",
          "name": "snapshotId",
          "type": "uint256"
        }
      ],
      "name": "balanceOfAt",
      "outputs": [
        {
          "internalType": "uint256",
          "name": "",
          "type": "uint256"
        }
      ],
      "stateMutability": "view",
      "type": "function"
    },
    {
      "inputs": [
        {
          "internalType": "address",
          "name": "from",
          "type": "address"
        },
        {
          "internalType": "uint256",
          "name": "amount",
          "type": "uint256"
        }
      ],
      "name": "burn",
      "outputs": [],
      "stateMutability": "nonpayable",
      "type": "function"
    },
    {
      "inputs": [],
      "name": "decimals",
      "outputs": [
        {
          "internalType": "uint8",
          "name": "",
          "type": "uint8"
        }
      ],
      "stateMutability": "view",
      "type": "function"
    },
    {
      "inputs": [
        {
          "internalType": "address",
          "name": "spender",
          "type": "address"
        },
        {
          "internalType": "uint256",
          "name": "subtractedValue",
          "type": "uint256"
        }
      ],
      "name": "decreaseAllowance",
      "outputs": [
        {
          "internalType": "bool",
          "name": "",
          "type": "bool"
        }
      ],
      "stateMutability": "nonpayable",
      "type": "function"
    },
    {
      "inputs": [
        {
          "internalType": "bytes32",
          "name": "role",
          "type": "bytes32"
        }
      ],
      "name": "getRoleAdmin",
      "outputs": [
        {
          "internalType": "bytes32",
          "name": "",
          "type": "bytes32"
        }
      ],
      "stateMutability": "view",
      "type": "function"
    },
    {
      "inputs": [
        {
          "internalType": "bytes32",
          "name": "role",
          "type": "bytes32"
        },
        {
          "internalType": "address",
          "name": "account",
          "type": "address"
        }
      ],
      "name": "grantRole",
      "outputs": [],
      "stateMutability": "nonpayable",
      "type": "function"
    },
    {
      "inputs": [
        {
          "internalType": "bytes32",
          "name": "role",
          "type": "bytes32"
        },
        {
          "internalType": "address",
          "name": "account",
          "type": "address"
        }
      ],
      "name": "hasRole",
      "outputs": [
        {
          "internalType": "bool",
          "name": "",
          "type": "bool"
        }
      ],
      "stateMutability": "view",
      "type": "function"
    },
    {
      "inputs": [
        {
          "internalType": "address",
          "name": "spender",
          "type": "address"
        },
        {
          "internalType": "uint256",
          "name": "addedValue",
          "type": "uint256"
        }
      ],
      "name": "increaseAllowance",
      "outputs": [
        {
          "internalType": "bool",
          "name": "",
          "type": "bool"
        }
      ],
      "stateMutability": "nonpayable",
      "type": "function"
    },
    {
      "inputs": [
        {
          "internalType": "address",
          "name": "to",
          "type": "address"
        },
        {
          "internalType": "uint256",
          "name": "amount",
          "type": "uint256"
        }
      ],
      "name": "mint",
      "outputs": [],
      "stateMutability": "nonpayable",
      "type": "function"
    },
    {
      "inputs": [],
      "name": "name",
      "outputs": [
        {
          "internalType": "string",
          "name": "",
          "type": "string"
        }
      ],
      "stateMutability": "view",
      "type": "function"
    },
    {
      "inputs": [
        {
          "internalType": "bytes32",
          "name": "role",
          "type": "bytes32"
        },
        {
          "internalType": "address",
          "name": "account",
          "type": "address"
        }
      ],
      "name": "renounceRole",
      "outputs": [],
      "stateMutability": "nonpayable",
      "type": "function"
    },
    {
      "inputs": [
        {
          "internalType": "bytes32",
          "name": "role",
          "type": "bytes32"
        },
        {
          "internalType": "address",
          "name": "account",
          "type": "address"
        }
      ],
      "name": "revokeRole",
      "outputs": [],
      "stateMutability": "nonpayable",
      "type": "function"
    },
    {
      "inputs": [],
      "name": "snapshot",
      "outputs": [
        {
          "internalType": "uint256",
          "name": "",
          "type": "uint256"
        }
      ],
      "stateMutability": "nonpayable",
      "type": "function"
    },
    {
      "inputs": [
        {
          "internalType": "bytes4",
          "name": "interfaceId",
          "type": "bytes4"
        }
      ],
      "name": "supportsInterface",
      "outputs": [
        {
          "internalType": "bool",
          "name": "",
          "type": "bool"
        }
      ],
      "stateMutability": "view",
      "type": "function"
    },
    {
      "inputs": [],
      "name": "symbol",
      "outputs": [
        {
          "internalType": "string",
          "name": "",
          "type": "string"
        }
      ],
      "stateMutability": "view",
      "type": "function"
    },
    {
      "inputs": [],
      "name": "totalSupply",
      "outputs": [
        {
          "internalType": "uint256",
          "name": "",
          "type": "uint256"
        }
      ],
      "stateMutability": "view",
      "type": "function"
    },
    {
      "inputs": [
        {
          "internalType": "uint256",
          "name": "snapshotId",
          "type": "uint256"
        }
      ],
      "name": "totalSupplyAt",
      "outputs": [
        {
          "internalType": "uint256",
          "name": "",
          "type": "uint256"
        }
      ],
      "stateMutability": "view",
      "type": "function"
    },
    {
      "inputs": [
        {
          "internalType": "address",
          "name": "to",
          "type": "address"
        },
        {
          "internalType": "uint256",
          "name": "amount",
          "type": "uint256"
        }
      ],
      "name": "transfer",
      "outputs": [
        {
          "internalType": "bool",
          "name": "",
          "type": "bool"
        }
      ],
      "stateMutability": "nonpayable",
      "type": "function"
    },
    {
      "inputs": [
        {
          "internalType": "address",
          "name": "from",
          "type": "address"
        },
        {
          "internalType": "address",
          "name": "to",
          "type": "address"
        },
        {
          "internalType": "uint256",
          "name": "amount",
          "type": "uint256"
        }
      ],
      "name": "transferFrom",
      "outputs": [
        {
          "internalType": "bool",
          "name": "",
          "type": "bool"
        }
      ],
      "stateMutability": "nonpayable",
      "type": "function"
    }
  ],
  "bytecode": {
    "object": "0x60806040523480156200001157600080fd5b5060405180604001604052806006815260200165392a37b5b2b760d11b81525060405180604001604052806004815260200163392a25a760e11b81525081600390816200005f919062000263565b5060046200006e828262000263565b5062000080915060009050336200010a565b620000ac7f9f2df0fed2c77648de5860a4cc508cd0818c85b8b8a1ab4ceeef8d981c8956a6336200010a565b620000d87f5fdbd35e8da83ee755d5e62a539e5ed7f47126abede0b8b10f9ea43dc6eed07f336200010a565b620001047f3c11d16cbaffd01df69ce1c404f6340ee057498f5f00246190ea54220576a848336200010a565b6200032f565b6200011682826200011a565b5050565b60008281526009602090815260408083206001600160a01b038516845290915290205460ff16620001165760008281526009602090815260408083206001600160a01b03851684529091529020805460ff191660011790556200017a3390565b6001600160a01b0316816001600160a01b0316837f2f8788117e7eff1d82e926ec794901d17c78024a50270940304540a733656f0d60405160405180910390a45050565b634e487b7160e01b600052604160045260246000fd5b600181811c90821680620001e957607f821691505b6020821081036200020a57634e487b7160e01b600052602260045260246000fd5b50919050565b601f8211156200025e57600081815260208120601f850160051c81016020861015620002395750805b601f850160051c820191505b818110156200025a5782815560010162000245565b5050505b505050565b81516001600160401b038111156200027f576200027f620001be565b6200029781620002908454620001d4565b8462000210565b602080601f831160018114620002cf5760008415620002b65750858301515b600019600386901b1c1916600185901b1785556200025a565b600085815260208120601f198616915b828110156200030057888601518255948401946001909101908401620002df565b50858210156200031f5787850151600019600388901b60f8161c191681555b5050505050600190811b01905550565b61147c806200033f6000396000f3fe608060405234801561001057600080fd5b506004361061018e5760003560e01c80637028e2cd116100de5780639dc29fac11610097578063a9059cbb11610071578063a9059cbb146101d0578063d539139314610376578063d547741f1461039d578063dd62ed3e146103b057600080fd5b80639dc29fac14610348578063a217fddf1461035b578063a457c2d71461036357600080fd5b80637028e2cd146102c257806370a08231146102e957806391d148541461031257806395d89b41146103255780639711715a1461032d578063981b24d01461033557600080fd5b8063282c51f31161014b57806336568abe1161012557806336568abe14610276578063395093511461028957806340c10f191461029c5780634ee2cd7e146102af57600080fd5b8063282c51f31461022b5780632f2ff15d14610252578063313ce5671461026757600080fd5b806301ffc9a71461019357806306fdde03146101bb578063095ea7b3146101d057806318160ddd146101e357806323b872dd146101f5578063248a9ca314610208575b600080fd5b6101a66101a136600461111b565b6103c3565b60405190151581526020015b60405180910390f35b6101c36103fa565b6040516101b29190611171565b6101a66101de3660046111bb565b61048c565b6002545b6040519081526020016101b2565b6101a66102033660046111e5565b6104a4565b6101e7610216366004611221565b60009081526009602052604090206001015490565b6101e77f3c11d16cbaffd01df69ce1c404f6340ee057498f5f00246190ea54220576a84881565b61026561026036600461123a565b6104c8565b005b604051601281526020016101b2565b61026561028436600461123a565b6104f2565b6101a66102973660046111bb565b610575565b6102656102aa3660046111bb565b610597565b6101e76102bd3660046111bb565b6105e7565b6101e77f5fdbd35e8da83ee755d5e62a539e5ed7f47126abede0b8b10f9ea43dc6eed07f81565b6101e76102f7366004611266565b6001600160a01b031660009081526020819052604090205490565b6101a661032036600461123a565b610640565b6101c361066b565b6101e761067a565b6101e7610343366004611221565b6106cf565b6102656103563660046111bb565b6106fa565b6101e7600081565b6101a66103713660046111bb565b61074a565b6101e77f9f2df0fed2c77648de5860a4cc508cd0818c85b8b8a1ab4ceeef8d981c8956a681565b6102656103ab36600461123a565b6107c5565b6101e76103be366004611281565b6107ea565b60006001600160e01b03198216637965db0b60e01b14806103f457506301ffc9a760e01b6001600160e01b03198316145b92915050565b606060038054610409906112ab565b80601f0160208091040260200160405190810160405280929190818152602001828054610435906112ab565b80156104825780601f1061045757610100808354040283529160200191610482565b820191906000526020600020905b81548152906001019060200180831161046557829003601f168201915b5050505050905090565b60003361049a818585610815565b5060019392505050565b6000336104b285828561084f565b6104bd858585610815565b506001949350505050565b6000828152600960205260409020600101546104e3816108c9565b6104ed83836108d6565b505050565b6001600160a01b03811633146105675760405162461bcd60e51b815260206004820152602f60248201527f416363657373436f6e74726f6c3a2063616e206f6e6c792072656e6f756e636560448201526e103937b632b9903337b91039b2b63360891b60648201526084015b60405180910390fd5b610571828261095c565b5050565b60003361049a81858561058883836107ea565b61059291906112fb565b610815565b6105c17f9f2df0fed2c77648de5860a4cc508cd0818c85b8b8a1ab4ceeef8d981c8956a633610640565b6105dd5760405162461bcd60e51b815260040161055e90611313565b61057182826109c3565b6001600160a01b03821660009081526005602052604081208190819061060e908590610a8e565b9150915081610635576001600160a01b038516600090815260208190526040902054610637565b805b95945050505050565b60009182526009602090815260408084206001600160a01b0393909316845291905290205460ff1690565b606060048054610409906112ab565b60006106a67f5fdbd35e8da83ee755d5e62a539e5ed7f47126abede0b8b10f9ea43dc6eed07f33610640565b6106c25760405162461bcd60e51b815260040161055e90611313565b6106ca610b84565b905090565b60008060006106df846006610a8e565b91509150816106f0576002546106f2565b805b949350505050565b6107247f3c11d16cbaffd01df69ce1c404f6340ee057498f5f00246190ea54220576a84833610640565b6107405760405162461bcd60e51b815260040161055e90611313565b6105718282610bde565b6000338161075882866107ea565b9050838110156107b85760405162461bcd60e51b815260206004820152602560248201527f45524332303a2064656372656173656420616c6c6f77616e63652062656c6f77604482015264207a65726f60d81b606482015260840161055e565b6104bd8286868403610815565b6000828152600960205260409020600101546107e0816108c9565b6104ed838361095c565b6001600160a01b03918216600090815260016020908152604080832093909416825291909152205490565b60405162461bcd60e51b815260206004820152600f60248201526e139bdd081a5b5c1b195b595b9d1959608a1b604482015260640161055e565b600061085b84846107ea565b905060001981146108c357818110156108b65760405162461bcd60e51b815260206004820152601d60248201527f45524332303a20696e73756666696369656e7420616c6c6f77616e6365000000604482015260640161055e565b6108c38484848403610815565b50505050565b6108d38133610d1c565b50565b6108e08282610640565b6105715760008281526009602090815260408083206001600160a01b03851684529091529020805460ff191660011790556109183390565b6001600160a01b0316816001600160a01b0316837f2f8788117e7eff1d82e926ec794901d17c78024a50270940304540a733656f0d60405160405180910390a45050565b6109668282610640565b156105715760008281526009602090815260408083206001600160a01b0385168085529252808320805460ff1916905551339285917ff6391f5c32d9c69d2a47ea670b442974b53935d1edc7fd64eb21e047a839171b9190a45050565b6001600160a01b038216610a195760405162461bcd60e51b815260206004820152601f60248201527f45524332303a206d696e7420746f20746865207a65726f206164647265737300604482015260640161055e565b610a2560008383610d75565b8060026000828254610a3791906112fb565b90915550506001600160a01b038216600081815260208181526040808320805486019055518481527fddf252ad1be2c89b69c2b068fc378daa952ba7f163c4a11628f55a4df523b3ef910160405180910390a35050565b60008060008411610ada5760405162461bcd60e51b815260206004820152601660248201527504552433230536e617073686f743a20696420697320360541b604482015260640161055e565b610ae2610dbd565b841115610b315760405162461bcd60e51b815260206004820152601d60248201527f4552433230536e617073686f743a206e6f6e6578697374656e74206964000000604482015260640161055e565b6000610b3d8486610dc8565b84549091508103610b55576000809250925050610b7d565b6001846001018281548110610b6c57610b6c611336565b906000526020600020015492509250505b9250929050565b6000610b94600880546001019055565b6000610b9e610dbd565b90507f8030e83b04d87bef53480e26263266d6ca66863aa8506aca6f2559d18aa1cb6781604051610bd191815260200190565b60405180910390a1919050565b6001600160a01b038216610c3e5760405162461bcd60e51b815260206004820152602160248201527f45524332303a206275726e2066726f6d20746865207a65726f206164647265736044820152607360f81b606482015260840161055e565b610c4a82600083610d75565b6001600160a01b03821660009081526020819052604090205481811015610cbe5760405162461bcd60e51b815260206004820152602260248201527f45524332303a206275726e20616d6f756e7420657863656564732062616c616e604482015261636560f01b606482015260840161055e565b6001600160a01b0383166000818152602081815260408083208686039055600280548790039055518581529192917fddf252ad1be2c89b69c2b068fc378daa952ba7f163c4a11628f55a4df523b3ef910160405180910390a3505050565b610d268282610640565b61057157610d3381610e75565b610d3e836020610e87565b604051602001610d4f92919061134c565b60408051601f198184030181529082905262461bcd60e51b825261055e91600401611171565b6001600160a01b038316610d9457610d8c8261102a565b6104ed61105c565b6001600160a01b038216610dab57610d8c8361102a565b610db48361102a565b6104ed8261102a565b60006106ca60085490565b81546000908103610ddb575060006103f4565b82546000905b80821015610e28576000610df5838361106c565b60008781526020902090915085908201541115610e1457809150610e22565b610e1f8160016112fb565b92505b50610de1565b600082118015610e54575083610e5186610e436001866113c1565b600091825260209091200190565b54145b15610e6d57610e646001836113c1565b925050506103f4565b5090506103f4565b60606103f46001600160a01b03831660145b60606000610e968360026113d8565b610ea19060026112fb565b67ffffffffffffffff811115610eb957610eb96113f7565b6040519080825280601f01601f191660200182016040528015610ee3576020820181803683370190505b509050600360fc1b81600081518110610efe57610efe611336565b60200101906001600160f81b031916908160001a905350600f60fb1b81600181518110610f2d57610f2d611336565b60200101906001600160f81b031916908160001a9053506000610f518460026113d8565b610f5c9060016112fb565b90505b6001811115610fd4576f181899199a1a9b1b9c1cb0b131b232b360811b85600f1660108110610f9057610f90611336565b1a60f81b828281518110610fa657610fa6611336565b60200101906001600160f81b031916908160001a90535060049490941c93610fcd8161140d565b9050610f5f565b5083156110235760405162461bcd60e51b815260206004820181905260248201527f537472696e67733a20686578206c656e67746820696e73756666696369656e74604482015260640161055e565b9392505050565b6001600160a01b038116600090815260056020908152604080832091839052909120546108d39190611087565b611087565b61106a600661105760025490565b565b600061107b6002848418611424565b611023908484166112fb565b6000611091610dbd565b90508061109d846110d1565b10156104ed578254600180820185556000858152602080822090930193909355938401805494850181558252902090910155565b805460009081036110e457506000919050565b815482906110f4906001906113c1565b8154811061110457611104611336565b90600052602060002001549050919050565b919050565b60006020828403121561112d57600080fd5b81356001600160e01b03198116811461102357600080fd5b60005b83811015611160578181015183820152602001611148565b838111156108c35750506000910152565b6020815260008251806020840152611190816040850160208701611145565b601f01601f19169190910160400192915050565b80356001600160a01b038116811461111657600080fd5b600080604083850312156111ce57600080fd5b6111d7836111a4565b946020939093013593505050565b6000806000606084860312156111fa57600080fd5b611203846111a4565b9250611211602085016111a4565b9150604084013590509250925092565b60006020828403121561123357600080fd5b5035919050565b6000806040838503121561124d57600080fd5b8235915061125d602084016111a4565b90509250929050565b60006020828403121561127857600080fd5b611023826111a4565b6000806040838503121561129457600080fd5b61129d836111a4565b915061125d602084016111a4565b600181811c908216806112bf57607f821691505b6020821081036112df57634e487b7160e01b600052602260045260246000fd5b50919050565b634e487b7160e01b600052601160045260246000fd5b6000821982111561130e5761130e6112e5565b500190565b6020808252600990820152682337b93134b23232b760b91b604082015260600190565b634e487b7160e01b600052603260045260246000fd5b7f416363657373436f6e74726f6c3a206163636f756e7420000000000000000000815260008351611384816017850160208801611145565b7001034b99036b4b9b9b4b733903937b6329607d1b60179184019182015283516113b5816028840160208801611145565b01602801949350505050565b6000828210156113d3576113d36112e5565b500390565b60008160001904831182151516156113f2576113f26112e5565b500290565b634e487b7160e01b600052604160045260246000fd5b60008161141c5761141c6112e5565b506000190190565b60008261144157634e487b7160e01b600052601260045260246000fd5b50049056fea264697066735822122069ed167d5f77998481d34207d53dbc574652186699634eeb493bd9d1a2c85b5564736f6c634300080f0033",
    "linkReferences": {}
  },
  "methodIdentifiers": {
    "BURNER_ROLE()": "282c51f3",
    "DEFAULT_ADMIN_ROLE()": "a217fddf",
    "MINTER_ROLE()": "d5391393",
    "SNAPSHOT_ROLE()": "7028e2cd",
    "allowance(address,address)": "dd62ed3e",
    "approve(address,uint256)": "095ea7b3",
    "balanceOf(address)": "70a08231",
    "balanceOfAt(address,uint256)": "4ee2cd7e",
    "burn(address,uint256)": "9dc29fac",
    "decimals()": "313ce567",
    "decreaseAllowance(address,uint256)": "a457c2d7",
    "getRoleAdmin(bytes32)": "248a9ca3",
    "grantRole(bytes32,address)": "2f2ff15d",
    "hasRole(bytes32,address)": "91d14854",
    "increaseAllowance(address,uint256)": "39509351",
    "mint(address,uint256)": "40c10f19",
    "name()": "06fdde03",
    "renounceRole(bytes32,address)": "36568abe",
    "revokeRole(bytes32,address)": "d547741f",
    "snapshot()": "9711715a",
    "supportsInterface(bytes4)": "01ffc9a7",
    "symbol()": "95d89b41",
    "totalSupply()": "18160ddd",
    "totalSupplyAt(uint256)": "981b24d0",
    "transfer(address,uint256)": "a9059cbb",
    "transferFrom(address,address,uint256)": "23b872dd"
  },
  "id": 97
}