{
  "abi": [
    {
      "inputs": [
        {
          "internalType": "address",
          "name": "liquidityTokenAddress",
          "type": "address"
        }
      ],
      "stateMutability": "nonpayable",
      "type": "constructor"
    },
    {
      "inputs": [
        {
          "internalType": "uint256",
          "name": "amount",
          "type": "uint256"
        }
      ],
      "name": "flashLoan",
      "outputs": [],
      "stateMutability": "nonpayable",
      "type": "function"
    },
    {
      "inputs": [],
      "name": "liquidityToken",
      "outputs": [
        {
          "internalType": "contract DefiCtfToken",
          "name": "",
          "type": "address"
        }
      ],
      "stateMutability": "view",
      "type": "function"
    }
  ],
  "bytecode": {
    "object": "0x60a060405234801561001057600080fd5b5060405161076238038061076283398101604081905261002f91610045565b60016000556001600160a01b0316608052610075565b60006020828403121561005757600080fd5b81516001600160a01b038116811461006e57600080fd5b9392505050565b6080516106bf6100a36000396000818160400152818160b3015281816101f301526102c801526106bf6000f3fe608060405234801561001057600080fd5b50600436106100365760003560e01c806343cd8f7e1461003b5780639ab603b91461007e575b600080fd5b6100627f000000000000000000000000000000000000000000000000000000000000000081565b6040516001600160a01b03909116815260200160405180910390f35b61009161008c3660046105b6565b610093565b005b61009b610397565b6040516370a0823160e01b81523060048201526000907f00000000000000000000000000000000000000000000000000000000000000006001600160a01b0316906370a0823190602401602060405180830381865afa158015610102573d6000803e3d6000fd5b505050506040513d601f19601f8201168201806040525081019061012691906105cf565b90508082111561017d5760405162461bcd60e51b815260206004820152601860248201527f4e6f7420656e6f75676820746f6b656e2062616c616e6365000000000000000060448201526064015b60405180910390fd5b333b6101d75760405162461bcd60e51b8152602060048201526024808201527f426f72726f776572206d7573742062652061206465706c6f79656420636f6e746044820152631c9858dd60e21b6064820152608401610174565b60405163a9059cbb60e01b8152336004820152602481018390527f00000000000000000000000000000000000000000000000000000000000000006001600160a01b03169063a9059cbb906044016020604051808303816000875af1158015610244573d6000803e3d6000fd5b505050506040513d601f19601f8201168201806040525081019061026891906105e8565b506102b08260405160240161027f91815260200190565b60408051601f198184030181529190526020810180516001600160e01b0316634fd9cb8160e01b17905233906103f0565b506040516370a0823160e01b815230600482015281907f00000000000000000000000000000000000000000000000000000000000000006001600160a01b0316906370a0823190602401602060405180830381865afa158015610317573d6000803e3d6000fd5b505050506040513d601f19601f8201168201806040525081019061033b91906105cf565b10156103895760405162461bcd60e51b815260206004820152601860248201527f466c617368206c6f616e206e6f742070616964206261636b00000000000000006044820152606401610174565b506103946001600055565b50565b6002600054036103e95760405162461bcd60e51b815260206004820152601f60248201527f5265656e7472616e637947756172643a207265656e7472616e742063616c6c006044820152606401610174565b6002600055565b6060610434838360006040518060400160405280601e81526020017f416464726573733a206c6f772d6c6576656c2063616c6c206661696c6564000081525061043b565b9392505050565b60608247101561049c5760405162461bcd60e51b815260206004820152602660248201527f416464726573733a20696e73756666696369656e742062616c616e636520666f6044820152651c8818d85b1b60d21b6064820152608401610174565b600080866001600160a01b031685876040516104b8919061063a565b60006040518083038185875af1925050503d80600081146104f5576040519150601f19603f3d011682016040523d82523d6000602084013e6104fa565b606091505b509150915061050b87838387610518565b925050505b949350505050565b60608315610587578251600003610580576001600160a01b0385163b6105805760405162461bcd60e51b815260206004820152601d60248201527f416464726573733a2063616c6c20746f206e6f6e2d636f6e74726163740000006044820152606401610174565b5081610510565b610510838381511561059c5781518083602001fd5b8060405162461bcd60e51b81526004016101749190610656565b6000602082840312156105c857600080fd5b5035919050565b6000602082840312156105e157600080fd5b5051919050565b6000602082840312156105fa57600080fd5b8151801515811461043457600080fd5b60005b8381101561062557818101518382015260200161060d565b83811115610634576000848401525b50505050565b6000825161064c81846020870161060a565b9190910192915050565b602081526000825180602084015261067581604085016020870161060a565b601f01601f1916919091016040019291505056fea2646970667358221220b9accdc8a3b2eef3f4c824df8f511bed75d25b8145a197c21fa014cf46b79a4264736f6c634300080f0033",
    "linkReferences": {}
  },
  "methodIdentifiers": {
    "flashLoan(uint256)": "9ab603b9",
    "liquidityToken()": "43cd8f7e"
  },
  "id": 98
}