{
  "abi": [
    {
      "anonymous": false,
      "inputs": [
        {
          "indexed": false,
          "internalType": "contract GnosisSafeProxy",
          "name": "proxy",
          "type": "address"
        },
        {
          "indexed": false,
          "internalType": "address",
          "name": "singleton",
          "type": "address"
        }
      ],
      "name": "ProxyCreation",
      "type": "event"
    },
    {
      "inputs": [
        {
          "internalType": "address",
          "name": "_singleton",
          "type": "address"
        },
        {
          "internalType": "bytes",
          "name": "initializer",
          "type": "bytes"
        },
        {
          "internalType": "uint256",
          "name": "saltNonce",
          "type": "uint256"
        }
      ],
      "name": "calculateCreateProxyWithNonceAddress",
      "outputs": [
        {
          "internalType": "contract GnosisSafeProxy",
          "name": "proxy",
          "type": "address"
        }
      ],
      "stateMutability": "nonpayable",
      "type": "function"
    },
    {
      "inputs": [
        {
          "internalType": "address",
          "name": "singleton",
          "type": "address"
        },
        {
          "internalType": "bytes",
          "name": "data",
          "type": "bytes"
        }
      ],
      "name": "createProxy",
      "outputs": [
        {
          "internalType": "contract GnosisSafeProxy",
          "name": "proxy",
          "type": "address"
        }
      ],
      "stateMutability": "nonpayable",
      "type": "function"
    },
    {
      "inputs": [
        {
          "internalType": "address",
          "name": "_singleton",
          "type": "address"
        },
        {
          "internalType": "bytes",
          "name": "initializer",
          "type": "bytes"
        },
        {
          "internalType": "uint256",
          "name": "saltNonce",
          "type": "uint256"
        },
        {
          "internalType": "contract IProxyCreationCallback",
          "name": "callback",
          "type": "address"
        }
      ],
      "name": "createProxyWithCallback",
      "outputs": [
        {
          "internalType": "contract GnosisSafeProxy",
          "name": "proxy",
          "type": "address"
        }
      ],
      "stateMutability": "nonpayable",
      "type": "function"
    },
    {
      "inputs": [
        {
          "internalType": "address",
          "name": "_singleton",
          "type": "address"
        },
        {
          "internalType": "bytes",
          "name": "initializer",
          "type": "bytes"
        },
        {
          "internalType": "uint256",
          "name": "saltNonce",
          "type": "uint256"
        }
      ],
      "name": "createProxyWithNonce",
      "outputs": [
        {
          "internalType": "contract GnosisSafeProxy",
          "name": "proxy",
          "type": "address"
        }
      ],
      "stateMutability": "nonpayable",
      "type": "function"
    },
    {
      "inputs": [],
      "name": "proxyCreationCode",
      "outputs": [
        {
          "internalType": "bytes",
          "name": "",
          "type": "bytes"
        }
      ],
      "stateMutability": "pure",
      "type": "function"
    },
    {
      "inputs": [],
      "name": "proxyRuntimeCode",
      "outputs": [
        {
          "internalType": "bytes",
          "name": "",
          "type": "bytes"
        }
      ],
      "stateMutability": "pure",
      "type": "function"
    }
  ],
  "bytecode": {
    "object": "0x608060405234801561001057600080fd5b50610a13806100206000396000f3fe608060405234801561001057600080fd5b50600436106100625760003560e01c80631688f0b9146100675780632500510e1461009757806353e5d935146100aa57806361b69abd146100bf578063addacc0f146100d2578063d18af54d146100da575b600080fd5b61007a61007536600461057b565b6100ed565b6040516001600160a01b0390911681526020015b60405180910390f35b61007a6100a53660046105d4565b610168565b6100b26101fd565b60405161008e91906106bb565b61007a6100cd3660046106d5565b610227565b6100b26102d0565b61007a6100e8366004610725565b6102e2565b60006100fa8484846103b8565b83519091501561011e5760008060008551602087016000865af10361011e57600080fd5b604080516001600160a01b038084168252861660208201527f4f51faf6c4561ff95f067657e43439f0f856d97c04d9ec9070a6199ad418e235910160405180910390a19392505050565b60006101ac8585858080601f0160208091040260200160405190810160405280939291908181526020018383808284376000920191909152508792506103b8915050565b6040516bffffffffffffffffffffffff19606083901b16602082015290915060340160408051601f198184030181529082905262461bcd60e51b82526101f4916004016106bb565b60405180910390fd5b60606040518060200161020f906104a7565b601f1982820381018352601f90910116604052919050565b600082604051610236906104a7565b6001600160a01b039091168152602001604051809103906000f080158015610262573d6000803e3d6000fd5b508251909150156102875760008060008451602086016000865af10361028757600080fd5b604080516001600160a01b038084168252851660208201527f4f51faf6c4561ff95f067657e43439f0f856d97c04d9ec9070a6199ad418e235910160405180910390a192915050565b60606040518060200161020f906104b4565b600080838360405160200161031392919091825260601b6bffffffffffffffffffffffff1916602082015260340190565b6040516020818303038152906040528051906020012060001c90506103398686836100ed565b91506001600160a01b038316156103af576040516303ca56a360e31b81526001600160a01b03841690631e52b5189061037c9085908a908a908a90600401610791565b600060405180830381600087803b15801561039657600080fd5b505af11580156103aa573d6000803e3d6000fd5b505050505b50949350505050565b6000808380519060200120836040516020016103de929190918252602082015260400190565b604051602081830303815290604052805190602001209050600060405180602001610408906104a7565b601f1982820381018352601f90910116604081905261043591906001600160a01b038916906020016107ce565b6040516020818303038152906040529050818151826020016000f592506001600160a01b03831661049e5760405162461bcd60e51b815260206004820152601360248201527210dc99585d194c8818d85b1b0819985a5b1959606a1b60448201526064016101f4565b50509392505050565b610172806107f183390190565b607b8061096383390190565b6001600160a01b03811681146104d557600080fd5b50565b634e487b7160e01b600052604160045260246000fd5b600082601f8301126104ff57600080fd5b813567ffffffffffffffff8082111561051a5761051a6104d8565b604051601f8301601f19908116603f01168101908282118183101715610542576105426104d8565b8160405283815286602085880101111561055b57600080fd5b836020870160208301376000602085830101528094505050505092915050565b60008060006060848603121561059057600080fd5b833561059b816104c0565b9250602084013567ffffffffffffffff8111156105b757600080fd5b6105c3868287016104ee565b925050604084013590509250925092565b600080600080606085870312156105ea57600080fd5b84356105f5816104c0565b9350602085013567ffffffffffffffff8082111561061257600080fd5b818701915087601f83011261062657600080fd5b81358181111561063557600080fd5b88602082850101111561064757600080fd5b95986020929092019750949560400135945092505050565b60005b8381101561067a578181015183820152602001610662565b83811115610689576000848401525b50505050565b600081518084526106a781602086016020860161065f565b601f01601f19169290920160200192915050565b6020815260006106ce602083018461068f565b9392505050565b600080604083850312156106e857600080fd5b82356106f3816104c0565b9150602083013567ffffffffffffffff81111561070f57600080fd5b61071b858286016104ee565b9150509250929050565b6000806000806080858703121561073b57600080fd5b8435610746816104c0565b9350602085013567ffffffffffffffff81111561076257600080fd5b61076e878288016104ee565b935050604085013591506060850135610786816104c0565b939692955090935050565b6001600160a01b038581168252841660208201526080604082018190526000906107bd9083018561068f565b905082606083015295945050505050565b600083516107e081846020880161065f565b919091019182525060200191905056fe608060405234801561001057600080fd5b5060405161017238038061017283398101604081905261002f916100b9565b6001600160a01b0381166100945760405162461bcd60e51b815260206004820152602260248201527f496e76616c69642073696e676c65746f6e20616464726573732070726f766964604482015261195960f21b606482015260840160405180910390fd5b600080546001600160a01b0319166001600160a01b03929092169190911790556100e9565b6000602082840312156100cb57600080fd5b81516001600160a01b03811681146100e257600080fd5b9392505050565b607b806100f76000396000f3fe6080604052600080546001600160a01b0316632cf35bc960e11b823501602757808252602082f35b3682833781823684845af490503d82833e806040573d82fd5b503d81f3fea26469706673582212202ce92e3b469c576c76a2497c7684fa96c269f63715c518b3fe69571fbfb3bcd764736f6c634300080f00336080604052600080546001600160a01b0316632cf35bc960e11b823501602757808252602082f35b3682833781823684845af490503d82833e806040573d82fd5b503d81f3fea26469706673582212202ce92e3b469c576c76a2497c7684fa96c269f63715c518b3fe69571fbfb3bcd764736f6c634300080f0033a264697066735822122089188624441653112ca6752e5866421c9cd24cfb2156ca7b6ad7c06e5f6fa4cf64736f6c634300080f0033",
    "linkReferences": {}
  },
  "methodIdentifiers": {
    "calculateCreateProxyWithNonceAddress(address,bytes,uint256)": "2500510e",
    "createProxy(address,bytes)": "61b69abd",
    "createProxyWithCallback(address,bytes,uint256,address)": "d18af54d",
    "createProxyWithNonce(address,bytes,uint256)": "1688f0b9",
    "proxyCreationCode()": "53e5d935",
    "proxyRuntimeCode()": "addacc0f"
  },
  "id": 70
}