{
  "abi": [
    {
      "inputs": [
        {
          "internalType": "address",
          "name": "masterCopyAddress",
          "type": "address"
        },
        {
          "internalType": "address",
          "name": "walletFactoryAddress",
          "type": "address"
        },
        {
          "internalType": "address",
          "name": "tokenAddress",
          "type": "address"
        },
        {
          "internalType": "address[]",
          "name": "initialBeneficiaries",
          "type": "address[]"
        }
      ],
      "stateMutability": "nonpayable",
      "type": "constructor"
    },
    {
      "anonymous": false,
      "inputs": [
        {
          "indexed": true,
          "internalType": "address",
          "name": "previousOwner",
          "type": "address"
        },
        {
          "indexed": true,
          "internalType": "address",
          "name": "newOwner",
          "type": "address"
        }
      ],
      "name": "OwnershipTransferred",
      "type": "event"
    },
    {
      "inputs": [
        {
          "internalType": "address",
          "name": "beneficiary",
          "type": "address"
        }
      ],
      "name": "addBeneficiary",
      "outputs": [],
      "stateMutability": "nonpayable",
      "type": "function"
    },
    {
      "inputs": [
        {
          "internalType": "address",
          "name": "",
          "type": "address"
        }
      ],
      "name": "beneficiaries",
      "outputs": [
        {
          "internalType": "bool",
          "name": "",
          "type": "bool"
        }
      ],
      "stateMutability": "view",
      "type": "function"
    },
    {
      "inputs": [],
      "name": "masterCopy",
      "outputs": [
        {
          "internalType": "address",
          "name": "",
          "type": "address"
        }
      ],
      "stateMutability": "view",
      "type": "function"
    },
    {
      "inputs": [],
      "name": "owner",
      "outputs": [
        {
          "internalType": "address",
          "name": "",
          "type": "address"
        }
      ],
      "stateMutability": "view",
      "type": "function"
    },
    {
      "inputs": [
        {
          "internalType": "contract GnosisSafeProxy",
          "name": "proxy",
          "type": "address"
        },
        {
          "internalType": "address",
          "name": "singleton",
          "type": "address"
        },
        {
          "internalType": "bytes",
          "name": "initializer",
          "type": "bytes"
        },
        {
          "internalType": "uint256",
          "name": "",
          "type": "uint256"
        }
      ],
      "name": "proxyCreated",
      "outputs": [],
      "stateMutability": "nonpayable",
      "type": "function"
    },
    {
      "inputs": [],
      "name": "renounceOwnership",
      "outputs": [],
      "stateMutability": "nonpayable",
      "type": "function"
    },
    {
      "inputs": [],
      "name": "token",
      "outputs": [
        {
          "internalType": "contract IERC20",
          "name": "",
          "type": "address"
        }
      ],
      "stateMutability": "view",
      "type": "function"
    },
    {
      "inputs": [
        {
          "internalType": "address",
          "name": "newOwner",
          "type": "address"
        }
      ],
      "name": "transferOwnership",
      "outputs": [],
      "stateMutability": "nonpayable",
      "type": "function"
    },
    {
      "inputs": [],
      "name": "walletFactory",
      "outputs": [
        {
          "internalType": "address",
          "name": "",
          "type": "address"
        }
      ],
      "stateMutability": "view",
      "type": "function"
    },
    {
      "inputs": [
        {
          "internalType": "address",
          "name": "",
          "type": "address"
        }
      ],
      "name": "wallets",
      "outputs": [
        {
          "internalType": "address",
          "name": "",
          "type": "address"
        }
      ],
      "stateMutability": "view",
      "type": "function"
    }
  ],
  "bytecode": {
    "object": "0x60e06040523480156200001157600080fd5b5060405162000ef838038062000ef88339810160408190526200003491620001ef565b6200003f33620000da565b6001600160a01b0384166200005357600080fd5b6001600160a01b0383166200006757600080fd5b6001600160a01b0380851660805283811660a052821660c05260005b8151811015620000cf57620000ba828281518110620000a657620000a6620002fa565b60200260200101516200012a60201b60201c565b80620000c68162000310565b91505062000083565b505050505062000338565b600080546001600160a01b038381166001600160a01b0319831681178455604051919092169283917f8be0079c531659141344cd1fd0a4f28419497f9722a3daafe3b4186f6b6457e09190a35050565b620001346200015b565b6001600160a01b03166000908152600160208190526040909120805460ff19169091179055565b6000546001600160a01b03163314620001ba5760405162461bcd60e51b815260206004820181905260248201527f4f776e61626c653a2063616c6c6572206973206e6f7420746865206f776e6572604482015260640160405180910390fd5b565b80516001600160a01b0381168114620001d457600080fd5b919050565b634e487b7160e01b600052604160045260246000fd5b600080600080608085870312156200020657600080fd5b6200021185620001bc565b9350602062000222818701620001bc565b93506200023260408701620001bc565b60608701519093506001600160401b03808211156200025057600080fd5b818801915088601f8301126200026557600080fd5b8151818111156200027a576200027a620001d9565b8060051b604051601f19603f83011681018181108582111715620002a257620002a2620001d9565b60405291825284820192508381018501918b831115620002c157600080fd5b938501935b82851015620002ea57620002da85620001bc565b84529385019392850192620002c6565b989b979a50959850505050505050565b634e487b7160e01b600052603260045260246000fd5b6000600182016200033157634e487b7160e01b600052601160045260246000fd5b5060010190565b60805160a05160c051610b7462000384600039600081816101c30152818161020401526106f601526000818161018901526102d6015260008181610162015261033e0152610b746000f3fe608060405234801561001057600080fd5b506004361061009e5760003560e01c80638da5cb5b116100665780638da5cb5b1461014c578063a619486e1461015d578063c5c0369914610184578063f2fde38b146101ab578063fc0c546a146101be57600080fd5b806301567739146100a35780631e52b518146100db5780635926651d146100f0578063715018a61461010357806389b08f111461010b575b600080fd5b6100c66100b13660046108ea565b60016020526000908152604090205460ff1681565b60405190151581526020015b60405180910390f35b6100ee6100e936600461090e565b6101e5565b005b6100ee6100fe3660046108ea565b61076f565b6100ee61079e565b6101346101193660046108ea565b6002602052600090815260409020546001600160a01b031681565b6040516001600160a01b0390911681526020016100d2565b6000546001600160a01b0316610134565b6101347f000000000000000000000000000000000000000000000000000000000000000081565b6101347f000000000000000000000000000000000000000000000000000000000000000081565b6100ee6101b93660046108ea565b6107b2565b6101347f000000000000000000000000000000000000000000000000000000000000000081565b6040516370a0823160e01b8152306004820152678ac7230489e80000907f00000000000000000000000000000000000000000000000000000000000000006001600160a01b0316906370a0823190602401602060405180830381865afa158015610253573d6000803e3d6000fd5b505050506040513d601f19601f8201168201806040525081019061027791906109a8565b10156102ca5760405162461bcd60e51b815260206004820152601760248201527f4e6f7420656e6f7567682066756e647320746f2070617900000000000000000060448201526064015b60405180910390fd5b84336001600160a01b037f0000000000000000000000000000000000000000000000000000000000000000161461033c5760405162461bcd60e51b815260206004820152601660248201527543616c6c6572206d75737420626520666163746f727960501b60448201526064016102c1565b7f00000000000000000000000000000000000000000000000000000000000000006001600160a01b0316856001600160a01b0316146103b45760405162461bcd60e51b815260206004820152601460248201527311985ad9481b585cdd195c98dbdc1e481d5cd95960621b60448201526064016102c1565b63b63e800d60e01b6103ca6004600086886109c1565b6103d3916109eb565b6001600160e01b031916146104215760405162461bcd60e51b81526020600482015260146024820152732bb937b7339034b734ba34b0b634bd30ba34b7b760611b60448201526064016102c1565b6001816001600160a01b031663e75235b86040518163ffffffff1660e01b8152600401602060405180830381865afa158015610461573d6000803e3d6000fd5b505050506040513d601f19601f8201168201806040525081019061048591906109a8565b146104c65760405162461bcd60e51b8152602060048201526011602482015270125b9d985b1a59081d1a1c995cda1bdb19607a1b60448201526064016102c1565b6001816001600160a01b031663a0e67e2b6040518163ffffffff1660e01b8152600401600060405180830381865afa158015610506573d6000803e3d6000fd5b505050506040513d6000823e601f3d908101601f1916820160405261052e9190810190610a41565b511461057c5760405162461bcd60e51b815260206004820152601860248201527f496e76616c6964206e756d626572206f66206f776e657273000000000000000060448201526064016102c1565b6000816001600160a01b031663a0e67e2b6040518163ffffffff1660e01b8152600401600060405180830381865afa1580156105bc573d6000803e3d6000fd5b505050506040513d6000823e601f3d908101601f191682016040526105e49190810190610a41565b6000815181106105f6576105f6610b06565b6020908102919091018101516001600160a01b0381166000908152600190925260409091205490915060ff1661067d5760405162461bcd60e51b815260206004820152602660248201527f4f776e6572206973206e6f7420726567697374657265642061732062656e656660448201526569636961727960d01b60648201526084016102c1565b6106a2816001600160a01b03166000908152600160205260409020805460ff19169055565b6001600160a01b038181166000908152600260205260409081902080546001600160a01b031916858416908117909155905163a9059cbb60e01b81526004810191909152678ac7230489e8000060248201527f00000000000000000000000000000000000000000000000000000000000000009091169063a9059cbb906044016020604051808303816000875af1158015610741573d6000803e3d6000fd5b505050506040513d601f19601f820116820180604052508101906107659190610b1c565b5050505050505050565b61077761082b565b6001600160a01b03166000908152600160208190526040909120805460ff19169091179055565b6107a661082b565b6107b06000610885565b565b6107ba61082b565b6001600160a01b03811661081f5760405162461bcd60e51b815260206004820152602660248201527f4f776e61626c653a206e6577206f776e657220697320746865207a65726f206160448201526564647265737360d01b60648201526084016102c1565b61082881610885565b50565b6000546001600160a01b031633146107b05760405162461bcd60e51b815260206004820181905260248201527f4f776e61626c653a2063616c6c6572206973206e6f7420746865206f776e657260448201526064016102c1565b600080546001600160a01b038381166001600160a01b0319831681178455604051919092169283917f8be0079c531659141344cd1fd0a4f28419497f9722a3daafe3b4186f6b6457e09190a35050565b6001600160a01b038116811461082857600080fd5b6000602082840312156108fc57600080fd5b8135610907816108d5565b9392505050565b60008060008060006080868803121561092657600080fd5b8535610931816108d5565b94506020860135610941816108d5565b9350604086013567ffffffffffffffff8082111561095e57600080fd5b818801915088601f83011261097257600080fd5b81358181111561098157600080fd5b89602082850101111561099357600080fd5b96999598505060200195606001359392505050565b6000602082840312156109ba57600080fd5b5051919050565b600080858511156109d157600080fd5b838611156109de57600080fd5b5050820193919092039150565b6001600160e01b03198135818116916004851015610a135780818660040360031b1b83161692505b505092915050565b634e487b7160e01b600052604160045260246000fd5b8051610a3c816108d5565b919050565b60006020808385031215610a5457600080fd5b825167ffffffffffffffff80821115610a6c57600080fd5b818501915085601f830112610a8057600080fd5b815181811115610a9257610a92610a1b565b8060051b604051601f19603f83011681018181108582111715610ab757610ab7610a1b565b604052918252848201925083810185019188831115610ad557600080fd5b938501935b82851015610afa57610aeb85610a31565b84529385019392850192610ada565b98975050505050505050565b634e487b7160e01b600052603260045260246000fd5b600060208284031215610b2e57600080fd5b8151801515811461090757600080fdfea264697066735822122097b7da20e2dd1703204f7249b72d145732b8770b541180297109701a0cd2257764736f6c634300080f0033",
    "linkReferences": {}
  },
  "methodIdentifiers": {
    "addBeneficiary(address)": "5926651d",
    "beneficiaries(address)": "01567739",
    "masterCopy()": "a619486e",
    "owner()": "8da5cb5b",
    "proxyCreated(address,address,bytes,uint256)": "1e52b518",
    "renounceOwnership()": "715018a6",
    "token()": "fc0c546a",
    "transferOwnership(address)": "f2fde38b",
    "walletFactory()": "c5c03699",
    "wallets(address)": "89b08f11"
  },
  "id": 90
}