{
  "abi": [
    {
      "inputs": [
        {
          "internalType": "address",
          "name": "tokenAddress",
          "type": "address"
        }
      ],
      "stateMutability": "nonpayable",
      "type": "constructor"
    },
    {
      "inputs": [],
      "name": "DefiCtfToken",
      "outputs": [
        {
          "internalType": "contract IERC20",
          "name": "",
          "type": "address"
        }
      ],
      "stateMutability": "view",
      "type": "function"
    },
    {
      "inputs": [
        {
          "internalType": "uint256",
          "name": "borrowAmount",
          "type": "uint256"
        },
        {
          "internalType": "address",
          "name": "borrower",
          "type": "address"
        },
        {
          "internalType": "address",
          "name": "target",
          "type": "address"
        },
        {
          "internalType": "bytes",
          "name": "data",
          "type": "bytes"
        }
      ],
      "name": "flashLoan",
      "outputs": [],
      "stateMutability": "nonpayable",
      "type": "function"
    }
  ],
  "bytecode": {
    "object": "0x60a060405234801561001057600080fd5b506040516107b53803806107b583398101604081905261002f91610045565b60016000556001600160a01b0316608052610075565b60006020828403121561005757600080fd5b81516001600160a01b038116811461006e57600080fd5b9392505050565b6080516107126100a36000396000818160550152818160b3015281816101a3015261027401526107126000f3fe608060405234801561001057600080fd5b50600436106100365760003560e01c8063ab19e0c01461003b578063abacf90214610050575b600080fd5b61004e610049366004610587565b610093565b005b6100777f000000000000000000000000000000000000000000000000000000000000000081565b6040516001600160a01b03909116815260200160405180910390f35b61009b61034c565b6040516370a0823160e01b81523060048201526000907f00000000000000000000000000000000000000000000000000000000000000006001600160a01b0316906370a0823190602401602060405180830381865afa158015610102573d6000803e3d6000fd5b505050506040513d601f19601f820116820180604052508101906101269190610622565b90508581101561017d5760405162461bcd60e51b815260206004820152601960248201527f4e6f7420656e6f75676820746f6b656e7320696e20706f6f6c0000000000000060448201526064015b60405180910390fd5b60405163a9059cbb60e01b81526001600160a01b038681166004830152602482018890527f0000000000000000000000000000000000000000000000000000000000000000169063a9059cbb906044016020604051808303816000875af11580156101ec573d6000803e3d6000fd5b505050506040513d601f19601f82011682018060405250810190610210919061063b565b5061025b83838080601f016020809104026020016040519081016040528093929190818152602001838380828437600092019190915250506001600160a01b038816929150506103a5565b506040516370a0823160e01b81523060048201526000907f00000000000000000000000000000000000000000000000000000000000000006001600160a01b0316906370a0823190602401602060405180830381865afa1580156102c3573d6000803e3d6000fd5b505050506040513d601f19601f820116820180604052508101906102e79190610622565b9050818110156103395760405162461bcd60e51b815260206004820181905260248201527f466c617368206c6f616e206861736e2774206265656e2070616964206261636b6044820152606401610174565b50506103456001600055565b5050505050565b60026000540361039e5760405162461bcd60e51b815260206004820152601f60248201527f5265656e7472616e637947756172643a207265656e7472616e742063616c6c006044820152606401610174565b6002600055565b60606103e9838360006040518060400160405280601e81526020017f416464726573733a206c6f772d6c6576656c2063616c6c206661696c656400008152506103f0565b9392505050565b6060824710156104515760405162461bcd60e51b815260206004820152602660248201527f416464726573733a20696e73756666696369656e742062616c616e636520666f6044820152651c8818d85b1b60d21b6064820152608401610174565b600080866001600160a01b0316858760405161046d919061068d565b60006040518083038185875af1925050503d80600081146104aa576040519150601f19603f3d011682016040523d82523d6000602084013e6104af565b606091505b50915091506104c0878383876104cd565b925050505b949350505050565b6060831561053c578251600003610535576001600160a01b0385163b6105355760405162461bcd60e51b815260206004820152601d60248201527f416464726573733a2063616c6c20746f206e6f6e2d636f6e74726163740000006044820152606401610174565b50816104c5565b6104c583838151156105515781518083602001fd5b8060405162461bcd60e51b815260040161017491906106a9565b80356001600160a01b038116811461058257600080fd5b919050565b60008060008060006080868803121561059f57600080fd5b853594506105af6020870161056b565b93506105bd6040870161056b565b9250606086013567ffffffffffffffff808211156105da57600080fd5b818801915088601f8301126105ee57600080fd5b8135818111156105fd57600080fd5b89602082850101111561060f57600080fd5b9699959850939650602001949392505050565b60006020828403121561063457600080fd5b5051919050565b60006020828403121561064d57600080fd5b815180151581146103e957600080fd5b60005b83811015610678578181015183820152602001610660565b83811115610687576000848401525b50505050565b6000825161069f81846020870161065d565b9190910192915050565b60208152600082518060208401526106c881604085016020870161065d565b601f01601f1916919091016040019291505056fea2646970667358221220c0e969e83669766275fb517ce30448ba07b1d8003bfb31623faeeb5a344a835664736f6c634300080f0033",
    "linkReferences": {}
  },
  "methodIdentifiers": {
    "DefiCtfToken()": "abacf902",
    "flashLoan(uint256,address,address,bytes)": "ab19e0c0"
  },
  "id": 87
}