{
  "abi": [
    {
      "inputs": [
        {
          "internalType": "address",
          "name": "_feeToSetter",
          "type": "address"
        }
      ],
      "stateMutability": "nonpayable",
      "type": "constructor"
    },
    {
      "anonymous": false,
      "inputs": [
        {
          "indexed": true,
          "internalType": "address",
          "name": "token0",
          "type": "address"
        },
        {
          "indexed": true,
          "internalType": "address",
          "name": "token1",
          "type": "address"
        },
        {
          "indexed": false,
          "internalType": "address",
          "name": "pair",
          "type": "address"
        },
        {
          "indexed": false,
          "internalType": "uint256",
          "name": "",
          "type": "uint256"
        }
      ],
      "name": "PairCreated",
      "type": "event"
    },
    {
      "inputs": [
        {
          "internalType": "uint256",
          "name": "",
          "type": "uint256"
        }
      ],
      "name": "allPairs",
      "outputs": [
        {
          "internalType": "address",
          "name": "",
          "type": "address"
        }
      ],
      "stateMutability": "view",
      "type": "function"
    },
    {
      "inputs": [],
      "name": "allPairsLength",
      "outputs": [
        {
          "internalType": "uint256",
          "name": "",
          "type": "uint256"
        }
      ],
      "stateMutability": "view",
      "type": "function"
    },
    {
      "inputs": [
        {
          "internalType": "address",
          "name": "tokenA",
          "type": "address"
        },
        {
          "internalType": "address",
          "name": "tokenB",
          "type": "address"
        }
      ],
      "name": "createPair",
      "outputs": [
        {
          "internalType": "address",
          "name": "pair",
          "type": "address"
        }
      ],
      "stateMutability": "nonpayable",
      "type": "function"
    },
    {
      "inputs": [],
      "name": "feeTo",
      "outputs": [
        {
          "internalType": "address",
          "name": "",
          "type": "address"
        }
      ],
      "stateMutability": "view",
      "type": "function"
    },
    {
      "inputs": [],
      "name": "feeToSetter",
      "outputs": [
        {
          "internalType": "address",
          "name": "",
          "type": "address"
        }
      ],
      "stateMutability": "view",
      "type": "function"
    },
    {
      "inputs": [
        {
          "internalType": "address",
          "name": "",
          "type": "address"
        },
        {
          "internalType": "address",
          "name": "",
          "type": "address"
        }
      ],
      "name": "getPair",
      "outputs": [
        {
          "internalType": "address",
          "name": "",
          "type": "address"
        }
      ],
      "stateMutability": "view",
      "type": "function"
    },
    {
      "inputs": [],
      "name": "pairCodeHash",
      "outputs": [
        {
          "internalType": "bytes32",
          "name": "",
          "type": "bytes32"
        }
      ],
      "stateMutability": "pure",
      "type": "function"
    },
    {
      "inputs": [
        {
          "internalType": "address",
          "name": "_feeTo",
          "type": "address"
        }
      ],
      "name": "setFeeTo",
      "outputs": [],
      "stateMutability": "nonpayable",
      "type": "function"
    },
    {
      "inputs": [
        {
          "internalType": "address",
          "name": "_feeToSetter",
          "type": "address"
        }
      ],
      "name": "setFeeToSetter",
      "outputs": [],
      "stateMutability": "nonpayable",
      "type": "function"
    }
  ],
  "bytecode": {
    "object": "0x608060405234801561001057600080fd5b506040516129f53803806129f58339818101604052602081101561003357600080fd5b5051600180546001600160a01b0319166001600160a01b03909216919091179055612992806100636000396000f3fe608060405234801561001057600080fd5b50600436106100935760003560e01c80639aab9248116100665780639aab9248146100fb578063a2e74af614610103578063c9c653961461012b578063e6a4390514610159578063f46901ed1461018757610093565b8063017e7e5814610098578063094b7415146100bc5780631e3dd18b146100c4578063574f2ba3146100e1575b600080fd5b6100a06101ad565b604080516001600160a01b039092168252519081900360200190f35b6100a06101bc565b6100a0600480360360208110156100da57600080fd5b50356101cb565b6100e96101f2565b60408051918252519081900360200190f35b6100e96101f8565b6101296004803603602081101561011957600080fd5b50356001600160a01b031661022a565b005b6100a06004803603604081101561014157600080fd5b506001600160a01b03813581169160200135166102a2565b6100a06004803603604081101561016f57600080fd5b506001600160a01b03813581169160200135166105cd565b6101296004803603602081101561019d57600080fd5b50356001600160a01b03166105f3565b6000546001600160a01b031681565b6001546001600160a01b031681565b600381815481106101d857fe5b6000918252602090912001546001600160a01b0316905081565b60035490565b60006040518060200161020a9061066b565b6020820181038252601f19601f8201166040525080519060200120905090565b6001546001600160a01b03163314610280576040805162461bcd60e51b81526020600482015260146024820152732ab734b9bbb0b82b191d102327a92124a22222a760611b604482015290519081900360640190fd5b600180546001600160a01b0319166001600160a01b0392909216919091179055565b6000816001600160a01b0316836001600160a01b0316141561030b576040805162461bcd60e51b815260206004820152601e60248201527f556e697377617056323a204944454e544943414c5f4144445245535345530000604482015290519081900360640190fd5b600080836001600160a01b0316856001600160a01b03161061032e578385610331565b84845b90925090506001600160a01b038216610391576040805162461bcd60e51b815260206004820152601760248201527f556e697377617056323a205a45524f5f41444452455353000000000000000000604482015290519081900360640190fd5b6001600160a01b03828116600090815260026020908152604080832085851684529091529020541615610404576040805162461bcd60e51b8152602060048201526016602482015275556e697377617056323a20504149525f45584953545360501b604482015290519081900360640190fd5b6060604051806020016104169061066b565b6020820181038252601f19601f8201166040525090506000838360405160200180836001600160a01b031660601b8152601401826001600160a01b031660601b815260140192505050604051602081830303815290604052805190602001209050808251602084016000f59450846001600160a01b031663485cc95585856040518363ffffffff1660e01b815260040180836001600160a01b03168152602001826001600160a01b0316815260200192505050600060405180830381600087803b1580156104e357600080fd5b505af11580156104f7573d6000803e3d6000fd5b505050506001600160a01b0384811660008181526002602081815260408084208987168086529083528185208054978d166001600160a01b031998891681179091559383528185208686528352818520805488168517905560038054600181018255958190527fc2575a0e9e593c00f959f8c92f12db2869c3395a3b0502d05e2516446f71f85b90950180549097168417909655925483519283529082015281517f0d3648bd0f6ba80134a33ba9275ac585d9d315f0ad8355cddefde31afa28d0e9929181900390910190a35050505092915050565b60026020908152600092835260408084209091529082529020546001600160a01b031681565b6001546001600160a01b03163314610649576040805162461bcd60e51b81526020600482015260146024820152732ab734b9bbb0b82b191d102327a92124a22222a760611b604482015290519081900360640190fd5b600080546001600160a01b0319166001600160a01b0392909216919091179055565b6122e4806106798339019056fe60806040526001600c5534801561001557600080fd5b50604080518082018252600e81526d2532bbb2b6102628102a37b5b2b760911b6020918201528151808301835260018152603160f81b9082015281517f8b73c3c69bb8fe3d512ecc4cf759cc79239f7b179b0ffacaa9a75d522b39400f818301527fbc7b4224ad2035d88ad8f81bab60f519219273712bd9aa77e65b279aefb26d60818401527fc89efdaa54c0f20c7adf612882df0950f5a951637e0307cdcb4c672f298b8bc660608201524660808201523060a0808301919091528351808303909101815260c09091019092528151910120600355600580546001600160a01b031916331790556121d88061010c6000396000f3fe608060405234801561001057600080fd5b50600436106101a95760003560e01c80636a627842116100f9578063ba9a7a5611610097578063d21220a711610071578063d21220a714610534578063d505accf1461053c578063dd62ed3e1461058d578063fff6cae9146105bb576101a9565b8063ba9a7a56146104fe578063bc25cf7714610506578063c45a01551461052c576101a9565b80637ecebe00116100d35780637ecebe001461046557806389afcb441461048b57806395d89b41146104ca578063a9059cbb146104d2576101a9565b80636a6278421461041157806370a08231146104375780637464fc3d1461045d576101a9565b806323b872dd116101665780633644e515116101405780633644e515146103cb578063485cc955146103d35780635909c0d5146104015780635a3d549314610409576101a9565b806323b872dd1461036f57806330adf81f146103a5578063313ce567146103ad576101a9565b8063022c0d9f146101ae57806306fdde031461023c5780630902f1ac146102b9578063095ea7b3146102f15780630dfe16811461033157806318160ddd14610355575b600080fd5b61023a600480360360808110156101c457600080fd5b8135916020810135916001600160a01b0360408301351691908101906080810160608201356401000000008111156101fb57600080fd5b82018360208201111561020d57600080fd5b8035906020019184600183028401116401000000008311171561022f57600080fd5b5090925090506105c3565b005b610244610acb565b6040805160208082528351818301528351919283929083019185019080838360005b8381101561027e578181015183820152602001610266565b50505050905090810190601f1680156102ab5780820380516001836020036101000a031916815260200191505b509250505060405180910390f35b6102c1610af5565b604080516001600160701b03948516815292909316602083015263ffffffff168183015290519081900360600190f35b61031d6004803603604081101561030757600080fd5b506001600160a01b038135169060200135610b1f565b604080519115158252519081900360200190f35b610339610b36565b604080516001600160a01b039092168252519081900360200190f35b61035d610b45565b60408051918252519081900360200190f35b61031d6004803603606081101561038557600080fd5b506001600160a01b03813581169160208101359091169060400135610b4b565b61035d610bdf565b6103b5610c03565b6040805160ff9092168252519081900360200190f35b61035d610c08565b61023a600480360360408110156103e957600080fd5b506001600160a01b0381358116916020013516610c0e565b61035d610c92565b61035d610c98565b61035d6004803603602081101561042757600080fd5b50356001600160a01b0316610c9e565b61035d6004803603602081101561044d57600080fd5b50356001600160a01b0316610f7a565b61035d610f8c565b61035d6004803603602081101561047b57600080fd5b50356001600160a01b0316610f92565b6104b1600480360360208110156104a157600080fd5b50356001600160a01b0316610fa4565b6040805192835260208301919091528051918290030190f35b610244611338565b61031d600480360360408110156104e857600080fd5b506001600160a01b03813516906020013561135c565b61035d611369565b61023a6004803603602081101561051c57600080fd5b50356001600160a01b031661136f565b6103396114e1565b6103396114f0565b61023a600480360360e081101561055257600080fd5b506001600160a01b03813581169160208101359091169060408101359060608101359060ff6080820135169060a08101359060c001356114ff565b61035d600480360360408110156105a357600080fd5b506001600160a01b0381358116916020013516611701565b61023a61171e565b600c5460011461060e576040805162461bcd60e51b8152602060048201526011602482015270155b9a5cddd85c158c8e881313d0d2d151607a1b604482015290519081900360640190fd5b6000600c55841515806106215750600084115b61065c5760405162461bcd60e51b81526004018080602001828103825260258152602001806120e96025913960400191505060405180910390fd5b600080610667610af5565b5091509150816001600160701b03168710801561068c5750806001600160701b031686105b6106c75760405162461bcd60e51b81526004018080602001828103825260218152602001806121326021913960400191505060405180910390fd5b60065460075460009182916001600160a01b039182169190811690891682148015906107055750806001600160a01b0316896001600160a01b031614155b61074e576040805162461bcd60e51b8152602060048201526015602482015274556e697377617056323a20494e56414c49445f544f60581b604482015290519081900360640190fd5b8a1561075f5761075f828a8d611880565b891561077057610770818a8c611880565b861561082257886001600160a01b03166310d1e85c338d8d8c8c6040518663ffffffff1660e01b815260040180866001600160a01b03168152602001858152602001848152602001806020018281038252848482818152602001925080828437600081840152601f19601f8201169050808301925050509650505050505050600060405180830381600087803b15801561080957600080fd5b505af115801561081d573d6000803e3d6000fd5b505050505b604080516370a0823160e01b815230600482015290516001600160a01b038416916370a08231916024808301926020929190829003018186803b15801561086857600080fd5b505afa15801561087c573d6000803e3d6000fd5b505050506040513d602081101561089257600080fd5b5051604080516370a0823160e01b815230600482015290519195506001600160a01b038316916370a0823191602480820192602092909190829003018186803b1580156108de57600080fd5b505afa1580156108f2573d6000803e3d6000fd5b505050506040513d602081101561090857600080fd5b5051925060009150506001600160701b0385168a9003831161092b57600061093a565b89856001600160701b03160383035b9050600089856001600160701b0316038311610957576000610966565b89856001600160701b03160383035b905060008211806109775750600081115b6109b25760405162461bcd60e51b815260040180806020018281038252602481526020018061210e6024913960400191505060405180910390fd5b60006109d46109c2846003611a1a565b6109ce876103e8611a1a565b90611a7d565b905060006109e66109c2846003611a1a565b9050610a0b620f4240610a056001600160701b038b8116908b16611a1a565b90611a1a565b610a158383611a1a565b1015610a57576040805162461bcd60e51b815260206004820152600c60248201526b556e697377617056323a204b60a01b604482015290519081900360640190fd5b5050610a6584848888611acd565b60408051838152602081018390528082018d9052606081018c905290516001600160a01b038b169133917fd78ad95fa46c994b6551d0da85fc275fe613ce37657fb8d5e3d130840159d8229181900360800190a350506001600c55505050505050505050565b6040518060400160405280600e81526020016d2532bbb2b6102628102a37b5b2b760911b81525081565b6008546001600160701b0380821692600160701b830490911691600160e01b900463ffffffff1690565b6000610b2c338484611c8c565b5060015b92915050565b6006546001600160a01b031681565b60005481565b6001600160a01b038316600090815260026020908152604080832033845290915281205460001914610bca576001600160a01b0384166000908152600260209081526040808320338452909152902054610ba59083611a7d565b6001600160a01b03851660009081526002602090815260408083203384529091529020555b610bd5848484611cee565b5060019392505050565b7f6e71edae12b1b97f4d1f60370fef10105fa2faae0126114a169c64845d6126c981565b601281565b60035481565b6005546001600160a01b03163314610c64576040805162461bcd60e51b81526020600482015260146024820152732ab734b9bbb0b82b191d102327a92124a22222a760611b604482015290519081900360640190fd5b600680546001600160a01b039384166001600160a01b03199182161790915560078054929093169116179055565b60095481565b600a5481565b6000600c54600114610ceb576040805162461bcd60e51b8152602060048201526011602482015270155b9a5cddd85c158c8e881313d0d2d151607a1b604482015290519081900360640190fd5b6000600c81905580610cfb610af5565b50600654604080516370a0823160e01b815230600482015290519395509193506000926001600160a01b03909116916370a08231916024808301926020929190829003018186803b158015610d4f57600080fd5b505afa158015610d63573d6000803e3d6000fd5b505050506040513d6020811015610d7957600080fd5b5051600754604080516370a0823160e01b815230600482015290519293506000926001600160a01b03909216916370a0823191602480820192602092909190829003018186803b158015610dcc57600080fd5b505afa158015610de0573d6000803e3d6000fd5b505050506040513d6020811015610df657600080fd5b505190506000610e0f836001600160701b038716611a7d565b90506000610e26836001600160701b038716611a7d565b90506000610e348787611d9c565b60005490915080610e6b57610e576103e86109ce610e528787611a1a565b611edc565b9850610e6660006103e8611f2e565b610eae565b610eab6001600160701b038916610e828684611a1a565b81610e8957fe5b046001600160701b038916610e9e8685611a1a565b81610ea557fe5b04611fb8565b98505b60008911610eed5760405162461bcd60e51b815260040180806020018281038252602881526020018061217b6028913960400191505060405180910390fd5b610ef78a8a611f2e565b610f0386868a8a611acd565b8115610f2d57600854610f29906001600160701b0380821691600160701b900416611a1a565b600b555b6040805185815260208101859052815133927f4c209b5fc8ad50758f13e2e1088ba56a560dff690a1c6fef26394f4c03821c4f928290030190a250506001600c5550949695505050505050565b60016020526000908152604090205481565b600b5481565b60046020526000908152604090205481565b600080600c54600114610ff2576040805162461bcd60e51b8152602060048201526011602482015270155b9a5cddd85c158c8e881313d0d2d151607a1b604482015290519081900360640190fd5b6000600c81905580611002610af5565b50600654600754604080516370a0823160e01b815230600482015290519496509294506001600160a01b039182169391169160009184916370a08231916024808301926020929190829003018186803b15801561105e57600080fd5b505afa158015611072573d6000803e3d6000fd5b505050506040513d602081101561108857600080fd5b5051604080516370a0823160e01b815230600482015290519192506000916001600160a01b038516916370a08231916024808301926020929190829003018186803b1580156110d657600080fd5b505afa1580156110ea573d6000803e3d6000fd5b505050506040513d602081101561110057600080fd5b50513060009081526001602052604081205491925061111f8888611d9c565b600054909150806111308487611a1a565b8161113757fe5b049a50806111458486611a1a565b8161114c57fe5b04995060008b11801561115f575060008a115b61119a5760405162461bcd60e51b81526004018080602001828103825260288152602001806121536028913960400191505060405180910390fd5b6111a43084611fd0565b6111af878d8d611880565b6111ba868d8c611880565b604080516370a0823160e01b815230600482015290516001600160a01b038916916370a08231916024808301926020929190829003018186803b15801561120057600080fd5b505afa158015611214573d6000803e3d6000fd5b505050506040513d602081101561122a57600080fd5b5051604080516370a0823160e01b815230600482015290519196506001600160a01b038816916370a0823191602480820192602092909190829003018186803b15801561127657600080fd5b505afa15801561128a573d6000803e3d6000fd5b505050506040513d60208110156112a057600080fd5b505193506112b085858b8b611acd565b81156112da576008546112d6906001600160701b0380821691600160701b900416611a1a565b600b555b604080518c8152602081018c905281516001600160a01b038f169233927fdccd412f0b1252819cb1fd330b93224ca42612892bb3f4f789976e6d81936496929081900390910190a35050505050505050506001600c81905550915091565b6040518060400160405280600881526020016704a4557454c2d4c560c41b81525081565b6000610b2c338484611cee565b6103e881565b600c546001146113ba576040805162461bcd60e51b8152602060048201526011602482015270155b9a5cddd85c158c8e881313d0d2d151607a1b604482015290519081900360640190fd5b6000600c55600654600754600854604080516370a0823160e01b815230600482015290516001600160a01b039485169490931692611463928592879261145e926001600160701b03169185916370a0823191602480820192602092909190829003018186803b15801561142c57600080fd5b505afa158015611440573d6000803e3d6000fd5b505050506040513d602081101561145657600080fd5b505190611a7d565b611880565b6114d7818461145e6008600e9054906101000a90046001600160701b03166001600160701b0316856001600160a01b03166370a08231306040518263ffffffff1660e01b815260040180826001600160a01b0316815260200191505060206040518083038186803b15801561142c57600080fd5b50506001600c5550565b6005546001600160a01b031681565b6007546001600160a01b031681565b42841015611549576040805162461bcd60e51b8152602060048201526012602482015271155b9a5cddd85c158c8e881156141254915160721b604482015290519081900360640190fd5b6003546001600160a01b0380891660008181526004602090815260408083208054600180820190925582517f6e71edae12b1b97f4d1f60370fef10105fa2faae0126114a169c64845d6126c98186015280840196909652958d166060860152608085018c905260a085019590955260c08085018b90528151808603909101815260e08501825280519083012061190160f01b6101008601526101028501969096526101228085019690965280518085039096018652610142840180825286519683019690962095839052610162840180825286905260ff89166101828501526101a284018890526101c28401879052519193926101e280820193601f1981019281900390910190855afa158015611664573d6000803e3d6000fd5b5050604051601f1901519150506001600160a01b0381161580159061169a5750886001600160a01b0316816001600160a01b0316145b6116eb576040805162461bcd60e51b815260206004820152601c60248201527f556e697377617056323a20494e56414c49445f5349474e415455524500000000604482015290519081900360640190fd5b6116f6898989611c8c565b505050505050505050565b600260209081526000928352604080842090915290825290205481565b600c54600114611769576040805162461bcd60e51b8152602060048201526011602482015270155b9a5cddd85c158c8e881313d0d2d151607a1b604482015290519081900360640190fd5b6000600c55600654604080516370a0823160e01b81523060048201529051611879926001600160a01b0316916370a08231916024808301926020929190829003018186803b1580156117ba57600080fd5b505afa1580156117ce573d6000803e3d6000fd5b505050506040513d60208110156117e457600080fd5b5051600754604080516370a0823160e01b815230600482015290516001600160a01b03909216916370a0823191602480820192602092909190829003018186803b15801561183157600080fd5b505afa158015611845573d6000803e3d6000fd5b505050506040513d602081101561185b57600080fd5b50516008546001600160701b0380821691600160701b900416611acd565b6001600c55565b604080518082018252601981527f7472616e7366657228616464726573732c75696e74323536290000000000000060209182015281516001600160a01b0385811660248301526044808301869052845180840390910181526064909201845291810180516001600160e01b031663a9059cbb60e01b1781529251815160009460609489169392918291908083835b6020831061192d5780518252601f19909201916020918201910161190e565b6001836020036101000a0380198251168184511680821785525050505050509050019150506000604051808303816000865af19150503d806000811461198f576040519150601f19603f3d011682016040523d82523d6000602084013e611994565b606091505b50915091508180156119c25750805115806119c257508080602001905160208110156119bf57600080fd5b50515b611a13576040805162461bcd60e51b815260206004820152601a60248201527f556e697377617056323a205452414e534645525f4641494c4544000000000000604482015290519081900360640190fd5b5050505050565b6000811580611a3557505080820282828281611a3257fe5b04145b610b30576040805162461bcd60e51b815260206004820152601460248201527364732d6d6174682d6d756c2d6f766572666c6f7760601b604482015290519081900360640190fd5b80820382811115610b30576040805162461bcd60e51b815260206004820152601560248201527464732d6d6174682d7375622d756e646572666c6f7760581b604482015290519081900360640190fd5b6001600160701b038411801590611aeb57506001600160701b038311155b611b32576040805162461bcd60e51b8152602060048201526013602482015272556e697377617056323a204f564552464c4f5760681b604482015290519081900360640190fd5b60085463ffffffff42811691600160e01b90048116820390811615801590611b6257506001600160701b03841615155b8015611b7657506001600160701b03831615155b15611be1578063ffffffff16611b9e85611b8f86612062565b6001600160e01b031690612074565b600980546001600160e01b03929092169290920201905563ffffffff8116611bc984611b8f87612062565b600a80546001600160e01b0392909216929092020190555b600880546dffffffffffffffffffffffffffff19166001600160701b03888116919091176dffffffffffffffffffffffffffff60701b1916600160701b8883168102919091176001600160e01b0316600160e01b63ffffffff871602179283905560408051848416815291909304909116602082015281517f1c411e9a96e071241c2f21f7726b17ae89e3cab4c78be50e062b03a9fffbbad1929181900390910190a1505050505050565b6001600160a01b03808416600081815260026020908152604080832094871680845294825291829020859055815185815291517f8c5be1e5ebec7d5bd14f71427d1e84f3dd0314c0f7b2291e5b200ac8c7c3b9259281900390910190a3505050565b6001600160a01b038316600090815260016020526040902054611d119082611a7d565b6001600160a01b038085166000908152600160205260408082209390935590841681522054611d409082612099565b6001600160a01b0380841660008181526001602090815260409182902094909455805185815290519193928716927fddf252ad1be2c89b69c2b068fc378daa952ba7f163c4a11628f55a4df523b3ef92918290030190a3505050565b600080600560009054906101000a90046001600160a01b03166001600160a01b031663017e7e586040518163ffffffff1660e01b815260040160206040518083038186803b158015611ded57600080fd5b505afa158015611e01573d6000803e3d6000fd5b505050506040513d6020811015611e1757600080fd5b5051600b546001600160a01b038216158015945091925090611ec8578015611ec3576000611e54610e526001600160701b03888116908816611a1a565b90506000611e6183611edc565b905080821115611ec0576000611e83611e7a8484611a7d565b60005490611a1a565b90506000611e9c83611e96866005611a1a565b90612099565b90506000818381611ea957fe5b0490508015611ebc57611ebc8782611f2e565b5050505b50505b611ed4565b8015611ed4576000600b555b505092915050565b60006003821115611f1f575080600160028204015b81811015611f1957809150600281828581611f0857fe5b040181611f1157fe5b049050611ef1565b50611f29565b8115611f29575060015b919050565b600054611f3b9082612099565b60009081556001600160a01b038316815260016020526040902054611f609082612099565b6001600160a01b03831660008181526001602090815260408083209490945583518581529351929391927fddf252ad1be2c89b69c2b068fc378daa952ba7f163c4a11628f55a4df523b3ef9281900390910190a35050565b6000818310611fc75781611fc9565b825b9392505050565b6001600160a01b038216600090815260016020526040902054611ff39082611a7d565b6001600160a01b0383166000908152600160205260408120919091555461201a9082611a7d565b60009081556040805183815290516001600160a01b038516917fddf252ad1be2c89b69c2b068fc378daa952ba7f163c4a11628f55a4df523b3ef919081900360200190a35050565b6001600160701b0316600160701b0290565b60006001600160701b0382166001600160e01b0384168161209157fe5b049392505050565b80820182811015610b30576040805162461bcd60e51b815260206004820152601460248201527364732d6d6174682d6164642d6f766572666c6f7760601b604482015290519081900360640190fdfe556e697377617056323a20494e53554646494349454e545f4f55545055545f414d4f554e54556e697377617056323a20494e53554646494349454e545f494e5055545f414d4f554e54556e697377617056323a20494e53554646494349454e545f4c4951554944495459556e697377617056323a20494e53554646494349454e545f4c49515549444954595f4255524e4544556e697377617056323a20494e53554646494349454e545f4c49515549444954595f4d494e544544a26469706673582212204f954e6ccc28a8dd69f96aea34570fb210243da859d859d96545b9dcaaf720ea64736f6c634300060c0033a2646970667358221220a97a2dc1b0676674a6016af3c2f5826e8a56fae0e704a1d6a20ea5eaff4c6dbe64736f6c634300060c0033",
    "linkReferences": {}
  },
  "methodIdentifiers": {
    "allPairs(uint256)": "1e3dd18b",
    "allPairsLength()": "574f2ba3",
    "createPair(address,address)": "c9c65396",
    "feeTo()": "017e7e58",
    "feeToSetter()": "094b7415",
    "getPair(address,address)": "e6a43905",
    "pairCodeHash()": "9aab9248",
    "setFeeTo(address)": "f46901ed",
    "setFeeToSetter(address)": "a2e74af6"
  },
  "id": 2
}