{
  "abi": [
    {
      "inputs": [
        {
          "internalType": "address",
          "name": "poolAddress",
          "type": "address"
        }
      ],
      "stateMutability": "nonpayable",
      "type": "constructor"
    },
    {
      "inputs": [
        {
          "internalType": "uint256",
          "name": "amount",
          "type": "uint256"
        }
      ],
      "name": "executeFlashLoan",
      "outputs": [],
      "stateMutability": "nonpayable",
      "type": "function"
    },
    {
      "inputs": [
        {
          "internalType": "address",
          "name": "tokenAddress",
          "type": "address"
        },
        {
          "internalType": "uint256",
          "name": "amount",
          "type": "uint256"
        }
      ],
      "name": "receiveTokens",
      "outputs": [],
      "stateMutability": "nonpayable",
      "type": "function"
    }
  ],
  "bytecode": {
    "object": "0x60c060405234801561001057600080fd5b506040516103e53803806103e583398101604081905261002f91610044565b6001600160a01b03166080523360a052610074565b60006020828403121561005657600080fd5b81516001600160a01b038116811461006d57600080fd5b9392505050565b60805160a05161034661009f60003960006101a2015260008181606e015261022f01526103466000f3fe608060405234801561001057600080fd5b50600436106100365760003560e01c8063357291301461003b578063fb056f6814610050575b600080fd5b61004e610049366004610296565b610063565b005b61004e61005e3660046102ce565b610197565b336001600160a01b037f000000000000000000000000000000000000000000000000000000000000000016146100d65760405162461bcd60e51b815260206004820152601360248201527214d95b99195c881b5d5cdd081899481c1bdbdb606a1b60448201526064015b60405180910390fd5b60405163a9059cbb60e01b8152336004820152602481018290526001600160a01b0383169063a9059cbb906044016020604051808303816000875af1158015610123573d6000803e3d6000fd5b505050506040513d601f19601f8201168201806040525081019061014791906102e7565b6101935760405162461bcd60e51b815260206004820152601960248201527f5472616e73666572206f6620746f6b656e73206661696c65640000000000000060448201526064016100cd565b5050565b336001600160a01b037f000000000000000000000000000000000000000000000000000000000000000016146102195760405162461bcd60e51b815260206004820152602160248201527f4f6e6c79206f776e65722063616e206578656375746520666c617368206c6f616044820152603760f91b60648201526084016100cd565b604051639ab603b960e01b8152600481018290527f00000000000000000000000000000000000000000000000000000000000000006001600160a01b031690639ab603b990602401600060405180830381600087803b15801561027b57600080fd5b505af115801561028f573d6000803e3d6000fd5b5050505050565b600080604083850312156102a957600080fd5b82356001600160a01b03811681146102c057600080fd5b946020939093013593505050565b6000602082840312156102e057600080fd5b5035919050565b6000602082840312156102f957600080fd5b8151801515811461030957600080fd5b939250505056fea2646970667358221220cf1393daabad79fd71b495eb005fa91484578b6e2cc0bbd6d1cc1337dc7c77e464736f6c634300080f0033",
    "linkReferences": {}
  },
  "methodIdentifiers": {
    "executeFlashLoan(uint256)": "fb056f68",
    "receiveTokens(address,uint256)": "35729130"
  },
  "id": 85
}