{
  "abi": [
    {
      "inputs": [
        {
          "internalType": "uint256",
          "name": "initialSupply",
          "type": "uint256"
        }
      ],
      "stateMutability": "nonpayable",
      "type": "constructor"
    },
    {
      "anonymous": false,
      "inputs": [
        {
          "indexed": true,
          "internalType": "address",
          "name": "owner",
          "type": "address"
        },
        {
          "indexed": true,
          "internalType": "address",
          "name": "spender",
          "type": "address"
        },
        {
          "indexed": false,
          "internalType": "uint256",
          "name": "value",
          "type": "uint256"
        }
      ],
      "name": "Approval",
      "type": "event"
    },
    {
      "anonymous": false,
      "inputs": [
        {
          "indexed": false,
          "internalType": "uint256",
          "name": "id",
          "type": "uint256"
        }
      ],
      "name": "Snapshot",
      "type": "event"
    },
    {
      "anonymous": false,
      "inputs": [
        {
          "indexed": true,
          "internalType": "address",
          "name": "from",
          "type": "address"
        },
        {
          "indexed": true,
          "internalType": "address",
          "name": "to",
          "type": "address"
        },
        {
          "indexed": false,
          "internalType": "uint256",
          "name": "value",
          "type": "uint256"
        }
      ],
      "name": "Transfer",
      "type": "event"
    },
    {
      "inputs": [
        {
          "internalType": "address",
          "name": "owner",
          "type": "address"
        },
        {
          "internalType": "address",
          "name": "spender",
          "type": "address"
        }
      ],
      "name": "allowance",
      "outputs": [
        {
          "internalType": "uint256",
          "name": "",
          "type": "uint256"
        }
      ],
      "stateMutability": "view",
      "type": "function"
    },
    {
      "inputs": [
        {
          "internalType": "address",
          "name": "spender",
          "type": "address"
        },
        {
          "internalType": "uint256",
          "name": "amount",
          "type": "uint256"
        }
      ],
      "name": "approve",
      "outputs": [
        {
          "internalType": "bool",
          "name": "",
          "type": "bool"
        }
      ],
      "stateMutability": "nonpayable",
      "type": "function"
    },
    {
      "inputs": [
        {
          "internalType": "address",
          "name": "account",
          "type": "address"
        }
      ],
      "name": "balanceOf",
      "outputs": [
        {
          "internalType": "uint256",
          "name": "",
          "type": "uint256"
        }
      ],
      "stateMutability": "view",
      "type": "function"
    },
    {
      "inputs": [
        {
          "internalType": "address",
          "name": "account",
          "type": "address"
        },
        {
          "internalType": "uint256",
          "name": "snapshotId",
          "type": "uint256"
        }
      ],
      "name": "balanceOfAt",
      "outputs": [
        {
          "internalType": "uint256",
          "name": "",
          "type": "uint256"
        }
      ],
      "stateMutability": "view",
      "type": "function"
    },
    {
      "inputs": [],
      "name": "decimals",
      "outputs": [
        {
          "internalType": "uint8",
          "name": "",
          "type": "uint8"
        }
      ],
      "stateMutability": "view",
      "type": "function"
    },
    {
      "inputs": [
        {
          "internalType": "address",
          "name": "spender",
          "type": "address"
        },
        {
          "internalType": "uint256",
          "name": "subtractedValue",
          "type": "uint256"
        }
      ],
      "name": "decreaseAllowance",
      "outputs": [
        {
          "internalType": "bool",
          "name": "",
          "type": "bool"
        }
      ],
      "stateMutability": "nonpayable",
      "type": "function"
    },
    {
      "inputs": [
        {
          "internalType": "address",
          "name": "account",
          "type": "address"
        }
      ],
      "name": "getBalanceAtLastSnapshot",
      "outputs": [
        {
          "internalType": "uint256",
          "name": "",
          "type": "uint256"
        }
      ],
      "stateMutability": "view",
      "type": "function"
    },
    {
      "inputs": [],
      "name": "getTotalSupplyAtLastSnapshot",
      "outputs": [
        {
          "internalType": "uint256",
          "name": "",
          "type": "uint256"
        }
      ],
      "stateMutability": "view",
      "type": "function"
    },
    {
      "inputs": [
        {
          "internalType": "address",
          "name": "spender",
          "type": "address"
        },
        {
          "internalType": "uint256",
          "name": "addedValue",
          "type": "uint256"
        }
      ],
      "name": "increaseAllowance",
      "outputs": [
        {
          "internalType": "bool",
          "name": "",
          "type": "bool"
        }
      ],
      "stateMutability": "nonpayable",
      "type": "function"
    },
    {
      "inputs": [],
      "name": "name",
      "outputs": [
        {
          "internalType": "string",
          "name": "",
          "type": "string"
        }
      ],
      "stateMutability": "view",
      "type": "function"
    },
    {
      "inputs": [],
      "name": "snapshot",
      "outputs": [
        {
          "internalType": "uint256",
          "name": "",
          "type": "uint256"
        }
      ],
      "stateMutability": "nonpayable",
      "type": "function"
    },
    {
      "inputs": [],
      "name": "symbol",
      "outputs": [
        {
          "internalType": "string",
          "name": "",
          "type": "string"
        }
      ],
      "stateMutability": "view",
      "type": "function"
    },
    {
      "inputs": [],
      "name": "totalSupply",
      "outputs": [
        {
          "internalType": "uint256",
          "name": "",
          "type": "uint256"
        }
      ],
      "stateMutability": "view",
      "type": "function"
    },
    {
      "inputs": [
        {
          "internalType": "uint256",
          "name": "snapshotId",
          "type": "uint256"
        }
      ],
      "name": "totalSupplyAt",
      "outputs": [
        {
          "internalType": "uint256",
          "name": "",
          "type": "uint256"
        }
      ],
      "stateMutability": "view",
      "type": "function"
    },
    {
      "inputs": [
        {
          "internalType": "address",
          "name": "to",
          "type": "address"
        },
        {
          "internalType": "uint256",
          "name": "amount",
          "type": "uint256"
        }
      ],
      "name": "transfer",
      "outputs": [
        {
          "internalType": "bool",
          "name": "",
          "type": "bool"
        }
      ],
      "stateMutability": "nonpayable",
      "type": "function"
    },
    {
      "inputs": [
        {
          "internalType": "address",
          "name": "from",
          "type": "address"
        },
        {
          "internalType": "address",
          "name": "to",
          "type": "address"
        },
        {
          "internalType": "uint256",
          "name": "amount",
          "type": "uint256"
        }
      ],
      "name": "transferFrom",
      "outputs": [
        {
          "internalType": "bool",
          "name": "",
          "type": "bool"
        }
      ],
      "stateMutability": "nonpayable",
      "type": "function"
    }
  ],
  "bytecode": {
    "object": "0x60806040523480156200001157600080fd5b5060405162001267380380620012678339810160408190526200003491620002f7565b6040518060400160405280600c81526020016b2232b334a1ba332a37b5b2b760a11b815250604051806040016040528060038152602001621110d560ea1b8152508160039081620000869190620003b5565b506004620000958282620003b5565b505050620000aa3382620000b160201b60201c565b50620004e2565b6001600160a01b0382166200010c5760405162461bcd60e51b815260206004820152601f60248201527f45524332303a206d696e7420746f20746865207a65726f206164647265737300604482015260640160405180910390fd5b6200011a6000838362000185565b80600260008282546200012e919062000497565b90915550506001600160a01b038216600081815260208181526040808320805486019055518481527fddf252ad1be2c89b69c2b068fc378daa952ba7f163c4a11628f55a4df523b3ef910160405180910390a35050565b6200019d838383620001c160201b620004ae1760201c565b6001600160a01b038316620001c657620001b782620001f1565b620001c162000229565b505050565b6001600160a01b038216620001e057620001b783620001f1565b620001eb83620001f1565b620001c1825b6001600160a01b038116600090815260056020908152604080832091839052909120546200022691906200023b565b6200023b565b50565b6200023960066200022060025490565b565b6000620002476200028a565b9050806200025584620002a8565b1015620001c1578254600180820185556000858152602080822090930193909355938401805494850181558252902090910155565b6000620002a36008620002f360201b620004b31760201c565b905090565b80546000908103620002bc57506000919050565b81548290620002ce90600190620004b2565b81548110620002e157620002e1620004cc565b90600052602060002001549050919050565b5490565b6000602082840312156200030a57600080fd5b5051919050565b634e487b7160e01b600052604160045260246000fd5b600181811c908216806200033c57607f821691505b6020821081036200035d57634e487b7160e01b600052602260045260246000fd5b50919050565b601f821115620001c157600081815260208120601f850160051c810160208610156200038c5750805b601f850160051c820191505b81811015620003ad5782815560010162000398565b505050505050565b81516001600160401b03811115620003d157620003d162000311565b620003e981620003e2845462000327565b8462000363565b602080601f831160018114620004215760008415620004085750858301515b600019600386901b1c1916600185901b178555620003ad565b600085815260208120601f198616915b82811015620004525788860151825594840194600190910190840162000431565b5085821015620004715787850151600019600388901b60f8161c191681555b5050505050600190811b01905550565b634e487b7160e01b600052601160045260246000fd5b60008219821115620004ad57620004ad62000481565b500190565b600082821015620004c757620004c762000481565b500390565b634e487b7160e01b600052603260045260246000fd5b610d7580620004f26000396000f3fe608060405234801561001057600080fd5b50600436106101005760003560e01c806370a0823111610097578063a3ec73fb11610066578063a3ec73fb146101ff578063a457c2d714610207578063a9059cbb1461021a578063dd62ed3e1461022d57600080fd5b806370a08231146101b357806395d89b41146101dc5780639711715a146101e4578063981b24d0146101ec57600080fd5b8063313ce567116100d3578063313ce5671461016b578063395093511461017a5780634591164e1461018d5780634ee2cd7e146101a057600080fd5b806306fdde0314610105578063095ea7b31461012357806318160ddd1461014657806323b872dd14610158575b600080fd5b61010d610240565b60405161011a9190610b4f565b60405180910390f35b610136610131366004610bbb565b6102d2565b604051901515815260200161011a565b6002545b60405190815260200161011a565b610136610166366004610be5565b6102ec565b6040516012815260200161011a565b610136610188366004610bbb565b610310565b61014a61019b366004610c21565b610332565b61014a6101ae366004610bbb565b61033c565b61014a6101c1366004610c21565b6001600160a01b031660009081526020819052604090205490565b61010d610395565b61014a6103a4565b61014a6101fa366004610c3c565b6103b8565b61014a6103e3565b610136610215366004610bbb565b6103f5565b610136610228366004610bbb565b610475565b61014a61023b366004610c55565b610483565b60606003805461024f90610c88565b80601f016020809104026020016040519081016040528092919081815260200182805461027b90610c88565b80156102c85780601f1061029d576101008083540402835291602001916102c8565b820191906000526020600020905b8154815290600101906020018083116102ab57829003601f168201915b5050505050905090565b6000336102e08185856104b7565b60019150505b92915050565b6000336102fa8582856105db565b610305858585610655565b506001949350505050565b6000336102e08185856103238383610483565b61032d9190610cd8565b6104b7565b60006102e6826009545b6001600160a01b038216600090815260056020526040812081908190610363908590610804565b915091508161038a576001600160a01b03851660009081526020819052604090205461038c565b805b95945050505050565b60606004805461024f90610c88565b60006103ae6108fa565b6009819055919050565b60008060006103c8846006610804565b91509150816103d9576002546103db565b805b949350505050565b60006103f06009546103b8565b905090565b600033816104038286610483565b9050838110156104685760405162461bcd60e51b815260206004820152602560248201527f45524332303a2064656372656173656420616c6c6f77616e63652062656c6f77604482015264207a65726f60d81b60648201526084015b60405180910390fd5b61030582868684036104b7565b6000336102e0818585610655565b6001600160a01b03918216600090815260016020908152604080832093909416825291909152205490565b505050565b5490565b6001600160a01b0383166105195760405162461bcd60e51b8152602060048201526024808201527f45524332303a20617070726f76652066726f6d20746865207a65726f206164646044820152637265737360e01b606482015260840161045f565b6001600160a01b03821661057a5760405162461bcd60e51b815260206004820152602260248201527f45524332303a20617070726f766520746f20746865207a65726f206164647265604482015261737360f01b606482015260840161045f565b6001600160a01b0383811660008181526001602090815260408083209487168084529482529182902085905590518481527f8c5be1e5ebec7d5bd14f71427d1e84f3dd0314c0f7b2291e5b200ac8c7c3b925910160405180910390a3505050565b60006105e78484610483565b9050600019811461064f57818110156106425760405162461bcd60e51b815260206004820152601d60248201527f45524332303a20696e73756666696369656e7420616c6c6f77616e6365000000604482015260640161045f565b61064f84848484036104b7565b50505050565b6001600160a01b0383166106b95760405162461bcd60e51b815260206004820152602560248201527f45524332303a207472616e736665722066726f6d20746865207a65726f206164604482015264647265737360d81b606482015260840161045f565b6001600160a01b03821661071b5760405162461bcd60e51b815260206004820152602360248201527f45524332303a207472616e7366657220746f20746865207a65726f206164647260448201526265737360e81b606482015260840161045f565b610726838383610954565b6001600160a01b0383166000908152602081905260409020548181101561079e5760405162461bcd60e51b815260206004820152602660248201527f45524332303a207472616e7366657220616d6f756e7420657863656564732062604482015265616c616e636560d01b606482015260840161045f565b6001600160a01b03848116600081815260208181526040808320878703905593871680835291849020805487019055925185815290927fddf252ad1be2c89b69c2b068fc378daa952ba7f163c4a11628f55a4df523b3ef910160405180910390a361064f565b600080600084116108505760405162461bcd60e51b815260206004820152601660248201527504552433230536e617073686f743a20696420697320360541b604482015260640161045f565b61085861099c565b8411156108a75760405162461bcd60e51b815260206004820152601d60248201527f4552433230536e617073686f743a206e6f6e6578697374656e74206964000000604482015260640161045f565b60006108b384866109a7565b845490915081036108cb5760008092509250506108f3565b60018460010182815481106108e2576108e2610cf0565b906000526020600020015492509250505b9250929050565b600061090a600880546001019055565b600061091461099c565b90507f8030e83b04d87bef53480e26263266d6ca66863aa8506aca6f2559d18aa1cb678160405161094791815260200190565b60405180910390a1919050565b6001600160a01b0383166109735761096b82610a54565b6104ae610a89565b6001600160a01b03821661098a5761096b83610a54565b61099383610a54565b6104ae82610a54565b60006103f060085490565b815460009081036109ba575060006102e6565b82546000905b80821015610a075760006109d48383610a99565b600087815260209020909150859082015411156109f357809150610a01565b6109fe816001610cd8565b92505b506109c0565b600082118015610a33575083610a3086610a22600186610d06565b600091825260209091200190565b54145b15610a4c57610a43600183610d06565b925050506102e6565b5090506102e6565b6001600160a01b03811660009081526005602090815260408083209183905290912054610a869190610abb565b610abb565b50565b610a976006610a8160025490565b565b6000610aa86002848418610d1d565b610ab490848416610cd8565b9392505050565b6000610ac561099c565b905080610ad184610b05565b10156104ae578254600180820185556000858152602080822090930193909355938401805494850181558252902090910155565b80546000908103610b1857506000919050565b81548290610b2890600190610d06565b81548110610b3857610b38610cf0565b90600052602060002001549050919050565b919050565b600060208083528351808285015260005b81811015610b7c57858101830151858201604001528201610b60565b81811115610b8e576000604083870101525b50601f01601f1916929092016040019392505050565b80356001600160a01b0381168114610b4a57600080fd5b60008060408385031215610bce57600080fd5b610bd783610ba4565b946020939093013593505050565b600080600060608486031215610bfa57600080fd5b610c0384610ba4565b9250610c1160208501610ba4565b9150604084013590509250925092565b600060208284031215610c3357600080fd5b610ab482610ba4565b600060208284031215610c4e57600080fd5b5035919050565b60008060408385031215610c6857600080fd5b610c7183610ba4565b9150610c7f60208401610ba4565b90509250929050565b600181811c90821680610c9c57607f821691505b602082108103610cbc57634e487b7160e01b600052602260045260246000fd5b50919050565b634e487b7160e01b600052601160045260246000fd5b60008219821115610ceb57610ceb610cc2565b500190565b634e487b7160e01b600052603260045260246000fd5b600082821015610d1857610d18610cc2565b500390565b600082610d3a57634e487b7160e01b600052601260045260246000fd5b50049056fea26469706673582212205a3611c89263644cb38e686305e315047c5946eaba239cb24639313677f7497a64736f6c634300080f0033",
    "linkReferences": {}
  },
  "methodIdentifiers": {
    "allowance(address,address)": "dd62ed3e",
    "approve(address,uint256)": "095ea7b3",
    "balanceOf(address)": "70a08231",
    "balanceOfAt(address,uint256)": "4ee2cd7e",
    "decimals()": "313ce567",
    "decreaseAllowance(address,uint256)": "a457c2d7",
    "getBalanceAtLastSnapshot(address)": "4591164e",
    "getTotalSupplyAtLastSnapshot()": "a3ec73fb",
    "increaseAllowance(address,uint256)": "39509351",
    "name()": "06fdde03",
    "snapshot()": "9711715a",
    "symbol()": "95d89b41",
    "totalSupply()": "18160ddd",
    "totalSupplyAt(uint256)": "981b24d0",
    "transfer(address,uint256)": "a9059cbb",
    "transferFrom(address,address,uint256)": "23b872dd"
  },
  "id": 74
}