{
  "abi": [
    {
      "inputs": [],
      "stateMutability": "nonpayable",
      "type": "constructor"
    },
    {
      "anonymous": false,
      "inputs": [
        {
          "indexed": false,
          "internalType": "address",
          "name": "previousAdmin",
          "type": "address"
        },
        {
          "indexed": false,
          "internalType": "address",
          "name": "newAdmin",
          "type": "address"
        }
      ],
      "name": "AdminChanged",
      "type": "event"
    },
    {
      "anonymous": false,
      "inputs": [
        {
          "indexed": true,
          "internalType": "address",
          "name": "beacon",
          "type": "address"
        }
      ],
      "name": "BeaconUpgraded",
      "type": "event"
    },
    {
      "anonymous": false,
      "inputs": [
        {
          "indexed": false,
          "internalType": "uint8",
          "name": "version",
          "type": "uint8"
        }
      ],
      "name": "Initialized",
      "type": "event"
    },
    {
      "anonymous": false,
      "inputs": [
        {
          "indexed": true,
          "internalType": "address",
          "name": "previousOwner",
          "type": "address"
        },
        {
          "indexed": true,
          "internalType": "address",
          "name": "newOwner",
          "type": "address"
        }
      ],
      "name": "OwnershipTransferred",
      "type": "event"
    },
    {
      "anonymous": false,
      "inputs": [
        {
          "indexed": true,
          "internalType": "address",
          "name": "implementation",
          "type": "address"
        }
      ],
      "name": "Upgraded",
      "type": "event"
    },
    {
      "inputs": [],
      "name": "WAITING_PERIOD",
      "outputs": [
        {
          "internalType": "uint256",
          "name": "",
          "type": "uint256"
        }
      ],
      "stateMutability": "view",
      "type": "function"
    },
    {
      "inputs": [],
      "name": "WITHDRAWAL_LIMIT",
      "outputs": [
        {
          "internalType": "uint256",
          "name": "",
          "type": "uint256"
        }
      ],
      "stateMutability": "view",
      "type": "function"
    },
    {
      "inputs": [],
      "name": "getLastWithdrawalTimestamp",
      "outputs": [
        {
          "internalType": "uint256",
          "name": "",
          "type": "uint256"
        }
      ],
      "stateMutability": "view",
      "type": "function"
    },
    {
      "inputs": [],
      "name": "getSweeper",
      "outputs": [
        {
          "internalType": "address",
          "name": "",
          "type": "address"
        }
      ],
      "stateMutability": "view",
      "type": "function"
    },
    {
      "inputs": [
        {
          "internalType": "address",
          "name": "admin",
          "type": "address"
        },
        {
          "internalType": "address",
          "name": "proposer",
          "type": "address"
        },
        {
          "internalType": "address",
          "name": "sweeper",
          "type": "address"
        }
      ],
      "name": "initialize",
      "outputs": [],
      "stateMutability": "nonpayable",
      "type": "function"
    },
    {
      "inputs": [],
      "name": "owner",
      "outputs": [
        {
          "internalType": "address",
          "name": "",
          "type": "address"
        }
      ],
      "stateMutability": "view",
      "type": "function"
    },
    {
      "inputs": [],
      "name": "proxiableUUID",
      "outputs": [
        {
          "internalType": "bytes32",
          "name": "",
          "type": "bytes32"
        }
      ],
      "stateMutability": "view",
      "type": "function"
    },
    {
      "inputs": [],
      "name": "renounceOwnership",
      "outputs": [],
      "stateMutability": "nonpayable",
      "type": "function"
    },
    {
      "inputs": [
        {
          "internalType": "address",
          "name": "tokenAddress",
          "type": "address"
        }
      ],
      "name": "sweepFunds",
      "outputs": [],
      "stateMutability": "nonpayable",
      "type": "function"
    },
    {
      "inputs": [
        {
          "internalType": "address",
          "name": "newOwner",
          "type": "address"
        }
      ],
      "name": "transferOwnership",
      "outputs": [],
      "stateMutability": "nonpayable",
      "type": "function"
    },
    {
      "inputs": [
        {
          "internalType": "address",
          "name": "newImplementation",
          "type": "address"
        }
      ],
      "name": "upgradeTo",
      "outputs": [],
      "stateMutability": "nonpayable",
      "type": "function"
    },
    {
      "inputs": [
        {
          "internalType": "address",
          "name": "newImplementation",
          "type": "address"
        },
        {
          "internalType": "bytes",
          "name": "data",
          "type": "bytes"
        }
      ],
      "name": "upgradeToAndCall",
      "outputs": [],
      "stateMutability": "payable",
      "type": "function"
    },
    {
      "inputs": [
        {
          "internalType": "address",
          "name": "tokenAddress",
          "type": "address"
        },
        {
          "internalType": "address",
          "name": "recipient",
          "type": "address"
        },
        {
          "internalType": "uint256",
          "name": "amount",
          "type": "uint256"
        }
      ],
      "name": "withdraw",
      "outputs": [],
      "stateMutability": "nonpayable",
      "type": "function"
    }
  ],
  "bytecode": {
    "object": "0x60a06040523060805234801561001457600080fd5b50600054610100900460ff16158080156100355750600054600160ff909116105b80610060575061004e3061013660201b610a2f1760201c565b158015610060575060005460ff166001145b6100c75760405162461bcd60e51b815260206004820152602e60248201527f496e697469616c697a61626c653a20636f6e747261637420697320616c72656160448201526d191e481a5b9a5d1a585b1a5e995960921b606482015260840160405180910390fd5b6000805460ff1916600117905580156100ea576000805461ff0019166101001790555b8015610130576000805461ff0019169055604051600181527f7f26b83ff96e1f2b6a682f133852f6798a09c465da95921460cefb38474024989060200160405180910390a15b50610145565b6001600160a01b03163b151590565b6080516129d06200017d60003960008181610420015281816104630152818161050b0152818161054e01526105e601526129d06000f3fe608060405260043610620000d25760003560e01c8063715018a61162000089578063c0c53b8b1162000060578063c0c53b8b14620001fa578063d9caed12146200021f578063deb0f0701462000244578063f2fde38b146200026457600080fd5b8063715018a6146200019057806382ee0d1d14620001a85780638da5cb5b14620001c657600080fd5b80630fe2890814620000d7578063266df78214620000fe5780633659cfe614620001235780634f1ef286146200014857806352d1902d146200015f5780636f85c7e41462000177575b600080fd5b348015620000e457600080fd5b50620000fc620000f636600462000f8b565b62000289565b005b3480156200010b57600080fd5b5060c9545b6040519081526020015b60405180910390f35b3480156200013057600080fd5b50620000fc6200014236600462000f8b565b62000416565b620000fc6200015936600462000fbf565b62000501565b3480156200016c57600080fd5b5062000110620005d9565b3480156200018457600080fd5b50620001106213c68081565b3480156200019d57600080fd5b50620000fc6200068f565b348015620001b557600080fd5b5062000110670de0b6b3a764000081565b348015620001d357600080fd5b506033546001600160a01b03165b6040516001600160a01b0390911681526020016200011a565b3480156200020757600080fd5b50620000fc620002193660046200108d565b620006a7565b3480156200022c57600080fd5b50620000fc6200023e366004620010d7565b62000846565b3480156200025157600080fd5b5060ca546001600160a01b0316620001e1565b3480156200027157600080fd5b50620000fc6200028336600462000f8b565b620009b3565b60ca546001600160a01b03163314620002e25760405162461bcd60e51b815260206004820152601660248201527521b0b63632b91036bab9ba1031329039bbb2b2b832b960511b60448201526064015b60405180910390fd5b60ca546040516370a0823160e01b815230600482015282916001600160a01b038084169263a9059cbb92919091169083906370a0823190602401602060405180830381865afa1580156200033a573d6000803e3d6000fd5b505050506040513d601f19601f8201168201806040525081019062000360919062001118565b6040516001600160e01b031960e085901b1681526001600160a01b03909216600483015260248201526044016020604051808303816000875af1158015620003ac573d6000803e3d6000fd5b505050506040513d601f19601f82011682018060405250810190620003d2919062001132565b620004125760405162461bcd60e51b815260206004820152600f60248201526e151c985b9cd9995c8819985a5b1959608a1b6044820152606401620002d9565b5050565b6001600160a01b037f0000000000000000000000000000000000000000000000000000000000000000163003620004615760405162461bcd60e51b8152600401620002d99062001156565b7f00000000000000000000000000000000000000000000000000000000000000006001600160a01b0316620004ac60008051602062002954833981519152546001600160a01b031690565b6001600160a01b031614620004d55760405162461bcd60e51b8152600401620002d990620011a2565b620004e08162000a3e565b60408051600080825260208201909252620004fe9183919062000a48565b50565b6001600160a01b037f00000000000000000000000000000000000000000000000000000000000000001630036200054c5760405162461bcd60e51b8152600401620002d99062001156565b7f00000000000000000000000000000000000000000000000000000000000000006001600160a01b03166200059760008051602062002954833981519152546001600160a01b031690565b6001600160a01b031614620005c05760405162461bcd60e51b8152600401620002d990620011a2565b620005cb8262000a3e565b620004128282600162000a48565b6000306001600160a01b037f000000000000000000000000000000000000000000000000000000000000000016146200067b5760405162461bcd60e51b815260206004820152603860248201527f555550535570677261646561626c653a206d757374206e6f742062652063616c60448201527f6c6564207468726f7567682064656c656761746563616c6c00000000000000006064820152608401620002d9565b506000805160206200295483398151915290565b6200069962000bc5565b620006a5600062000c21565b565b600054610100900460ff1615808015620006c85750600054600160ff909116105b80620006e45750303b158015620006e4575060005460ff166001145b620007495760405162461bcd60e51b815260206004820152602e60248201527f496e697469616c697a61626c653a20636f6e747261637420697320616c72656160448201526d191e481a5b9a5d1a585b1a5e995960921b6064820152608401620002d9565b6000805460ff1916600117905580156200076d576000805461ff0019166101001790555b6200077762000c73565b6200078162000ca7565b620007d08484604051620007959062000f60565b6001600160a01b03928316815291166020820152604001604051809103906000f080158015620007c9573d6000803e3d6000fd5b50620009b3565b60ca80546001600160a01b0319166001600160a01b038416179055620007f54260c955565b4260c955801562000840576000805461ff0019169055604051600181527f7f26b83ff96e1f2b6a682f133852f6798a09c465da95921460cefb38474024989060200160405180910390a15b50505050565b6200085062000bc5565b670de0b6b3a7640000811115620008a15760405162461bcd60e51b81526020600482015260146024820152730aed2e8d0c8e4c2eed2dcce40e8dede40daeac6d60631b6044820152606401620002d9565b6213c68060c954620008b49190620011ee565b4211620008f05760405162461bcd60e51b81526020600482015260096024820152682a393c903630ba32b960b91b6044820152606401620002d9565b620008fa4260c955565b60405163a9059cbb60e01b81526001600160a01b0383811660048301526024820183905284919082169063a9059cbb906044016020604051808303816000875af11580156200094d573d6000803e3d6000fd5b505050506040513d601f19601f8201168201806040525081019062000973919062001132565b620008405760405162461bcd60e51b815260206004820152600f60248201526e151c985b9cd9995c8819985a5b1959608a1b6044820152606401620002d9565b620009bd62000bc5565b6001600160a01b03811662000a245760405162461bcd60e51b815260206004820152602660248201527f4f776e61626c653a206e6577206f776e657220697320746865207a65726f206160448201526564647265737360d01b6064820152608401620002d9565b620004fe8162000c21565b6001600160a01b03163b151590565b620004fe62000bc5565b7f4910fdfa16fed3260ed0e7147f7cc6da11a60208b5b9406d12a635614ffd91435460ff161562000a835762000a7e8362000cd1565b505050565b826001600160a01b03166352d1902d6040518163ffffffff1660e01b8152600401602060405180830381865afa92505050801562000ae0575060408051601f3d908101601f1916820190925262000add9181019062001118565b60015b62000b455760405162461bcd60e51b815260206004820152602e60248201527f45524331393637557067726164653a206e657720696d706c656d656e7461746960448201526d6f6e206973206e6f74205555505360901b6064820152608401620002d9565b60008051602062002954833981519152811462000bb75760405162461bcd60e51b815260206004820152602960248201527f45524331393637557067726164653a20756e737570706f727465642070726f786044820152681a58589b195555525160ba1b6064820152608401620002d9565b5062000a7e83838362000d70565b6033546001600160a01b03163314620006a55760405162461bcd60e51b815260206004820181905260248201527f4f776e61626c653a2063616c6c6572206973206e6f7420746865206f776e65726044820152606401620002d9565b603380546001600160a01b038381166001600160a01b0319831681179093556040519116919082907f8be0079c531659141344cd1fd0a4f28419497f9722a3daafe3b4186f6b6457e090600090a35050565b600054610100900460ff1662000c9d5760405162461bcd60e51b8152600401620002d99062001215565b620006a562000d9b565b600054610100900460ff16620006a55760405162461bcd60e51b8152600401620002d99062001215565b6001600160a01b0381163b62000d405760405162461bcd60e51b815260206004820152602d60248201527f455243313936373a206e657720696d706c656d656e746174696f6e206973206e60448201526c1bdd08184818dbdb9d1c9858dd609a1b6064820152608401620002d9565b6000805160206200295483398151915280546001600160a01b0319166001600160a01b0392909216919091179055565b62000d7b8362000dd0565b60008251118062000d895750805b1562000a7e5762000840838362000e12565b600054610100900460ff1662000dc55760405162461bcd60e51b8152600401620002d99062001215565b620006a53362000c21565b62000ddb8162000cd1565b6040516001600160a01b038216907fbc7cd75a20ee27fd9adebab32041f755214dbc6bffa90cc0225b39da2e5c2d3b90600090a250565b60606001600160a01b0383163b62000e7c5760405162461bcd60e51b815260206004820152602660248201527f416464726573733a2064656c65676174652063616c6c20746f206e6f6e2d636f6044820152651b9d1c9858dd60d21b6064820152608401620002d9565b600080846001600160a01b03168460405162000e9991906200128f565b600060405180830381855af49150503d806000811462000ed6576040519150601f19603f3d011682016040523d82523d6000602084013e62000edb565b606091505b509150915062000f068282604051806060016040528060278152602001620029746027913962000f0f565b95945050505050565b6060831562000f2057508162000f2c565b62000f2c838362000f33565b9392505050565b81511562000f445781518083602001fd5b8060405162461bcd60e51b8152600401620002d99190620012ad565b61167180620012e383390190565b80356001600160a01b038116811462000f8657600080fd5b919050565b60006020828403121562000f9e57600080fd5b62000f2c8262000f6e565b634e487b7160e01b600052604160045260246000fd5b6000806040838503121562000fd357600080fd5b62000fde8362000f6e565b9150602083013567ffffffffffffffff8082111562000ffc57600080fd5b818501915085601f8301126200101157600080fd5b81358181111562001026576200102662000fa9565b604051601f8201601f19908116603f0116810190838211818310171562001051576200105162000fa9565b816040528281528860208487010111156200106b57600080fd5b8260208601602083013760006020848301015280955050505050509250929050565b600080600060608486031215620010a357600080fd5b620010ae8462000f6e565b9250620010be6020850162000f6e565b9150620010ce6040850162000f6e565b90509250925092565b600080600060608486031215620010ed57600080fd5b620010f88462000f6e565b9250620011086020850162000f6e565b9150604084013590509250925092565b6000602082840312156200112b57600080fd5b5051919050565b6000602082840312156200114557600080fd5b8151801515811462000f2c57600080fd5b6020808252602c908201527f46756e6374696f6e206d7573742062652063616c6c6564207468726f7567682060408201526b19195b1959d85d1958d85b1b60a21b606082015260800190565b6020808252602c908201527f46756e6374696f6e206d7573742062652063616c6c6564207468726f7567682060408201526b6163746976652070726f787960a01b606082015260800190565b600082198211156200121057634e487b7160e01b600052601160045260246000fd5b500190565b6020808252602b908201527f496e697469616c697a61626c653a20636f6e7472616374206973206e6f74206960408201526a6e697469616c697a696e6760a81b606082015260800190565b60005b838110156200127d57818101518382015260200162001263565b83811115620008405750506000910152565b60008251620012a381846020870162001260565b9190910192915050565b6020815260008251806020840152620012ce81604085016020870162001260565b601f01601f1916919091016040019291505056fe6080604052600280546001600160401b031916610e101790553480156200002557600080fd5b5060405162001671380380620016718339810160408190526200004891620001fe565b620000636000805160206200165183398151915280620000e6565b6200008d6000805160206200163183398151915260008051602062001651833981519152620000e6565b620000a8600080516020620016518339815191528362000131565b620000c3600080516020620016518339815191523062000131565b620000de600080516020620016318339815191528262000131565b505062000236565b600082815260208190526040808220600101805490849055905190918391839186917fbd79b86ffe0ab8e8776151514217cd7cacd52c909f66475c3af44e129f0b00ff9190a4505050565b6200013d828262000141565b5050565b6000828152602081815260408083206001600160a01b038516845290915290205460ff166200013d576000828152602081815260408083206001600160a01b03851684529091529020805460ff191660011790556200019d3390565b6001600160a01b0316816001600160a01b0316837f2f8788117e7eff1d82e926ec794901d17c78024a50270940304540a733656f0d60405160405180910390a45050565b80516001600160a01b0381168114620001f957600080fd5b919050565b600080604083850312156200021257600080fd5b6200021d83620001e1565b91506200022d60208401620001e1565b90509250929050565b6113eb80620002466000396000f3fe6080604052600436106100f75760003560e01c806375b238fc1161008a57806391d148541161005957806391d14854146102f8578063a217fddf14610318578063c74f349b1461032d578063d547741f146103a057600080fd5b806375b238fc146102435780637958004c146102775780638f61f4f5146102a457806390bd1e6d146102d857600080fd5b80632f2ff15d116100c65780632f2ff15d146101ab57806336568abe146101cb57806357f525ed146101eb5780636a42b8f81461020b57600080fd5b806301ffc9a714610103578063248a9ca31461013857806324adbc5b146101765780632656227d1461019857600080fd5b366100fe57005b600080fd5b34801561010f57600080fd5b5061012361011e366004610e1c565b6103c0565b60405190151581526020015b60405180910390f35b34801561014457600080fd5b50610168610153366004610e46565b60009081526020819052604090206001015490565b60405190815260200161012f565b34801561018257600080fd5b50610196610191366004610e5f565b6103f7565b005b6101966101a6366004610ed3565b6104ca565b3480156101b757600080fd5b506101966101c6366004610f91565b61066e565b3480156101d757600080fd5b506101966101e6366004610f91565b610698565b3480156101f757600080fd5b50610168610206366004610ed3565b610716565b34801561021757600080fd5b5060025461022b906001600160401b031681565b6040516001600160401b03909116815260200161012f565b34801561024f57600080fd5b506101687fa49807205ce4d355092ef5a8a18f56e8913cf4a201fbe287825b095693c2177581565b34801561028357600080fd5b50610297610292366004610e46565b610758565b60405161012f9190610fd3565b3480156102b057600080fd5b506101687fb09aa5aeb3702cfd50b6b62bc4532604938f21248a27a1d5ca736082b6819cc181565b3480156102e457600080fd5b506101966102f3366004610ed3565b6107f3565b34801561030457600080fd5b50610123610313366004610f91565b61091f565b34801561032457600080fd5b50610168600081565b34801561033957600080fd5b50610379610348366004610e46565b6001602052600090815260409020546001600160401b0381169060ff600160401b8204811691600160481b90041683565b604080516001600160401b039094168452911515602084015215159082015260600161012f565b3480156103ac57600080fd5b506101966103bb366004610f91565b610948565b60006001600160e01b03198216637965db0b60e01b14806103f157506301ffc9a760e01b6001600160e01b03198316145b92915050565b33301461044b5760405162461bcd60e51b815260206004820152601e60248201527f43616c6c6572206d7573742062652074696d656c6f636b20697473656c66000060448201526064015b60405180910390fd5b62127500816001600160401b031611156104a75760405162461bcd60e51b815260206004820152601d60248201527f44656c6179206d7573742062652031342064617973206f72206c6573730000006044820152606401610442565b6002805467ffffffffffffffff19166001600160401b0392909216919091179055565b856105175760405162461bcd60e51b815260206004820181905260248201527f4d7573742070726f76696465206174206c65617374206f6e65207461726765746044820152606401610442565b85841461052357600080fd5b85821461052f57600080fd5b600061054088888888888888610716565b905060005b60ff81168811156106195761060685858360ff1681811061056857610568610ffb565b905060200281019061057a9190611011565b8080601f0160208091040260200160405190810160405280939291908181526020018383808284376000920191909152508b92508a91505060ff85168181106105c5576105c5610ffb565b905060200201358b8b8560ff168181106105e1576105e1610ffb565b90506020020160208101906105f69190611057565b6001600160a01b0316919061096d565b508061061181611088565b915050610545565b50600261062582610758565b600381111561063657610636610fbd565b1461064057600080fd5b6000908152600160205260409020805469ff0000000000000000001916600160481b17905550505050505050565b6000828152602081905260409020600101546106898161099b565b61069383836109a8565b505050565b6001600160a01b03811633146107085760405162461bcd60e51b815260206004820152602f60248201527f416363657373436f6e74726f6c3a2063616e206f6e6c792072656e6f756e636560448201526e103937b632b9903337b91039b2b63360891b6064820152608401610442565b6107128282610a2c565b5050565b6000878787878787876040516020016107359796959493929190611161565b604051602081830303815290604052805190602001209050979650505050505050565b6000818152600160209081526040808320815160608101835290546001600160401b038116825260ff600160401b82048116151594830194909452600160481b9004909216158015918301919091526107b45750600392915050565b4281600001516001600160401b0316106107d15750600292915050565b80516001600160401b0316156107ea5750600192915050565b50600092915050565b7fb09aa5aeb3702cfd50b6b62bc4532604938f21248a27a1d5ca736082b6819cc161081d8161099b565b861580159061082d575061010087105b61083657600080fd5b86851461084257600080fd5b86831461084e57600080fd5b600061085f89898989898989610716565b9050600061086c82610758565b600381111561087d5761087d610fbd565b146108ca5760405162461bcd60e51b815260206004820152601760248201527f4f7065726174696f6e20616c7265616479206b6e6f776e0000000000000000006044820152606401610442565b6002546108e0906001600160401b031642611209565b600091825260016020526040909120805468ffffffffffffffffff19166001600160401b039290921691909117600160401b1790555050505050505050565b6000918252602082815260408084206001600160a01b0393909316845291905290205460ff1690565b6000828152602081905260409020600101546109638161099b565b6106938383610a2c565b606061099384848460405180606001604052806029815260200161138d60299139610a91565b949350505050565b6109a58133610b6c565b50565b6109b2828261091f565b610712576000828152602081815260408083206001600160a01b03851684529091529020805460ff191660011790556109e83390565b6001600160a01b0316816001600160a01b0316837f2f8788117e7eff1d82e926ec794901d17c78024a50270940304540a733656f0d60405160405180910390a45050565b610a36828261091f565b15610712576000828152602081815260408083206001600160a01b0385168085529252808320805460ff1916905551339285917ff6391f5c32d9c69d2a47ea670b442974b53935d1edc7fd64eb21e047a839171b9190a45050565b606082471015610af25760405162461bcd60e51b815260206004820152602660248201527f416464726573733a20696e73756666696369656e742062616c616e636520666f6044820152651c8818d85b1b60d21b6064820152608401610442565b600080866001600160a01b03168587604051610b0e9190611264565b60006040518083038185875af1925050503d8060008114610b4b576040519150601f19603f3d011682016040523d82523d6000602084013e610b50565b606091505b5091509150610b6187838387610bc5565b979650505050505050565b610b76828261091f565b61071257610b8381610c3e565b610b8e836020610c50565b604051602001610b9f929190611280565b60408051601f198184030181529082905262461bcd60e51b8252610442916004016112f5565b60608315610c34578251600003610c2d576001600160a01b0385163b610c2d5760405162461bcd60e51b815260206004820152601d60248201527f416464726573733a2063616c6c20746f206e6f6e2d636f6e74726163740000006044820152606401610442565b5081610993565b6109938383610df2565b60606103f16001600160a01b03831660145b60606000610c5f836002611328565b610c6a906002611347565b6001600160401b03811115610c8157610c8161135f565b6040519080825280601f01601f191660200182016040528015610cab576020820181803683370190505b509050600360fc1b81600081518110610cc657610cc6610ffb565b60200101906001600160f81b031916908160001a905350600f60fb1b81600181518110610cf557610cf5610ffb565b60200101906001600160f81b031916908160001a9053506000610d19846002611328565b610d24906001611347565b90505b6001811115610d9c576f181899199a1a9b1b9c1cb0b131b232b360811b85600f1660108110610d5857610d58610ffb565b1a60f81b828281518110610d6e57610d6e610ffb565b60200101906001600160f81b031916908160001a90535060049490941c93610d9581611375565b9050610d27565b508315610deb5760405162461bcd60e51b815260206004820181905260248201527f537472696e67733a20686578206c656e67746820696e73756666696369656e746044820152606401610442565b9392505050565b815115610e025781518083602001fd5b8060405162461bcd60e51b815260040161044291906112f5565b600060208284031215610e2e57600080fd5b81356001600160e01b031981168114610deb57600080fd5b600060208284031215610e5857600080fd5b5035919050565b600060208284031215610e7157600080fd5b81356001600160401b0381168114610deb57600080fd5b60008083601f840112610e9a57600080fd5b5081356001600160401b03811115610eb157600080fd5b6020830191508360208260051b8501011115610ecc57600080fd5b9250929050565b60008060008060008060006080888a031215610eee57600080fd5b87356001600160401b0380821115610f0557600080fd5b610f118b838c01610e88565b909950975060208a0135915080821115610f2a57600080fd5b610f368b838c01610e88565b909750955060408a0135915080821115610f4f57600080fd5b50610f5c8a828b01610e88565b989b979a50959894979596606090950135949350505050565b80356001600160a01b0381168114610f8c57600080fd5b919050565b60008060408385031215610fa457600080fd5b82359150610fb460208401610f75565b90509250929050565b634e487b7160e01b600052602160045260246000fd5b6020810160048310610ff557634e487b7160e01b600052602160045260246000fd5b91905290565b634e487b7160e01b600052603260045260246000fd5b6000808335601e1984360301811261102857600080fd5b8301803591506001600160401b0382111561104257600080fd5b602001915036819003821315610ecc57600080fd5b60006020828403121561106957600080fd5b610deb82610f75565b634e487b7160e01b600052601160045260246000fd5b600060ff821660ff810361109e5761109e611072565b60010192915050565b81835281816020850137506000828201602090810191909152601f909101601f19169091010190565b81835260006020808501808196508560051b810191508460005b878110156111545782840389528135601e1988360301811261110b57600080fd5b870185810190356001600160401b0381111561112657600080fd5b80360382131561113557600080fd5b6111408682846110a7565b9a87019a95505050908401906001016110ea565b5091979650505050505050565b6080808252810187905260008860a08301825b8a8110156111a2576001600160a01b0361118d84610f75565b16825260209283019290910190600101611174565b5083810360208501528781526001600160fb1b038811156111c257600080fd5b8760051b915081896020830137818101915050602081016000815260208483030160408501526111f38187896110d0565b9250505082606083015298975050505050505050565b60006001600160401b0380831681851680830382111561122b5761122b611072565b01949350505050565b60005b8381101561124f578181015183820152602001611237565b8381111561125e576000848401525b50505050565b60008251611276818460208701611234565b9190910192915050565b7f416363657373436f6e74726f6c3a206163636f756e74200000000000000000008152600083516112b8816017850160208801611234565b7001034b99036b4b9b9b4b733903937b6329607d1b60179184019182015283516112e9816028840160208801611234565b01602801949350505050565b6020815260008251806020840152611314816040850160208701611234565b601f01601f19169190910160400192915050565b600081600019048311821515161561134257611342611072565b500290565b6000821982111561135a5761135a611072565b500190565b634e487b7160e01b600052604160045260246000fd5b60008161138457611384611072565b50600019019056fe416464726573733a206c6f772d6c6576656c2063616c6c20776974682076616c7565206661696c6564a2646970667358221220cb9fc0e072a728ef45f9107c3e22a7a9431c8f32d333ff81e0e092c30ca33bd264736f6c634300080f0033b09aa5aeb3702cfd50b6b62bc4532604938f21248a27a1d5ca736082b6819cc1a49807205ce4d355092ef5a8a18f56e8913cf4a201fbe287825b095693c21775360894a13ba1a3210667c828492db98dca3e2076cc3735a920a3ca505d382bbc416464726573733a206c6f772d6c6576656c2064656c65676174652063616c6c206661696c6564a26469706673582212206e211da15fbce01212f4f46b97c97e1ca5ef90091e6c544a74471f248c4f74a864736f6c634300080f0033",
    "linkReferences": {}
  },
  "methodIdentifiers": {
    "WAITING_PERIOD()": "6f85c7e4",
    "WITHDRAWAL_LIMIT()": "82ee0d1d",
    "getLastWithdrawalTimestamp()": "266df782",
    "getSweeper()": "deb0f070",
    "initialize(address,address,address)": "c0c53b8b",
    "owner()": "8da5cb5b",
    "proxiableUUID()": "52d1902d",
    "renounceOwnership()": "715018a6",
    "sweepFunds(address)": "0fe28908",
    "transferOwnership(address)": "f2fde38b",
    "upgradeTo(address)": "3659cfe6",
    "upgradeToAndCall(address,bytes)": "4f1ef286",
    "withdraw(address,address,uint256)": "d9caed12"
  },
  "id": 91
}