{
  "abi": [
    {
      "inputs": [
        {
          "internalType": "address",
          "name": "_partner",
          "type": "address"
        },
        {
          "internalType": "address",
          "name": "_nft",
          "type": "address"
        }
      ],
      "stateMutability": "payable",
      "type": "constructor"
    },
    {
      "anonymous": false,
      "inputs": [
        {
          "indexed": false,
          "internalType": "address",
          "name": "",
          "type": "address"
        }
      ],
      "name": "Log",
      "type": "event"
    },
    {
      "inputs": [
        {
          "internalType": "address",
          "name": "",
          "type": "address"
        },
        {
          "internalType": "address",
          "name": "",
          "type": "address"
        },
        {
          "internalType": "uint256",
          "name": "_tokenId",
          "type": "uint256"
        },
        {
          "internalType": "bytes",
          "name": "",
          "type": "bytes"
        }
      ],
      "name": "onERC721Received",
      "outputs": [
        {
          "internalType": "bytes4",
          "name": "",
          "type": "bytes4"
        }
      ],
      "stateMutability": "nonpayable",
      "type": "function"
    },
    {
      "inputs": [],
      "name": "partner",
      "outputs": [
        {
          "internalType": "address",
          "name": "",
          "type": "address"
        }
      ],
      "stateMutability": "view",
      "type": "function"
    }
  ],
  "bytecode": {
    "object": "0x60c060405260405161067f38038061067f833981016040819052610022916100c9565b600160005534680270801d946c9400001461003c57600080fd5b6001600160a01b03828116608052811660a081905260405163a22cb46560e01b81523360048201526001602482015263a22cb46590604401600060405180830381600087803b15801561008e57600080fd5b505af11580156100a2573d6000803e3d6000fd5b5050505050506100fc565b80516001600160a01b03811681146100c457600080fd5b919050565b600080604083850312156100dc57600080fd5b6100e5836100ad565b91506100f3602084016100ad565b90509250929050565b60805160a05161054c6101336000396000818160c0015261014d01526000818160710152818160f501526101f7015261054c6000f3fe608060405234801561001057600080fd5b50600436106100365760003560e01c8063150b7a021461003b578063be10862b1461006c575b600080fd5b61004e6100493660046103eb565b6100ab565b6040516001600160e01b031990911681526020015b60405180910390f35b6100937f000000000000000000000000000000000000000000000000000000000000000081565b6040516001600160a01b039091168152602001610063565b60006100b5610241565b336001600160a01b037f000000000000000000000000000000000000000000000000000000000000000016146100ea57600080fd5b326001600160a01b037f0000000000000000000000000000000000000000000000000000000000000000161461011f57600080fd5b600583111561012d57600080fd5b6040516331a9108f60e11b81526004810184905230906001600160a01b037f00000000000000000000000000000000000000000000000000000000000000001690636352211e90602401602060405180830381865afa158015610194573d6000803e3d6000fd5b505050506040513d601f19601f820116820180604052508101906101b891906104cb565b6001600160a01b0316146101cb57600080fd5b600180549060006101db836104ef565b9190505550600154600603610226576102266001600160a01b037f000000000000000000000000000000000000000000000000000000000000000016680270801d946c94000061029f565b50630a85bd0160e11b6102396001600055565b949350505050565b6002600054036102985760405162461bcd60e51b815260206004820152601f60248201527f5265656e7472616e637947756172643a207265656e7472616e742063616c6c0060448201526064015b60405180910390fd5b6002600055565b804710156102ef5760405162461bcd60e51b815260206004820152601d60248201527f416464726573733a20696e73756666696369656e742062616c616e6365000000604482015260640161028f565b6000826001600160a01b03168260405160006040518083038185875af1925050503d806000811461033c576040519150601f19603f3d011682016040523d82523d6000602084013e610341565b606091505b50509050806103b85760405162461bcd60e51b815260206004820152603a60248201527f416464726573733a20756e61626c6520746f2073656e642076616c75652c207260448201527f6563697069656e74206d61792068617665207265766572746564000000000000606482015260840161028f565b505050565b6001600160a01b03811681146103d257600080fd5b50565b634e487b7160e01b600052604160045260246000fd5b6000806000806080858703121561040157600080fd5b843561040c816103bd565b9350602085013561041c816103bd565b925060408501359150606085013567ffffffffffffffff8082111561044057600080fd5b818701915087601f83011261045457600080fd5b813581811115610466576104666103d5565b604051601f8201601f19908116603f0116810190838211818310171561048e5761048e6103d5565b816040528281528a60208487010111156104a757600080fd5b82602086016020830137600060208483010152809550505050505092959194509250565b6000602082840312156104dd57600080fd5b81516104e8816103bd565b9392505050565b60006001820161050f57634e487b7160e01b600052601160045260246000fd5b506001019056fea26469706673582212205124814161b5bd9d43f43192fdc45d3b4b4794add1151718be630f86b2f1ab9664736f6c634300080f0033",
    "linkReferences": {}
  },
  "methodIdentifiers": {
    "onERC721Received(address,address,uint256,bytes)": "150b7a02",
    "partner()": "be10862b"
  },
  "id": 93
}