{
  "abi": [
    {
      "inputs": [],
      "stateMutability": "nonpayable",
      "type": "constructor"
    },
    {
      "anonymous": false,
      "inputs": [
        {
          "indexed": true,
          "internalType": "address",
          "name": "owner",
          "type": "address"
        },
        {
          "indexed": true,
          "internalType": "address",
          "name": "approved",
          "type": "address"
        },
        {
          "indexed": true,
          "internalType": "uint256",
          "name": "tokenId",
          "type": "uint256"
        }
      ],
      "name": "Approval",
      "type": "event"
    },
    {
      "anonymous": false,
      "inputs": [
        {
          "indexed": true,
          "internalType": "address",
          "name": "owner",
          "type": "address"
        },
        {
          "indexed": true,
          "internalType": "address",
          "name": "operator",
          "type": "address"
        },
        {
          "indexed": false,
          "internalType": "bool",
          "name": "approved",
          "type": "bool"
        }
      ],
      "name": "ApprovalForAll",
      "type": "event"
    },
    {
      "anonymous": false,
      "inputs": [
        {
          "indexed": true,
          "internalType": "bytes32",
          "name": "role",
          "type": "bytes32"
        },
        {
          "indexed": true,
          "internalType": "bytes32",
          "name": "previousAdminRole",
          "type": "bytes32"
        },
        {
          "indexed": true,
          "internalType": "bytes32",
          "name": "newAdminRole",
          "type": "bytes32"
        }
      ],
      "name": "RoleAdminChanged",
      "type": "event"
    },
    {
      "anonymous": false,
      "inputs": [
        {
          "indexed": true,
          "internalType": "bytes32",
          "name": "role",
          "type": "bytes32"
        },
        {
          "indexed": true,
          "internalType": "address",
          "name": "account",
          "type": "address"
        },
        {
          "indexed": true,
          "internalType": "address",
          "name": "sender",
          "type": "address"
        }
      ],
      "name": "RoleGranted",
      "type": "event"
    },
    {
      "anonymous": false,
      "inputs": [
        {
          "indexed": true,
          "internalType": "bytes32",
          "name": "role",
          "type": "bytes32"
        },
        {
          "indexed": true,
          "internalType": "address",
          "name": "account",
          "type": "address"
        },
        {
          "indexed": true,
          "internalType": "address",
          "name": "sender",
          "type": "address"
        }
      ],
      "name": "RoleRevoked",
      "type": "event"
    },
    {
      "anonymous": false,
      "inputs": [
        {
          "indexed": true,
          "internalType": "address",
          "name": "from",
          "type": "address"
        },
        {
          "indexed": true,
          "internalType": "address",
          "name": "to",
          "type": "address"
        },
        {
          "indexed": true,
          "internalType": "uint256",
          "name": "tokenId",
          "type": "uint256"
        }
      ],
      "name": "Transfer",
      "type": "event"
    },
    {
      "inputs": [],
      "name": "DEFAULT_ADMIN_ROLE",
      "outputs": [
        {
          "internalType": "bytes32",
          "name": "",
          "type": "bytes32"
        }
      ],
      "stateMutability": "view",
      "type": "function"
    },
    {
      "inputs": [],
      "name": "MINTER_ROLE",
      "outputs": [
        {
          "internalType": "bytes32",
          "name": "",
          "type": "bytes32"
        }
      ],
      "stateMutability": "view",
      "type": "function"
    },
    {
      "inputs": [
        {
          "internalType": "address",
          "name": "to",
          "type": "address"
        },
        {
          "internalType": "uint256",
          "name": "tokenId",
          "type": "uint256"
        }
      ],
      "name": "approve",
      "outputs": [],
      "stateMutability": "nonpayable",
      "type": "function"
    },
    {
      "inputs": [
        {
          "internalType": "address",
          "name": "owner",
          "type": "address"
        }
      ],
      "name": "balanceOf",
      "outputs": [
        {
          "internalType": "uint256",
          "name": "",
          "type": "uint256"
        }
      ],
      "stateMutability": "view",
      "type": "function"
    },
    {
      "inputs": [
        {
          "internalType": "uint256",
          "name": "tokenId",
          "type": "uint256"
        }
      ],
      "name": "burn",
      "outputs": [],
      "stateMutability": "nonpayable",
      "type": "function"
    },
    {
      "inputs": [
        {
          "internalType": "uint256",
          "name": "tokenId",
          "type": "uint256"
        }
      ],
      "name": "getApproved",
      "outputs": [
        {
          "internalType": "address",
          "name": "",
          "type": "address"
        }
      ],
      "stateMutability": "view",
      "type": "function"
    },
    {
      "inputs": [
        {
          "internalType": "bytes32",
          "name": "role",
          "type": "bytes32"
        }
      ],
      "name": "getRoleAdmin",
      "outputs": [
        {
          "internalType": "bytes32",
          "name": "",
          "type": "bytes32"
        }
      ],
      "stateMutability": "view",
      "type": "function"
    },
    {
      "inputs": [
        {
          "internalType": "bytes32",
          "name": "role",
          "type": "bytes32"
        },
        {
          "internalType": "address",
          "name": "account",
          "type": "address"
        }
      ],
      "name": "grantRole",
      "outputs": [],
      "stateMutability": "nonpayable",
      "type": "function"
    },
    {
      "inputs": [
        {
          "internalType": "bytes32",
          "name": "role",
          "type": "bytes32"
        },
        {
          "internalType": "address",
          "name": "account",
          "type": "address"
        }
      ],
      "name": "hasRole",
      "outputs": [
        {
          "internalType": "bool",
          "name": "",
          "type": "bool"
        }
      ],
      "stateMutability": "view",
      "type": "function"
    },
    {
      "inputs": [
        {
          "internalType": "address",
          "name": "owner",
          "type": "address"
        },
        {
          "internalType": "address",
          "name": "operator",
          "type": "address"
        }
      ],
      "name": "isApprovedForAll",
      "outputs": [
        {
          "internalType": "bool",
          "name": "",
          "type": "bool"
        }
      ],
      "stateMutability": "view",
      "type": "function"
    },
    {
      "inputs": [],
      "name": "name",
      "outputs": [
        {
          "internalType": "string",
          "name": "",
          "type": "string"
        }
      ],
      "stateMutability": "view",
      "type": "function"
    },
    {
      "inputs": [
        {
          "internalType": "uint256",
          "name": "tokenId",
          "type": "uint256"
        }
      ],
      "name": "ownerOf",
      "outputs": [
        {
          "internalType": "address",
          "name": "",
          "type": "address"
        }
      ],
      "stateMutability": "view",
      "type": "function"
    },
    {
      "inputs": [
        {
          "internalType": "bytes32",
          "name": "role",
          "type": "bytes32"
        },
        {
          "internalType": "address",
          "name": "account",
          "type": "address"
        }
      ],
      "name": "renounceRole",
      "outputs": [],
      "stateMutability": "nonpayable",
      "type": "function"
    },
    {
      "inputs": [
        {
          "internalType": "bytes32",
          "name": "role",
          "type": "bytes32"
        },
        {
          "internalType": "address",
          "name": "account",
          "type": "address"
        }
      ],
      "name": "revokeRole",
      "outputs": [],
      "stateMutability": "nonpayable",
      "type": "function"
    },
    {
      "inputs": [
        {
          "internalType": "address",
          "name": "to",
          "type": "address"
        }
      ],
      "name": "safeMint",
      "outputs": [
        {
          "internalType": "uint256",
          "name": "",
          "type": "uint256"
        }
      ],
      "stateMutability": "nonpayable",
      "type": "function"
    },
    {
      "inputs": [
        {
          "internalType": "address",
          "name": "from",
          "type": "address"
        },
        {
          "internalType": "address",
          "name": "to",
          "type": "address"
        },
        {
          "internalType": "uint256",
          "name": "tokenId",
          "type": "uint256"
        }
      ],
      "name": "safeTransferFrom",
      "outputs": [],
      "stateMutability": "nonpayable",
      "type": "function"
    },
    {
      "inputs": [
        {
          "internalType": "address",
          "name": "from",
          "type": "address"
        },
        {
          "internalType": "address",
          "name": "to",
          "type": "address"
        },
        {
          "internalType": "uint256",
          "name": "tokenId",
          "type": "uint256"
        },
        {
          "internalType": "bytes",
          "name": "data",
          "type": "bytes"
        }
      ],
      "name": "safeTransferFrom",
      "outputs": [],
      "stateMutability": "nonpayable",
      "type": "function"
    },
    {
      "inputs": [
        {
          "internalType": "address",
          "name": "operator",
          "type": "address"
        },
        {
          "internalType": "bool",
          "name": "approved",
          "type": "bool"
        }
      ],
      "name": "setApprovalForAll",
      "outputs": [],
      "stateMutability": "nonpayable",
      "type": "function"
    },
    {
      "inputs": [
        {
          "internalType": "bytes4",
          "name": "interfaceId",
          "type": "bytes4"
        }
      ],
      "name": "supportsInterface",
      "outputs": [
        {
          "internalType": "bool",
          "name": "",
          "type": "bool"
        }
      ],
      "stateMutability": "view",
      "type": "function"
    },
    {
      "inputs": [],
      "name": "symbol",
      "outputs": [
        {
          "internalType": "string",
          "name": "",
          "type": "string"
        }
      ],
      "stateMutability": "view",
      "type": "function"
    },
    {
      "inputs": [
        {
          "internalType": "uint256",
          "name": "tokenId",
          "type": "uint256"
        }
      ],
      "name": "tokenURI",
      "outputs": [
        {
          "internalType": "string",
          "name": "",
          "type": "string"
        }
      ],
      "stateMutability": "view",
      "type": "function"
    },
    {
      "inputs": [
        {
          "internalType": "address",
          "name": "from",
          "type": "address"
        },
        {
          "internalType": "address",
          "name": "to",
          "type": "address"
        },
        {
          "internalType": "uint256",
          "name": "tokenId",
          "type": "uint256"
        }
      ],
      "name": "transferFrom",
      "outputs": [],
      "stateMutability": "nonpayable",
      "type": "function"
    }
  ],
  "bytecode": {
    "object": "0x60806040523480156200001157600080fd5b506040518060400160405280600a8152602001691119599a50dd1993919560b21b815250604051806040016040528060058152602001641110d3919560da1b815250816000908162000064919062000210565b50600162000073828262000210565b506200008591506000905033620000b7565b620000b17f9f2df0fed2c77648de5860a4cc508cd0818c85b8b8a1ab4ceeef8d981c8956a633620000b7565b620002dc565b620000c38282620000c7565b5050565b60008281526006602090815260408083206001600160a01b038516845290915290205460ff16620000c35760008281526006602090815260408083206001600160a01b03851684529091529020805460ff19166001179055620001273390565b6001600160a01b0316816001600160a01b0316837f2f8788117e7eff1d82e926ec794901d17c78024a50270940304540a733656f0d60405160405180910390a45050565b634e487b7160e01b600052604160045260246000fd5b600181811c908216806200019657607f821691505b602082108103620001b757634e487b7160e01b600052602260045260246000fd5b50919050565b601f8211156200020b57600081815260208120601f850160051c81016020861015620001e65750805b601f850160051c820191505b818110156200020757828155600101620001f2565b5050505b505050565b81516001600160401b038111156200022c576200022c6200016b565b62000244816200023d845462000181565b84620001bd565b602080601f8311600181146200027c5760008415620002635750858301515b600019600386901b1c1916600185901b17855562000207565b600085815260208120601f198616915b82811015620002ad578886015182559484019460019091019084016200028c565b5085821015620002cc5787850151600019600388901b60f8161c191681555b5050505050600190811b01905550565b611b1d80620002ec6000396000f3fe608060405234801561001057600080fd5b50600436106101425760003560e01c80636352211e116100b8578063a22cb4651161007c578063a22cb465146102b0578063b88d4fde146102c3578063c87b56dd146102d6578063d5391393146102e9578063d547741f14610310578063e985e9c51461032357600080fd5b80636352211e1461026757806370a082311461027a57806391d148541461028d57806395d89b41146102a0578063a217fddf146102a857600080fd5b8063248a9ca31161010a578063248a9ca3146101d75780632f2ff15d1461020857806336568abe1461021b57806340d097c31461022e57806342842e0e1461024157806342966c681461025457600080fd5b806301ffc9a71461014757806306fdde031461016f578063081812fc14610184578063095ea7b3146101af57806323b872dd146101c4575b600080fd5b61015a61015536600461157e565b61035f565b60405190151581526020015b60405180910390f35b610177610370565b60405161016691906115f3565b610197610192366004611606565b610402565b6040516001600160a01b039091168152602001610166565b6101c26101bd36600461163b565b610429565b005b6101c26101d2366004611665565b610543565b6101fa6101e5366004611606565b60009081526006602052604090206001015490565b604051908152602001610166565b6101c26102163660046116a1565b610575565b6101c26102293660046116a1565b61059a565b6101fa61023c3660046116cd565b610618565b6101c261024f366004611665565b610672565b6101c2610262366004611606565b61068d565b610197610275366004611606565b6106be565b6101fa6102883660046116cd565b61071e565b61015a61029b3660046116a1565b6107a4565b6101776107cf565b6101fa600081565b6101c26102be3660046116e8565b6107de565b6101c26102d136600461173a565b6107e9565b6101776102e4366004611606565b610821565b6101fa7f9f2df0fed2c77648de5860a4cc508cd0818c85b8b8a1ab4ceeef8d981c8956a681565b6101c261031e3660046116a1565b610895565b61015a610331366004611816565b6001600160a01b03918216600090815260056020908152604080832093909416825291909152205460ff1690565b600061036a826108ba565b92915050565b60606000805461037f90611840565b80601f01602080910402602001604051908101604052809291908181526020018280546103ab90611840565b80156103f85780601f106103cd576101008083540402835291602001916103f8565b820191906000526020600020905b8154815290600101906020018083116103db57829003601f168201915b5050505050905090565b600061040d826108df565b506000908152600460205260409020546001600160a01b031690565b6000610434826106be565b9050806001600160a01b0316836001600160a01b0316036104a65760405162461bcd60e51b815260206004820152602160248201527f4552433732313a20617070726f76616c20746f2063757272656e74206f776e656044820152603960f91b60648201526084015b60405180910390fd5b336001600160a01b03821614806104c257506104c28133610331565b6105345760405162461bcd60e51b815260206004820152603d60248201527f4552433732313a20617070726f76652063616c6c6572206973206e6f7420746f60448201527f6b656e206f776e6572206f7220617070726f76656420666f7220616c6c000000606482015260840161049d565b61053e838361093e565b505050565b61054e335b826109ac565b61056a5760405162461bcd60e51b815260040161049d90611874565b61053e838383610a2b565b60008281526006602052604090206001015461059081610b9c565b61053e8383610ba6565b6001600160a01b038116331461060a5760405162461bcd60e51b815260206004820152602f60248201527f416363657373436f6e74726f6c3a2063616e206f6e6c792072656e6f756e636560448201526e103937b632b9903337b91039b2b63360891b606482015260840161049d565b6106148282610c2c565b5050565b60007f9f2df0fed2c77648de5860a4cc508cd0818c85b8b8a1ab4ceeef8d981c8956a661064481610b9c565b600061064f60075490565b905061065b8482610c93565b610669600780546001019055565b91505b50919050565b61053e838383604051806020016040528060008152506107e9565b61069633610548565b6106b25760405162461bcd60e51b815260040161049d90611874565b6106bb81610cad565b50565b6000818152600260205260408120546001600160a01b03168061036a5760405162461bcd60e51b8152602060048201526018602482015277115490cdcc8c4e881a5b9d985b1a59081d1bdad95b88125160421b604482015260640161049d565b60006001600160a01b0382166107885760405162461bcd60e51b815260206004820152602960248201527f4552433732313a2061646472657373207a65726f206973206e6f7420612076616044820152683634b21037bbb732b960b91b606482015260840161049d565b506001600160a01b031660009081526003602052604090205490565b60009182526006602090815260408084206001600160a01b0393909316845291905290205460ff1690565b60606001805461037f90611840565b610614338383610d50565b6107f333836109ac565b61080f5760405162461bcd60e51b815260040161049d90611874565b61081b84848484610e1e565b50505050565b606061082c826108df565b600061084360408051602081019091526000815290565b90506000815111610863576040518060200160405280600081525061088e565b8061086d84610e51565b60405160200161087e9291906118c1565b6040516020818303038152906040525b9392505050565b6000828152600660205260409020600101546108b081610b9c565b61053e8383610c2c565b60006001600160e01b03198216637965db0b60e01b148061036a575061036a82610ee4565b6000818152600260205260409020546001600160a01b03166106bb5760405162461bcd60e51b8152602060048201526018602482015277115490cdcc8c4e881a5b9d985b1a59081d1bdad95b88125160421b604482015260640161049d565b600081815260046020526040902080546001600160a01b0319166001600160a01b0384169081179091558190610973826106be565b6001600160a01b03167f8c5be1e5ebec7d5bd14f71427d1e84f3dd0314c0f7b2291e5b200ac8c7c3b92560405160405180910390a45050565b6000806109b8836106be565b9050806001600160a01b0316846001600160a01b031614806109ff57506001600160a01b0380821660009081526005602090815260408083209388168352929052205460ff165b80610a235750836001600160a01b0316610a1884610402565b6001600160a01b0316145b949350505050565b826001600160a01b0316610a3e826106be565b6001600160a01b031614610a645760405162461bcd60e51b815260040161049d906118f0565b6001600160a01b038216610ac65760405162461bcd60e51b8152602060048201526024808201527f4552433732313a207472616e7366657220746f20746865207a65726f206164646044820152637265737360e01b606482015260840161049d565b610ad38383836001610f34565b826001600160a01b0316610ae6826106be565b6001600160a01b031614610b0c5760405162461bcd60e51b815260040161049d906118f0565b600081815260046020908152604080832080546001600160a01b03199081169091556001600160a01b0387811680865260038552838620805460001901905590871680865283862080546001019055868652600290945282852080549092168417909155905184937fddf252ad1be2c89b69c2b068fc378daa952ba7f163c4a11628f55a4df523b3ef91a4505050565b6106bb8133610fbc565b610bb082826107a4565b6106145760008281526006602090815260408083206001600160a01b03851684529091529020805460ff19166001179055610be83390565b6001600160a01b0316816001600160a01b0316837f2f8788117e7eff1d82e926ec794901d17c78024a50270940304540a733656f0d60405160405180910390a45050565b610c3682826107a4565b156106145760008281526006602090815260408083206001600160a01b0385168085529252808320805460ff1916905551339285917ff6391f5c32d9c69d2a47ea670b442974b53935d1edc7fd64eb21e047a839171b9190a45050565b610614828260405180602001604052806000815250611015565b6000610cb8826106be565b9050610cc8816000846001610f34565b610cd1826106be565b600083815260046020908152604080832080546001600160a01b03199081169091556001600160a01b0385168085526003845282852080546000190190558785526002909352818420805490911690555192935084927fddf252ad1be2c89b69c2b068fc378daa952ba7f163c4a11628f55a4df523b3ef908390a45050565b816001600160a01b0316836001600160a01b031603610db15760405162461bcd60e51b815260206004820152601960248201527f4552433732313a20617070726f766520746f2063616c6c657200000000000000604482015260640161049d565b6001600160a01b03838116600081815260056020908152604080832094871680845294825291829020805460ff191686151590811790915591519182527f17307eab39ab6107e8899845ad3d59bd9653f200f220920489ca2b5937696c31910160405180910390a3505050565b610e29848484610a2b565b610e3584848484611048565b61081b5760405162461bcd60e51b815260040161049d90611935565b60606000610e5e83611149565b600101905060008167ffffffffffffffff811115610e7e57610e7e611724565b6040519080825280601f01601f191660200182016040528015610ea8576020820181803683370190505b5090508181016020015b600019016f181899199a1a9b1b9c1cb0b131b232b360811b600a86061a8153600a8504945084610eb257509392505050565b60006001600160e01b031982166380ac58cd60e01b1480610f1557506001600160e01b03198216635b5e139f60e01b145b8061036a57506301ffc9a760e01b6001600160e01b031983161461036a565b600181111561081b576001600160a01b03841615610f7a576001600160a01b03841660009081526003602052604081208054839290610f7490849061199d565b90915550505b6001600160a01b0383161561081b576001600160a01b03831660009081526003602052604081208054839290610fb19084906119b4565b909155505050505050565b610fc682826107a4565b61061457610fd381611221565b610fde836020611233565b604051602001610fef9291906119cc565b60408051601f198184030181529082905262461bcd60e51b825261049d916004016115f3565b61101f83836113cf565b61102c6000848484611048565b61053e5760405162461bcd60e51b815260040161049d90611935565b60006001600160a01b0384163b1561113e57604051630a85bd0160e11b81526001600160a01b0385169063150b7a029061108c903390899088908890600401611a41565b6020604051808303816000875af19250505080156110c7575060408051601f3d908101601f191682019092526110c491810190611a7e565b60015b611124573d8080156110f5576040519150601f19603f3d011682016040523d82523d6000602084013e6110fa565b606091505b50805160000361111c5760405162461bcd60e51b815260040161049d90611935565b805181602001fd5b6001600160e01b031916630a85bd0160e11b149050610a23565b506001949350505050565b60008072184f03e93ff9f4daa797ed6e38ed64bf6a1f0160401b83106111885772184f03e93ff9f4daa797ed6e38ed64bf6a1f0160401b830492506040015b6d04ee2d6d415b85acef810000000083106111b4576d04ee2d6d415b85acef8100000000830492506020015b662386f26fc1000083106111d257662386f26fc10000830492506010015b6305f5e10083106111ea576305f5e100830492506008015b61271083106111fe57612710830492506004015b60648310611210576064830492506002015b600a831061036a5760010192915050565b606061036a6001600160a01b03831660145b60606000611242836002611a9b565b61124d9060026119b4565b67ffffffffffffffff81111561126557611265611724565b6040519080825280601f01601f19166020018201604052801561128f576020820181803683370190505b509050600360fc1b816000815181106112aa576112aa611aba565b60200101906001600160f81b031916908160001a905350600f60fb1b816001815181106112d9576112d9611aba565b60200101906001600160f81b031916908160001a90535060006112fd846002611a9b565b6113089060016119b4565b90505b6001811115611380576f181899199a1a9b1b9c1cb0b131b232b360811b85600f166010811061133c5761133c611aba565b1a60f81b82828151811061135257611352611aba565b60200101906001600160f81b031916908160001a90535060049490941c9361137981611ad0565b905061130b565b50831561088e5760405162461bcd60e51b815260206004820181905260248201527f537472696e67733a20686578206c656e67746820696e73756666696369656e74604482015260640161049d565b6001600160a01b0382166114255760405162461bcd60e51b815260206004820181905260248201527f4552433732313a206d696e7420746f20746865207a65726f2061646472657373604482015260640161049d565b6000818152600260205260409020546001600160a01b03161561148a5760405162461bcd60e51b815260206004820152601c60248201527f4552433732313a20746f6b656e20616c7265616479206d696e74656400000000604482015260640161049d565b611498600083836001610f34565b6000818152600260205260409020546001600160a01b0316156114fd5760405162461bcd60e51b815260206004820152601c60248201527f4552433732313a20746f6b656e20616c7265616479206d696e74656400000000604482015260640161049d565b6001600160a01b038216600081815260036020908152604080832080546001019055848352600290915280822080546001600160a01b0319168417905551839291907fddf252ad1be2c89b69c2b068fc378daa952ba7f163c4a11628f55a4df523b3ef908290a45050565b6001600160e01b0319811681146106bb57600080fd5b60006020828403121561159057600080fd5b813561088e81611568565b60005b838110156115b657818101518382015260200161159e565b8381111561081b5750506000910152565b600081518084526115df81602086016020860161159b565b601f01601f19169290920160200192915050565b60208152600061088e60208301846115c7565b60006020828403121561161857600080fd5b5035919050565b80356001600160a01b038116811461163657600080fd5b919050565b6000806040838503121561164e57600080fd5b6116578361161f565b946020939093013593505050565b60008060006060848603121561167a57600080fd5b6116838461161f565b92506116916020850161161f565b9150604084013590509250925092565b600080604083850312156116b457600080fd5b823591506116c46020840161161f565b90509250929050565b6000602082840312156116df57600080fd5b61088e8261161f565b600080604083850312156116fb57600080fd5b6117048361161f565b91506020830135801515811461171957600080fd5b809150509250929050565b634e487b7160e01b600052604160045260246000fd5b6000806000806080858703121561175057600080fd5b6117598561161f565b93506117676020860161161f565b925060408501359150606085013567ffffffffffffffff8082111561178b57600080fd5b818701915087601f83011261179f57600080fd5b8135818111156117b1576117b1611724565b604051601f8201601f19908116603f011681019083821181831017156117d9576117d9611724565b816040528281528a60208487010111156117f257600080fd5b82602086016020830137600060208483010152809550505050505092959194509250565b6000806040838503121561182957600080fd5b6118328361161f565b91506116c46020840161161f565b600181811c9082168061185457607f821691505b60208210810361066c57634e487b7160e01b600052602260045260246000fd5b6020808252602d908201527f4552433732313a2063616c6c6572206973206e6f7420746f6b656e206f776e6560408201526c1c881bdc88185c1c1c9bdd9959609a1b606082015260800190565b600083516118d381846020880161159b565b8351908301906118e781836020880161159b565b01949350505050565b60208082526025908201527f4552433732313a207472616e736665722066726f6d20696e636f72726563742060408201526437bbb732b960d91b606082015260800190565b60208082526032908201527f4552433732313a207472616e7366657220746f206e6f6e20455243373231526560408201527131b2b4bb32b91034b6b83632b6b2b73a32b960711b606082015260800190565b634e487b7160e01b600052601160045260246000fd5b6000828210156119af576119af611987565b500390565b600082198211156119c7576119c7611987565b500190565b7f416363657373436f6e74726f6c3a206163636f756e7420000000000000000000815260008351611a0481601785016020880161159b565b7001034b99036b4b9b9b4b733903937b6329607d1b6017918401918201528351611a3581602884016020880161159b565b01602801949350505050565b6001600160a01b0385811682528416602082015260408101839052608060608201819052600090611a74908301846115c7565b9695505050505050565b600060208284031215611a9057600080fd5b815161088e81611568565b6000816000190483118215151615611ab557611ab5611987565b500290565b634e487b7160e01b600052603260045260246000fd5b600081611adf57611adf611987565b50600019019056fea2646970667358221220067502c5a2b5399659c63ade4652a5fa944572eb8f3ab78aea44872635a2d67664736f6c634300080f0033",
    "linkReferences": {}
  },
  "methodIdentifiers": {
    "DEFAULT_ADMIN_ROLE()": "a217fddf",
    "MINTER_ROLE()": "d5391393",
    "approve(address,uint256)": "095ea7b3",
    "balanceOf(address)": "70a08231",
    "burn(uint256)": "42966c68",
    "getApproved(uint256)": "081812fc",
    "getRoleAdmin(bytes32)": "248a9ca3",
    "grantRole(bytes32,address)": "2f2ff15d",
    "hasRole(bytes32,address)": "91d14854",
    "isApprovedForAll(address,address)": "e985e9c5",
    "name()": "06fdde03",
    "ownerOf(uint256)": "6352211e",
    "renounceRole(bytes32,address)": "36568abe",
    "revokeRole(bytes32,address)": "d547741f",
    "safeMint(address)": "40d097c3",
    "safeTransferFrom(address,address,uint256)": "42842e0e",
    "safeTransferFrom(address,address,uint256,bytes)": "b88d4fde",
    "setApprovalForAll(address,bool)": "a22cb465",
    "supportsInterface(bytes4)": "01ffc9a7",
    "symbol()": "95d89b41",
    "tokenURI(uint256)": "c87b56dd",
    "transferFrom(address,address,uint256)": "23b872dd"
  },
  "id": 72
}