{
  "abi": [
    {
      "inputs": [],
      "name": "fixedFee",
      "outputs": [
        {
          "internalType": "uint256",
          "name": "",
          "type": "uint256"
        }
      ],
      "stateMutability": "pure",
      "type": "function"
    },
    {
      "inputs": [
        {
          "internalType": "address",
          "name": "borrower",
          "type": "address"
        },
        {
          "internalType": "uint256",
          "name": "borrowAmount",
          "type": "uint256"
        }
      ],
      "name": "flashLoan",
      "outputs": [],
      "stateMutability": "nonpayable",
      "type": "function"
    },
    {
      "stateMutability": "payable",
      "type": "receive"
    }
  ],
  "bytecode": {
    "object": "0x608060405234801561001057600080fd5b50600160005561053c806100256000396000f3fe60806040526004361061002d5760003560e01c806391792d5b146100395780639d9e465c1461006157600080fd5b3661003457005b600080fd5b34801561004557600080fd5b50670de0b6b3a764000060405190815260200160405180910390f35b34801561006d57600080fd5b5061008161007c366004610400565b610083565b005b61008b610200565b47818110156100da5760405162461bcd60e51b8152602060048201526016602482015275139bdd08195b9bdd59da08115512081a5b881c1bdbdb60521b60448201526064015b60405180910390fd5b6001600160a01b0383163b61013d5760405162461bcd60e51b8152602060048201526024808201527f426f72726f776572206d7573742062652061206465706c6f79656420636f6e746044820152631c9858dd60e21b60648201526084016100d1565b604051670de0b6b3a7640000602482015261018f9060440160408051601f198184030181529190526020810180516001600160e01b0316627be93b60e61b1790526001600160a01b0385169084610259565b506101a2670de0b6b3a764000082610438565b4710156101f15760405162461bcd60e51b815260206004820181905260248201527f466c617368206c6f616e206861736e2774206265656e2070616964206261636b60448201526064016100d1565b506101fc6001600055565b5050565b6002600054036102525760405162461bcd60e51b815260206004820152601f60248201527f5265656e7472616e637947756172643a207265656e7472616e742063616c6c0060448201526064016100d1565b6002600055565b606061027f8484846040518060600160405280602981526020016104de60299139610287565b949350505050565b6060824710156102e85760405162461bcd60e51b815260206004820152602660248201527f416464726573733a20696e73756666696369656e742062616c616e636520666f6044820152651c8818d85b1b60d21b60648201526084016100d1565b600080866001600160a01b03168587604051610304919061048e565b60006040518083038185875af1925050503d8060008114610341576040519150601f19603f3d011682016040523d82523d6000602084013e610346565b606091505b509150915061035787838387610362565b979650505050505050565b606083156103d15782516000036103ca576001600160a01b0385163b6103ca5760405162461bcd60e51b815260206004820152601d60248201527f416464726573733a2063616c6c20746f206e6f6e2d636f6e747261637400000060448201526064016100d1565b508161027f565b61027f83838151156103e65781518083602001fd5b8060405162461bcd60e51b81526004016100d191906104aa565b6000806040838503121561041357600080fd5b82356001600160a01b038116811461042a57600080fd5b946020939093013593505050565b6000821982111561045957634e487b7160e01b600052601160045260246000fd5b500190565b60005b83811015610479578181015183820152602001610461565b83811115610488576000848401525b50505050565b600082516104a081846020870161045e565b9190910192915050565b60208152600082518060208401526104c981604085016020870161045e565b601f01601f1916919091016040019291505056fe416464726573733a206c6f772d6c6576656c2063616c6c20776974682076616c7565206661696c6564a264697066735822122030f8d256802be8e216a239ead87964732c519c38c8635b2502354ecde309bf9e64736f6c634300080f0033",
    "linkReferences": {}
  },
  "methodIdentifiers": {
    "fixedFee()": "91792d5b",
    "flashLoan(address,uint256)": "9d9e465c"
  },
  "id": 77
}