{
  "abi": [
    {
      "inputs": [
        {
          "internalType": "address",
          "name": "wethAddress",
          "type": "address"
        },
        {
          "internalType": "address",
          "name": "tokenAddress",
          "type": "address"
        },
        {
          "internalType": "address",
          "name": "uniswapPairAddress",
          "type": "address"
        },
        {
          "internalType": "address",
          "name": "uniswapFactoryAddress",
          "type": "address"
        }
      ],
      "stateMutability": "nonpayable",
      "type": "constructor"
    },
    {
      "anonymous": false,
      "inputs": [
        {
          "indexed": true,
          "internalType": "address",
          "name": "borrower",
          "type": "address"
        },
        {
          "indexed": false,
          "internalType": "uint256",
          "name": "depositRequired",
          "type": "uint256"
        },
        {
          "indexed": false,
          "internalType": "uint256",
          "name": "borrowAmount",
          "type": "uint256"
        },
        {
          "indexed": false,
          "internalType": "uint256",
          "name": "timestamp",
          "type": "uint256"
        }
      ],
      "name": "Borrowed",
      "type": "event"
    },
    {
      "inputs": [
        {
          "internalType": "uint256",
          "name": "borrowAmount",
          "type": "uint256"
        }
      ],
      "name": "borrow",
      "outputs": [],
      "stateMutability": "nonpayable",
      "type": "function"
    },
    {
      "inputs": [
        {
          "internalType": "uint256",
          "name": "tokenAmount",
          "type": "uint256"
        }
      ],
      "name": "calculateDepositOfWETHRequired",
      "outputs": [
        {
          "internalType": "uint256",
          "name": "",
          "type": "uint256"
        }
      ],
      "stateMutability": "view",
      "type": "function"
    },
    {
      "inputs": [
        {
          "internalType": "address",
          "name": "",
          "type": "address"
        }
      ],
      "name": "deposits",
      "outputs": [
        {
          "internalType": "uint256",
          "name": "",
          "type": "uint256"
        }
      ],
      "stateMutability": "view",
      "type": "function"
    }
  ],
  "bytecode": {
    "object": "0x608060405234801561001057600080fd5b5060405161084f38038061084f8339818101604052608081101561003357600080fd5b50805160208201516040830151606090930151600380546001600160a01b039485166001600160a01b03199182161790915560028054938516938216939093179092556000805494841694831694909417909355600180549290931691161790556107ac806100a36000396000f3fe608060405234801561001057600080fd5b50600436106100415760003560e01c8063c4bd83fa14610046578063c5ebeaec14610075578063fc7e286d14610094575b600080fd5b6100636004803603602081101561005c57600080fd5b50356100ba565b60408051918252519081900360200190f35b6100926004803603602081101561008b57600080fd5b50356100e7565b005b610063600480360360208110156100aa57600080fd5b50356001600160a01b0316610325565b6000670de0b6b3a76400006100d960036100d385610337565b90610389565b816100e057fe5b0492915050565b600254604080516370a0823160e01b8152306004820152905183926001600160a01b0316916370a082319160248083019260209291908290030181600087803b15801561013357600080fd5b505af1158015610147573d6000803e3d6000fd5b505050506040513d602081101561015d57600080fd5b505110156101b2576040805162461bcd60e51b815260206004820152601860248201527f4e6f7420656e6f75676820746f6b656e2062616c616e63650000000000000000604482015290519081900360640190fd5b60006101bd826100ba565b600354604080516323b872dd60e01b81523360048201523060248201526044810184905290519293506001600160a01b03909116916323b872dd916064808201926020929091908290030181600087803b15801561021a57600080fd5b505af115801561022e573d6000803e3d6000fd5b505050506040513d602081101561024457600080fd5b5050336000818152600460208181526040808420805487019055600254815163a9059cbb60e01b81529384019590955260248301879052516001600160a01b039094169363a9059cbb936044808501948390030190829087803b1580156102aa57600080fd5b505af11580156102be573d6000803e3d6000fd5b505050506040513d60208110156102d457600080fd5b50516102df57600080fd5b60408051828152602081018490524281830152905133917fc4381c9c7b508979896c55381c1cb8c2aef28d753cff7661f9cd87b9a14584f8919081900360600190a25050565b60046020526000908152604090205481565b60015460035460025460009283928392610360926001600160a01b0390811692811691166103f2565b909250905061038161037a85670de0b6b3a7640000610389565b82846104c0565b949350505050565b60008115806103a4575050808202828282816103a157fe5b04145b6103ec576040805162461bcd60e51b815260206004820152601460248201527364732d6d6174682d6d756c2d6f766572666c6f7760601b604482015290519081900360640190fd5b92915050565b60008060006104018585610566565b509050600080610412888888610644565b6001600160a01b0316630902f1ac6040518163ffffffff1660e01b815260040160606040518083038186803b15801561044a57600080fd5b505afa15801561045e573d6000803e3d6000fd5b505050506040513d606081101561047457600080fd5b5080516020909101516dffffffffffffffffffffffffffff91821693501690506001600160a01b03878116908416146104ae5780826104b1565b81815b90999098509650505050505050565b60008084116105005760405162461bcd60e51b81526004018080602001828103825260258152602001806107526025913960400191505060405180910390fd5b6000831180156105105750600082115b61054b5760405162461bcd60e51b815260040180806020018281038252602881526020018061072a6028913960400191505060405180910390fd5b826105568584610389565b8161055d57fe5b04949350505050565b600080826001600160a01b0316846001600160a01b031614156105ba5760405162461bcd60e51b81526004018080602001828103825260258152602001806107056025913960400191505060405180910390fd5b826001600160a01b0316846001600160a01b0316106105da5782846105dd565b83835b90925090506001600160a01b03821661063d576040805162461bcd60e51b815260206004820152601e60248201527f556e697377617056324c6962726172793a205a45524f5f414444524553530000604482015290519081900360640190fd5b9250929050565b60008060006106538585610566565b604080516bffffffffffffffffffffffff19606094851b811660208084019190915293851b81166034830152825160288184030181526048830184528051908501206001600160f81b031960688401529a90941b9093166069840152607d8301989098527f52bf3d0899f853e9fec94c692e9fad46171583457c6040fce0b50ce951857145609d808401919091528851808403909101815260bd90920190975280519601959095209594505050505056fe556e697377617056324c6962726172793a204944454e544943414c5f414444524553534553556e697377617056324c6962726172793a20494e53554646494349454e545f4c4951554944495459556e697377617056324c6962726172793a20494e53554646494349454e545f414d4f554e54a264697066735822122002bf8886c5fae0045956e1b1158621dd7b69a4f8ee191109068aa9cfbf2b66a064736f6c634300060c0033",
    "linkReferences": {}
  },
  "methodIdentifiers": {
    "borrow(uint256)": "c5ebeaec",
    "calculateDepositOfWETHRequired(uint256)": "c4bd83fa",
    "deposits(address)": "fc7e286d"
  },
  "id": 0
}