{
  "abi": [
    {
      "inputs": [
        {
          "internalType": "address",
          "name": "tokenAddress",
          "type": "address"
        }
      ],
      "stateMutability": "nonpayable",
      "type": "constructor"
    },
    {
      "inputs": [],
      "name": "accToken",
      "outputs": [
        {
          "internalType": "contract AccountingToken",
          "name": "",
          "type": "address"
        }
      ],
      "stateMutability": "view",
      "type": "function"
    },
    {
      "inputs": [],
      "name": "awardToken",
      "outputs": [
        {
          "internalType": "contract AwardToken",
          "name": "",
          "type": "address"
        }
      ],
      "stateMutability": "view",
      "type": "function"
    },
    {
      "inputs": [
        {
          "internalType": "uint256",
          "name": "amountToDeposit",
          "type": "uint256"
        }
      ],
      "name": "deposit",
      "outputs": [],
      "stateMutability": "nonpayable",
      "type": "function"
    },
    {
      "inputs": [],
      "name": "distributeAwards",
      "outputs": [
        {
          "internalType": "uint256",
          "name": "",
          "type": "uint256"
        }
      ],
      "stateMutability": "nonpayable",
      "type": "function"
    },
    {
      "inputs": [],
      "name": "isNewAwardsRound",
      "outputs": [
        {
          "internalType": "bool",
          "name": "",
          "type": "bool"
        }
      ],
      "stateMutability": "view",
      "type": "function"
    },
    {
      "inputs": [
        {
          "internalType": "address",
          "name": "",
          "type": "address"
        }
      ],
      "name": "lastAwardTimestamps",
      "outputs": [
        {
          "internalType": "uint256",
          "name": "",
          "type": "uint256"
        }
      ],
      "stateMutability": "view",
      "type": "function"
    },
    {
      "inputs": [],
      "name": "lastRecordedSnapshotTimestamp",
      "outputs": [
        {
          "internalType": "uint256",
          "name": "",
          "type": "uint256"
        }
      ],
      "stateMutability": "view",
      "type": "function"
    },
    {
      "inputs": [],
      "name": "lastSnapshotIdForAwards",
      "outputs": [
        {
          "internalType": "uint256",
          "name": "",
          "type": "uint256"
        }
      ],
      "stateMutability": "view",
      "type": "function"
    },
    {
      "inputs": [],
      "name": "liquidityToken",
      "outputs": [
        {
          "internalType": "contract DefiCtfToken",
          "name": "",
          "type": "address"
        }
      ],
      "stateMutability": "view",
      "type": "function"
    },
    {
      "inputs": [],
      "name": "roundNumber",
      "outputs": [
        {
          "internalType": "uint256",
          "name": "",
          "type": "uint256"
        }
      ],
      "stateMutability": "view",
      "type": "function"
    },
    {
      "inputs": [
        {
          "internalType": "uint256",
          "name": "amountToWithdraw",
          "type": "uint256"
        }
      ],
      "name": "withdraw",
      "outputs": [],
      "stateMutability": "nonpayable",
      "type": "function"
    }
  ],
  "bytecode": {
    "object": "0x60c060405234801561001057600080fd5b5060405161350438038061350483398101604081905261002f91610179565b6001600160a01b0381166080526040516100489061015f565b604051809103906000f080158015610064573d6000803e3d6000fd5b50600380546001600160a01b0319166001600160a01b03929092169190911790556040516100919061016c565b604051809103906000f0801580156100ad573d6000803e3d6000fd5b506001600160a01b031660a0526100c26100c8565b506101e9565b600360009054906101000a90046001600160a01b03166001600160a01b0316639711715a6040518163ffffffff1660e01b81526004016020604051808303816000875af115801561011d573d6000803e3d6000fd5b505050506040513d601f19601f8201168201806040525081019061014191906101a9565b6000908155426001556004805491610158836101c2565b9190505550565b6117bb80610a4283390190565b611307806121fd83390190565b60006020828403121561018b57600080fd5b81516001600160a01b03811681146101a257600080fd5b9392505050565b6000602082840312156101bb57600080fd5b5051919050565b6000600182016101e257634e487b7160e01b600052601160045260246000fd5b5060010190565b60805160a05161081f6102236000396000818161017b015261045d01526000818161010f0152818161023b01526105b5015261081f6000f3fe608060405234801561001057600080fd5b50600436106100a95760003560e01c80634e2786fb116100715780634e2786fb146101495780636de6656c14610152578063902dd1e31461015b578063b6b55f2514610163578063d2da7bca14610176578063d6cd2a381461019d57600080fd5b80632a4100ce146100ae5780632b7f81fe146100de5780632e1a7d4d146100f557806343cd8f7e1461010a57806347dac3d714610131575b600080fd5b6003546100c1906001600160a01b031681565b6040516001600160a01b0390911681526020015b60405180910390f35b6100e760015481565b6040519081526020016100d5565b6101086101033660046106dd565b6101bd565b005b6100c17f000000000000000000000000000000000000000000000000000000000000000081565b6101396102bf565b60405190151581526020016100d5565b6100e760045481565b6100e760005481565b6100e76102da565b6101086101713660046106dd565b6104dc565b6100c17f000000000000000000000000000000000000000000000000000000000000000081565b6100e76101ab3660046106f6565b60026020526000908152604090205481565b600354604051632770a7eb60e21b8152336004820152602481018390526001600160a01b0390911690639dc29fac90604401600060405180830381600087803b15801561020957600080fd5b505af115801561021d573d6000803e3d6000fd5b505060405163a9059cbb60e01b8152336004820152602481018490527f00000000000000000000000000000000000000000000000000000000000000006001600160a01b0316925063a9059cbb91506044015b6020604051808303816000875af115801561028f573d6000803e3d6000fd5b505050506040513d601f19601f820116820180604052508101906102b39190610726565b6102bc57600080fd5b50565b6000620697806001546102d2919061075e565b421015905090565b6000806102e56102bf565b156102f2576102f26105ec565b60035460008054604051630981b24d60e41b815291926001600160a01b03169163981b24d0916103289160040190815260200190565b602060405180830381865afa158015610345573d6000803e3d6000fd5b505050506040513d601f19601f820116820180604052508101906103699190610776565b6003546000805460405163277166bf60e11b81523360048201526024810191909152929350916001600160a01b0390911690634ee2cd7e90604401602060405180830381865afa1580156103c1573d6000803e3d6000fd5b505050506040513d601f19601f820116820180604052508101906103e59190610776565b90506000811180156103f75750600082115b156104d4578161040882606461078f565b61041a90670de0b6b3a764000061078f565b61042491906107ae565b925060008311801561043c575061043a33610683565b155b156104d4576040516340c10f1960e01b8152336004820152602481018490527f00000000000000000000000000000000000000000000000000000000000000006001600160a01b0316906340c10f1990604401600060405180830381600087803b1580156104a957600080fd5b505af11580156104bd573d6000803e3d6000fd5b505033600090815260026020526040902042905550505b509092915050565b600081116105265760405162461bcd60e51b81526020600482015260136024820152724d757374206465706f73697420746f6b656e7360681b604482015260640160405180910390fd5b6003546040516340c10f1960e01b8152336004820152602481018390526001600160a01b03909116906340c10f1990604401600060405180830381600087803b15801561057257600080fd5b505af1158015610586573d6000803e3d6000fd5b505050506105926102da565b506040516323b872dd60e01b8152336004820152306024820152604481018290527f00000000000000000000000000000000000000000000000000000000000000006001600160a01b0316906323b872dd90606401610270565b600360009054906101000a90046001600160a01b03166001600160a01b0316639711715a6040518163ffffffff1660e01b81526004016020604051808303816000875af1158015610641573d6000803e3d6000fd5b505050506040513d601f19601f820116820180604052508101906106659190610776565b600090815542600155600480549161067c836107d0565b9190505550565b6001546001600160a01b0382166000908152600260205260408120549091118015906106d75750620697806001546106bb919061075e565b6001600160a01b03831660009081526002602052604090205411155b92915050565b6000602082840312156106ef57600080fd5b5035919050565b60006020828403121561070857600080fd5b81356001600160a01b038116811461071f57600080fd5b9392505050565b60006020828403121561073857600080fd5b8151801515811461071f57600080fd5b634e487b7160e01b600052601160045260246000fd5b6000821982111561077157610771610748565b500190565b60006020828403121561078857600080fd5b5051919050565b60008160001904831182151516156107a9576107a9610748565b500290565b6000826107cb57634e487b7160e01b600052601260045260246000fd5b500490565b6000600182016107e2576107e2610748565b506001019056fea26469706673582212208c1fef1b564cef2fbb8743fab38faf8cfc311988fcdba18e61c635220d5ace4064736f6c634300080f003360806040523480156200001157600080fd5b5060405180604001604052806006815260200165392a37b5b2b760d11b81525060405180604001604052806004815260200163392a25a760e11b81525081600390816200005f919062000263565b5060046200006e828262000263565b5062000080915060009050336200010a565b620000ac7f9f2df0fed2c77648de5860a4cc508cd0818c85b8b8a1ab4ceeef8d981c8956a6336200010a565b620000d87f5fdbd35e8da83ee755d5e62a539e5ed7f47126abede0b8b10f9ea43dc6eed07f336200010a565b620001047f3c11d16cbaffd01df69ce1c404f6340ee057498f5f00246190ea54220576a848336200010a565b6200032f565b6200011682826200011a565b5050565b60008281526009602090815260408083206001600160a01b038516845290915290205460ff16620001165760008281526009602090815260408083206001600160a01b03851684529091529020805460ff191660011790556200017a3390565b6001600160a01b0316816001600160a01b0316837f2f8788117e7eff1d82e926ec794901d17c78024a50270940304540a733656f0d60405160405180910390a45050565b634e487b7160e01b600052604160045260246000fd5b600181811c90821680620001e957607f821691505b6020821081036200020a57634e487b7160e01b600052602260045260246000fd5b50919050565b601f8211156200025e57600081815260208120601f850160051c81016020861015620002395750805b601f850160051c820191505b818110156200025a5782815560010162000245565b5050505b505050565b81516001600160401b038111156200027f576200027f620001be565b6200029781620002908454620001d4565b8462000210565b602080601f831160018114620002cf5760008415620002b65750858301515b600019600386901b1c1916600185901b1785556200025a565b600085815260208120601f198616915b828110156200030057888601518255948401946001909101908401620002df565b50858210156200031f5787850151600019600388901b60f8161c191681555b5050505050600190811b01905550565b61147c806200033f6000396000f3fe608060405234801561001057600080fd5b506004361061018e5760003560e01c80637028e2cd116100de5780639dc29fac11610097578063a9059cbb11610071578063a9059cbb146101d0578063d539139314610376578063d547741f1461039d578063dd62ed3e146103b057600080fd5b80639dc29fac14610348578063a217fddf1461035b578063a457c2d71461036357600080fd5b80637028e2cd146102c257806370a08231146102e957806391d148541461031257806395d89b41146103255780639711715a1461032d578063981b24d01461033557600080fd5b8063282c51f31161014b57806336568abe1161012557806336568abe14610276578063395093511461028957806340c10f191461029c5780634ee2cd7e146102af57600080fd5b8063282c51f31461022b5780632f2ff15d14610252578063313ce5671461026757600080fd5b806301ffc9a71461019357806306fdde03146101bb578063095ea7b3146101d057806318160ddd146101e357806323b872dd146101f5578063248a9ca314610208575b600080fd5b6101a66101a136600461111b565b6103c3565b60405190151581526020015b60405180910390f35b6101c36103fa565b6040516101b29190611171565b6101a66101de3660046111bb565b61048c565b6002545b6040519081526020016101b2565b6101a66102033660046111e5565b6104a4565b6101e7610216366004611221565b60009081526009602052604090206001015490565b6101e77f3c11d16cbaffd01df69ce1c404f6340ee057498f5f00246190ea54220576a84881565b61026561026036600461123a565b6104c8565b005b604051601281526020016101b2565b61026561028436600461123a565b6104f2565b6101a66102973660046111bb565b610575565b6102656102aa3660046111bb565b610597565b6101e76102bd3660046111bb565b6105e7565b6101e77f5fdbd35e8da83ee755d5e62a539e5ed7f47126abede0b8b10f9ea43dc6eed07f81565b6101e76102f7366004611266565b6001600160a01b031660009081526020819052604090205490565b6101a661032036600461123a565b610640565b6101c361066b565b6101e761067a565b6101e7610343366004611221565b6106cf565b6102656103563660046111bb565b6106fa565b6101e7600081565b6101a66103713660046111bb565b61074a565b6101e77f9f2df0fed2c77648de5860a4cc508cd0818c85b8b8a1ab4ceeef8d981c8956a681565b6102656103ab36600461123a565b6107c5565b6101e76103be366004611281565b6107ea565b60006001600160e01b03198216637965db0b60e01b14806103f457506301ffc9a760e01b6001600160e01b03198316145b92915050565b606060038054610409906112ab565b80601f0160208091040260200160405190810160405280929190818152602001828054610435906112ab565b80156104825780601f1061045757610100808354040283529160200191610482565b820191906000526020600020905b81548152906001019060200180831161046557829003601f168201915b5050505050905090565b60003361049a818585610815565b5060019392505050565b6000336104b285828561084f565b6104bd858585610815565b506001949350505050565b6000828152600960205260409020600101546104e3816108c9565b6104ed83836108d6565b505050565b6001600160a01b03811633146105675760405162461bcd60e51b815260206004820152602f60248201527f416363657373436f6e74726f6c3a2063616e206f6e6c792072656e6f756e636560448201526e103937b632b9903337b91039b2b63360891b60648201526084015b60405180910390fd5b610571828261095c565b5050565b60003361049a81858561058883836107ea565b61059291906112fb565b610815565b6105c17f9f2df0fed2c77648de5860a4cc508cd0818c85b8b8a1ab4ceeef8d981c8956a633610640565b6105dd5760405162461bcd60e51b815260040161055e90611313565b61057182826109c3565b6001600160a01b03821660009081526005602052604081208190819061060e908590610a8e565b9150915081610635576001600160a01b038516600090815260208190526040902054610637565b805b95945050505050565b60009182526009602090815260408084206001600160a01b0393909316845291905290205460ff1690565b606060048054610409906112ab565b60006106a67f5fdbd35e8da83ee755d5e62a539e5ed7f47126abede0b8b10f9ea43dc6eed07f33610640565b6106c25760405162461bcd60e51b815260040161055e90611313565b6106ca610b84565b905090565b60008060006106df846006610a8e565b91509150816106f0576002546106f2565b805b949350505050565b6107247f3c11d16cbaffd01df69ce1c404f6340ee057498f5f00246190ea54220576a84833610640565b6107405760405162461bcd60e51b815260040161055e90611313565b6105718282610bde565b6000338161075882866107ea565b9050838110156107b85760405162461bcd60e51b815260206004820152602560248201527f45524332303a2064656372656173656420616c6c6f77616e63652062656c6f77604482015264207a65726f60d81b606482015260840161055e565b6104bd8286868403610815565b6000828152600960205260409020600101546107e0816108c9565b6104ed838361095c565b6001600160a01b03918216600090815260016020908152604080832093909416825291909152205490565b60405162461bcd60e51b815260206004820152600f60248201526e139bdd081a5b5c1b195b595b9d1959608a1b604482015260640161055e565b600061085b84846107ea565b905060001981146108c357818110156108b65760405162461bcd60e51b815260206004820152601d60248201527f45524332303a20696e73756666696369656e7420616c6c6f77616e6365000000604482015260640161055e565b6108c38484848403610815565b50505050565b6108d38133610d1c565b50565b6108e08282610640565b6105715760008281526009602090815260408083206001600160a01b03851684529091529020805460ff191660011790556109183390565b6001600160a01b0316816001600160a01b0316837f2f8788117e7eff1d82e926ec794901d17c78024a50270940304540a733656f0d60405160405180910390a45050565b6109668282610640565b156105715760008281526009602090815260408083206001600160a01b0385168085529252808320805460ff1916905551339285917ff6391f5c32d9c69d2a47ea670b442974b53935d1edc7fd64eb21e047a839171b9190a45050565b6001600160a01b038216610a195760405162461bcd60e51b815260206004820152601f60248201527f45524332303a206d696e7420746f20746865207a65726f206164647265737300604482015260640161055e565b610a2560008383610d75565b8060026000828254610a3791906112fb565b90915550506001600160a01b038216600081815260208181526040808320805486019055518481527fddf252ad1be2c89b69c2b068fc378daa952ba7f163c4a11628f55a4df523b3ef910160405180910390a35050565b60008060008411610ada5760405162461bcd60e51b815260206004820152601660248201527504552433230536e617073686f743a20696420697320360541b604482015260640161055e565b610ae2610dbd565b841115610b315760405162461bcd60e51b815260206004820152601d60248201527f4552433230536e617073686f743a206e6f6e6578697374656e74206964000000604482015260640161055e565b6000610b3d8486610dc8565b84549091508103610b55576000809250925050610b7d565b6001846001018281548110610b6c57610b6c611336565b906000526020600020015492509250505b9250929050565b6000610b94600880546001019055565b6000610b9e610dbd565b90507f8030e83b04d87bef53480e26263266d6ca66863aa8506aca6f2559d18aa1cb6781604051610bd191815260200190565b60405180910390a1919050565b6001600160a01b038216610c3e5760405162461bcd60e51b815260206004820152602160248201527f45524332303a206275726e2066726f6d20746865207a65726f206164647265736044820152607360f81b606482015260840161055e565b610c4a82600083610d75565b6001600160a01b03821660009081526020819052604090205481811015610cbe5760405162461bcd60e51b815260206004820152602260248201527f45524332303a206275726e20616d6f756e7420657863656564732062616c616e604482015261636560f01b606482015260840161055e565b6001600160a01b0383166000818152602081815260408083208686039055600280548790039055518581529192917fddf252ad1be2c89b69c2b068fc378daa952ba7f163c4a11628f55a4df523b3ef910160405180910390a3505050565b610d268282610640565b61057157610d3381610e75565b610d3e836020610e87565b604051602001610d4f92919061134c565b60408051601f198184030181529082905262461bcd60e51b825261055e91600401611171565b6001600160a01b038316610d9457610d8c8261102a565b6104ed61105c565b6001600160a01b038216610dab57610d8c8361102a565b610db48361102a565b6104ed8261102a565b60006106ca60085490565b81546000908103610ddb575060006103f4565b82546000905b80821015610e28576000610df5838361106c565b60008781526020902090915085908201541115610e1457809150610e22565b610e1f8160016112fb565b92505b50610de1565b600082118015610e54575083610e5186610e436001866113c1565b600091825260209091200190565b54145b15610e6d57610e646001836113c1565b925050506103f4565b5090506103f4565b60606103f46001600160a01b03831660145b60606000610e968360026113d8565b610ea19060026112fb565b67ffffffffffffffff811115610eb957610eb96113f7565b6040519080825280601f01601f191660200182016040528015610ee3576020820181803683370190505b509050600360fc1b81600081518110610efe57610efe611336565b60200101906001600160f81b031916908160001a905350600f60fb1b81600181518110610f2d57610f2d611336565b60200101906001600160f81b031916908160001a9053506000610f518460026113d8565b610f5c9060016112fb565b90505b6001811115610fd4576f181899199a1a9b1b9c1cb0b131b232b360811b85600f1660108110610f9057610f90611336565b1a60f81b828281518110610fa657610fa6611336565b60200101906001600160f81b031916908160001a90535060049490941c93610fcd8161140d565b9050610f5f565b5083156110235760405162461bcd60e51b815260206004820181905260248201527f537472696e67733a20686578206c656e67746820696e73756666696369656e74604482015260640161055e565b9392505050565b6001600160a01b038116600090815260056020908152604080832091839052909120546108d39190611087565b611087565b61106a600661105760025490565b565b600061107b6002848418611424565b611023908484166112fb565b6000611091610dbd565b90508061109d846110d1565b10156104ed578254600180820185556000858152602080822090930193909355938401805494850181558252902090910155565b805460009081036110e457506000919050565b815482906110f4906001906113c1565b8154811061110457611104611336565b90600052602060002001549050919050565b919050565b60006020828403121561112d57600080fd5b81356001600160e01b03198116811461102357600080fd5b60005b83811015611160578181015183820152602001611148565b838111156108c35750506000910152565b6020815260008251806020840152611190816040850160208701611145565b601f01601f19169190910160400192915050565b80356001600160a01b038116811461111657600080fd5b600080604083850312156111ce57600080fd5b6111d7836111a4565b946020939093013593505050565b6000806000606084860312156111fa57600080fd5b611203846111a4565b9250611211602085016111a4565b9150604084013590509250925092565b60006020828403121561123357600080fd5b5035919050565b6000806040838503121561124d57600080fd5b8235915061125d602084016111a4565b90509250929050565b60006020828403121561127857600080fd5b611023826111a4565b6000806040838503121561129457600080fd5b61129d836111a4565b915061125d602084016111a4565b600181811c908216806112bf57607f821691505b6020821081036112df57634e487b7160e01b600052602260045260246000fd5b50919050565b634e487b7160e01b600052601160045260246000fd5b6000821982111561130e5761130e6112e5565b500190565b6020808252600990820152682337b93134b23232b760b91b604082015260600190565b634e487b7160e01b600052603260045260246000fd5b7f416363657373436f6e74726f6c3a206163636f756e7420000000000000000000815260008351611384816017850160208801611145565b7001034b99036b4b9b9b4b733903937b6329607d1b60179184019182015283516113b5816028840160208801611145565b01602801949350505050565b6000828210156113d3576113d36112e5565b500390565b60008160001904831182151516156113f2576113f26112e5565b500290565b634e487b7160e01b600052604160045260246000fd5b60008161141c5761141c6112e5565b506000190190565b60008261144157634e487b7160e01b600052601260045260246000fd5b50049056fea2646970667358221220b7f925246db06226e46a22bbf3335689f8006919b398aa452dfd8e97e5ee0c0464736f6c634300080f003360806040523480156200001157600080fd5b506040518060400160405280600b81526020016a20bbb0b932102a37b5b2b760a91b815250604051806040016040528060038152602001621495d560ea1b81525081600390816200006391906200020f565b5060046200007282826200020f565b506200008491506000905033620000b6565b620000b07f9f2df0fed2c77648de5860a4cc508cd0818c85b8b8a1ab4ceeef8d981c8956a633620000b6565b620002db565b620000c28282620000c6565b5050565b60008281526005602090815260408083206001600160a01b038516845290915290205460ff16620000c25760008281526005602090815260408083206001600160a01b03851684529091529020805460ff19166001179055620001263390565b6001600160a01b0316816001600160a01b0316837f2f8788117e7eff1d82e926ec794901d17c78024a50270940304540a733656f0d60405160405180910390a45050565b634e487b7160e01b600052604160045260246000fd5b600181811c908216806200019557607f821691505b602082108103620001b657634e487b7160e01b600052602260045260246000fd5b50919050565b601f8211156200020a57600081815260208120601f850160051c81016020861015620001e55750805b601f850160051c820191505b818110156200020657828155600101620001f1565b5050505b505050565b81516001600160401b038111156200022b576200022b6200016a565b62000243816200023c845462000180565b84620001bc565b602080601f8311600181146200027b5760008415620002625750858301515b600019600386901b1c1916600185901b17855562000206565b600085815260208120601f198616915b82811015620002ac578886015182559484019460019091019084016200028b565b5085821015620002cb5787850151600019600388901b60f8161c191681555b5050505050600190811b01905550565b61101c80620002eb6000396000f3fe608060405234801561001057600080fd5b506004361061012c5760003560e01c806340c10f19116100ad578063a457c2d711610071578063a457c2d714610272578063a9059cbb14610285578063d539139314610298578063d547741f146102bf578063dd62ed3e146102d257600080fd5b806340c10f191461021357806370a082311461022657806391d148541461024f57806395d89b4114610262578063a217fddf1461026a57600080fd5b8063248a9ca3116100f4578063248a9ca3146101a65780632f2ff15d146101c9578063313ce567146101de57806336568abe146101ed578063395093511461020057600080fd5b806301ffc9a71461013157806306fdde0314610159578063095ea7b31461016e57806318160ddd1461018157806323b872dd14610193575b600080fd5b61014461013f366004610d12565b6102e5565b60405190151581526020015b60405180910390f35b61016161031c565b6040516101509190610d68565b61014461017c366004610db7565b6103ae565b6002545b604051908152602001610150565b6101446101a1366004610de1565b6103c6565b6101856101b4366004610e1d565b60009081526005602052604090206001015490565b6101dc6101d7366004610e36565b6103ea565b005b60405160128152602001610150565b6101dc6101fb366004610e36565b610414565b61014461020e366004610db7565b610497565b6101dc610221366004610db7565b6104b9565b610185610234366004610e62565b6001600160a01b031660009081526020819052604090205490565b61014461025d366004610e36565b6104f6565b610161610521565b610185600081565b610144610280366004610db7565b610530565b610144610293366004610db7565b6105ab565b6101857f9f2df0fed2c77648de5860a4cc508cd0818c85b8b8a1ab4ceeef8d981c8956a681565b6101dc6102cd366004610e36565b6105b9565b6101856102e0366004610e7d565b6105de565b60006001600160e01b03198216637965db0b60e01b148061031657506301ffc9a760e01b6001600160e01b03198316145b92915050565b60606003805461032b90610ea7565b80601f016020809104026020016040519081016040528092919081815260200182805461035790610ea7565b80156103a45780601f10610379576101008083540402835291602001916103a4565b820191906000526020600020905b81548152906001019060200180831161038757829003601f168201915b5050505050905090565b6000336103bc818585610609565b5060019392505050565b6000336103d485828561072d565b6103df8585856107a7565b506001949350505050565b6000828152600560205260409020600101546104058161094b565b61040f8383610958565b505050565b6001600160a01b03811633146104895760405162461bcd60e51b815260206004820152602f60248201527f416363657373436f6e74726f6c3a2063616e206f6e6c792072656e6f756e636560448201526e103937b632b9903337b91039b2b63360891b60648201526084015b60405180910390fd5b61049382826109de565b5050565b6000336103bc8185856104aa83836105de565b6104b49190610ef7565b610609565b6104e37f9f2df0fed2c77648de5860a4cc508cd0818c85b8b8a1ab4ceeef8d981c8956a6336104f6565b6104ec57600080fd5b6104938282610a45565b60009182526005602090815260408084206001600160a01b0393909316845291905290205460ff1690565b60606004805461032b90610ea7565b6000338161053e82866105de565b90508381101561059e5760405162461bcd60e51b815260206004820152602560248201527f45524332303a2064656372656173656420616c6c6f77616e63652062656c6f77604482015264207a65726f60d81b6064820152608401610480565b6103df8286868403610609565b6000336103bc8185856107a7565b6000828152600560205260409020600101546105d48161094b565b61040f83836109de565b6001600160a01b03918216600090815260016020908152604080832093909416825291909152205490565b6001600160a01b03831661066b5760405162461bcd60e51b8152602060048201526024808201527f45524332303a20617070726f76652066726f6d20746865207a65726f206164646044820152637265737360e01b6064820152608401610480565b6001600160a01b0382166106cc5760405162461bcd60e51b815260206004820152602260248201527f45524332303a20617070726f766520746f20746865207a65726f206164647265604482015261737360f01b6064820152608401610480565b6001600160a01b0383811660008181526001602090815260408083209487168084529482529182902085905590518481527f8c5be1e5ebec7d5bd14f71427d1e84f3dd0314c0f7b2291e5b200ac8c7c3b925910160405180910390a3505050565b600061073984846105de565b905060001981146107a157818110156107945760405162461bcd60e51b815260206004820152601d60248201527f45524332303a20696e73756666696369656e7420616c6c6f77616e63650000006044820152606401610480565b6107a18484848403610609565b50505050565b6001600160a01b03831661080b5760405162461bcd60e51b815260206004820152602560248201527f45524332303a207472616e736665722066726f6d20746865207a65726f206164604482015264647265737360d81b6064820152608401610480565b6001600160a01b03821661086d5760405162461bcd60e51b815260206004820152602360248201527f45524332303a207472616e7366657220746f20746865207a65726f206164647260448201526265737360e81b6064820152608401610480565b6001600160a01b038316600090815260208190526040902054818110156108e55760405162461bcd60e51b815260206004820152602660248201527f45524332303a207472616e7366657220616d6f756e7420657863656564732062604482015265616c616e636560d01b6064820152608401610480565b6001600160a01b03848116600081815260208181526040808320878703905593871680835291849020805487019055925185815290927fddf252ad1be2c89b69c2b068fc378daa952ba7f163c4a11628f55a4df523b3ef910160405180910390a36107a1565b6109558133610b04565b50565b61096282826104f6565b6104935760008281526005602090815260408083206001600160a01b03851684529091529020805460ff1916600117905561099a3390565b6001600160a01b0316816001600160a01b0316837f2f8788117e7eff1d82e926ec794901d17c78024a50270940304540a733656f0d60405160405180910390a45050565b6109e882826104f6565b156104935760008281526005602090815260408083206001600160a01b0385168085529252808320805460ff1916905551339285917ff6391f5c32d9c69d2a47ea670b442974b53935d1edc7fd64eb21e047a839171b9190a45050565b6001600160a01b038216610a9b5760405162461bcd60e51b815260206004820152601f60248201527f45524332303a206d696e7420746f20746865207a65726f2061646472657373006044820152606401610480565b8060026000828254610aad9190610ef7565b90915550506001600160a01b038216600081815260208181526040808320805486019055518481527fddf252ad1be2c89b69c2b068fc378daa952ba7f163c4a11628f55a4df523b3ef910160405180910390a35050565b610b0e82826104f6565b61049357610b1b81610b5d565b610b26836020610b6f565b604051602001610b37929190610f0f565b60408051601f198184030181529082905262461bcd60e51b825261048091600401610d68565b60606103166001600160a01b03831660145b60606000610b7e836002610f84565b610b89906002610ef7565b67ffffffffffffffff811115610ba157610ba1610fa3565b6040519080825280601f01601f191660200182016040528015610bcb576020820181803683370190505b509050600360fc1b81600081518110610be657610be6610fb9565b60200101906001600160f81b031916908160001a905350600f60fb1b81600181518110610c1557610c15610fb9565b60200101906001600160f81b031916908160001a9053506000610c39846002610f84565b610c44906001610ef7565b90505b6001811115610cbc576f181899199a1a9b1b9c1cb0b131b232b360811b85600f1660108110610c7857610c78610fb9565b1a60f81b828281518110610c8e57610c8e610fb9565b60200101906001600160f81b031916908160001a90535060049490941c93610cb581610fcf565b9050610c47565b508315610d0b5760405162461bcd60e51b815260206004820181905260248201527f537472696e67733a20686578206c656e67746820696e73756666696369656e746044820152606401610480565b9392505050565b600060208284031215610d2457600080fd5b81356001600160e01b031981168114610d0b57600080fd5b60005b83811015610d57578181015183820152602001610d3f565b838111156107a15750506000910152565b6020815260008251806020840152610d87816040850160208701610d3c565b601f01601f19169190910160400192915050565b80356001600160a01b0381168114610db257600080fd5b919050565b60008060408385031215610dca57600080fd5b610dd383610d9b565b946020939093013593505050565b600080600060608486031215610df657600080fd5b610dff84610d9b565b9250610e0d60208501610d9b565b9150604084013590509250925092565b600060208284031215610e2f57600080fd5b5035919050565b60008060408385031215610e4957600080fd5b82359150610e5960208401610d9b565b90509250929050565b600060208284031215610e7457600080fd5b610d0b82610d9b565b60008060408385031215610e9057600080fd5b610e9983610d9b565b9150610e5960208401610d9b565b600181811c90821680610ebb57607f821691505b602082108103610edb57634e487b7160e01b600052602260045260246000fd5b50919050565b634e487b7160e01b600052601160045260246000fd5b60008219821115610f0a57610f0a610ee1565b500190565b7f416363657373436f6e74726f6c3a206163636f756e7420000000000000000000815260008351610f47816017850160208801610d3c565b7001034b99036b4b9b9b4b733903937b6329607d1b6017918401918201528351610f78816028840160208801610d3c565b01602801949350505050565b6000816000190483118215151615610f9e57610f9e610ee1565b500290565b634e487b7160e01b600052604160045260246000fd5b634e487b7160e01b600052603260045260246000fd5b600081610fde57610fde610ee1565b50600019019056fea2646970667358221220c363392fb38982f0a61b9438c9a97bca719fe14c3db0784f2a8ad12f4601364064736f6c634300080f0033",
    "linkReferences": {}
  },
  "methodIdentifiers": {
    "accToken()": "2a4100ce",
    "awardToken()": "d2da7bca",
    "deposit(uint256)": "b6b55f25",
    "distributeAwards()": "902dd1e3",
    "isNewAwardsRound()": "47dac3d7",
    "lastAwardTimestamps(address)": "d6cd2a38",
    "lastRecordedSnapshotTimestamp()": "2b7f81fe",
    "lastSnapshotIdForAwards()": "6de6656c",
    "liquidityToken()": "43cd8f7e",
    "roundNumber()": "4e2786fb",
    "withdraw(uint256)": "2e1a7d4d"
  },
  "id": 35
}