{
  "abi": [
    {
      "inputs": [
        {
          "internalType": "address[]",
          "name": "sources",
          "type": "address[]"
        },
        {
          "internalType": "bool",
          "name": "enableInitialization",
          "type": "bool"
        }
      ],
      "stateMutability": "nonpayable",
      "type": "constructor"
    },
    {
      "anonymous": false,
      "inputs": [
        {
          "indexed": true,
          "internalType": "bytes32",
          "name": "role",
          "type": "bytes32"
        },
        {
          "indexed": true,
          "internalType": "bytes32",
          "name": "previousAdminRole",
          "type": "bytes32"
        },
        {
          "indexed": true,
          "internalType": "bytes32",
          "name": "newAdminRole",
          "type": "bytes32"
        }
      ],
      "name": "RoleAdminChanged",
      "type": "event"
    },
    {
      "anonymous": false,
      "inputs": [
        {
          "indexed": true,
          "internalType": "bytes32",
          "name": "role",
          "type": "bytes32"
        },
        {
          "indexed": true,
          "internalType": "address",
          "name": "account",
          "type": "address"
        },
        {
          "indexed": true,
          "internalType": "address",
          "name": "sender",
          "type": "address"
        }
      ],
      "name": "RoleGranted",
      "type": "event"
    },
    {
      "anonymous": false,
      "inputs": [
        {
          "indexed": true,
          "internalType": "bytes32",
          "name": "role",
          "type": "bytes32"
        },
        {
          "indexed": true,
          "internalType": "address",
          "name": "account",
          "type": "address"
        },
        {
          "indexed": true,
          "internalType": "address",
          "name": "sender",
          "type": "address"
        }
      ],
      "name": "RoleRevoked",
      "type": "event"
    },
    {
      "anonymous": false,
      "inputs": [
        {
          "indexed": true,
          "internalType": "address",
          "name": "source",
          "type": "address"
        },
        {
          "indexed": true,
          "internalType": "string",
          "name": "symbol",
          "type": "string"
        },
        {
          "indexed": false,
          "internalType": "uint256",
          "name": "oldPrice",
          "type": "uint256"
        },
        {
          "indexed": false,
          "internalType": "uint256",
          "name": "newPrice",
          "type": "uint256"
        }
      ],
      "name": "UpdatedPrice",
      "type": "event"
    },
    {
      "inputs": [],
      "name": "DEFAULT_ADMIN_ROLE",
      "outputs": [
        {
          "internalType": "bytes32",
          "name": "",
          "type": "bytes32"
        }
      ],
      "stateMutability": "view",
      "type": "function"
    },
    {
      "inputs": [],
      "name": "INITIALIZER_ROLE",
      "outputs": [
        {
          "internalType": "bytes32",
          "name": "",
          "type": "bytes32"
        }
      ],
      "stateMutability": "view",
      "type": "function"
    },
    {
      "inputs": [],
      "name": "TRUSTED_SOURCE_ROLE",
      "outputs": [
        {
          "internalType": "bytes32",
          "name": "",
          "type": "bytes32"
        }
      ],
      "stateMutability": "view",
      "type": "function"
    },
    {
      "inputs": [
        {
          "internalType": "string",
          "name": "symbol",
          "type": "string"
        }
      ],
      "name": "getAllPricesForSymbol",
      "outputs": [
        {
          "internalType": "uint256[]",
          "name": "",
          "type": "uint256[]"
        }
      ],
      "stateMutability": "view",
      "type": "function"
    },
    {
      "inputs": [
        {
          "internalType": "string",
          "name": "symbol",
          "type": "string"
        }
      ],
      "name": "getMedianPrice",
      "outputs": [
        {
          "internalType": "uint256",
          "name": "",
          "type": "uint256"
        }
      ],
      "stateMutability": "view",
      "type": "function"
    },
    {
      "inputs": [],
      "name": "getNumberOfSources",
      "outputs": [
        {
          "internalType": "uint256",
          "name": "",
          "type": "uint256"
        }
      ],
      "stateMutability": "view",
      "type": "function"
    },
    {
      "inputs": [
        {
          "internalType": "string",
          "name": "symbol",
          "type": "string"
        },
        {
          "internalType": "address",
          "name": "source",
          "type": "address"
        }
      ],
      "name": "getPriceBySource",
      "outputs": [
        {
          "internalType": "uint256",
          "name": "",
          "type": "uint256"
        }
      ],
      "stateMutability": "view",
      "type": "function"
    },
    {
      "inputs": [
        {
          "internalType": "bytes32",
          "name": "role",
          "type": "bytes32"
        }
      ],
      "name": "getRoleAdmin",
      "outputs": [
        {
          "internalType": "bytes32",
          "name": "",
          "type": "bytes32"
        }
      ],
      "stateMutability": "view",
      "type": "function"
    },
    {
      "inputs": [
        {
          "internalType": "bytes32",
          "name": "role",
          "type": "bytes32"
        },
        {
          "internalType": "uint256",
          "name": "index",
          "type": "uint256"
        }
      ],
      "name": "getRoleMember",
      "outputs": [
        {
          "internalType": "address",
          "name": "",
          "type": "address"
        }
      ],
      "stateMutability": "view",
      "type": "function"
    },
    {
      "inputs": [
        {
          "internalType": "bytes32",
          "name": "role",
          "type": "bytes32"
        }
      ],
      "name": "getRoleMemberCount",
      "outputs": [
        {
          "internalType": "uint256",
          "name": "",
          "type": "uint256"
        }
      ],
      "stateMutability": "view",
      "type": "function"
    },
    {
      "inputs": [
        {
          "internalType": "bytes32",
          "name": "role",
          "type": "bytes32"
        },
        {
          "internalType": "address",
          "name": "account",
          "type": "address"
        }
      ],
      "name": "grantRole",
      "outputs": [],
      "stateMutability": "nonpayable",
      "type": "function"
    },
    {
      "inputs": [
        {
          "internalType": "bytes32",
          "name": "role",
          "type": "bytes32"
        },
        {
          "internalType": "address",
          "name": "account",
          "type": "address"
        }
      ],
      "name": "hasRole",
      "outputs": [
        {
          "internalType": "bool",
          "name": "",
          "type": "bool"
        }
      ],
      "stateMutability": "view",
      "type": "function"
    },
    {
      "inputs": [
        {
          "internalType": "string",
          "name": "symbol",
          "type": "string"
        },
        {
          "internalType": "uint256",
          "name": "newPrice",
          "type": "uint256"
        }
      ],
      "name": "postPrice",
      "outputs": [],
      "stateMutability": "nonpayable",
      "type": "function"
    },
    {
      "inputs": [
        {
          "internalType": "bytes32",
          "name": "role",
          "type": "bytes32"
        },
        {
          "internalType": "address",
          "name": "account",
          "type": "address"
        }
      ],
      "name": "renounceRole",
      "outputs": [],
      "stateMutability": "nonpayable",
      "type": "function"
    },
    {
      "inputs": [
        {
          "internalType": "bytes32",
          "name": "role",
          "type": "bytes32"
        },
        {
          "internalType": "address",
          "name": "account",
          "type": "address"
        }
      ],
      "name": "revokeRole",
      "outputs": [],
      "stateMutability": "nonpayable",
      "type": "function"
    },
    {
      "inputs": [
        {
          "internalType": "address[]",
          "name": "sources",
          "type": "address[]"
        },
        {
          "internalType": "string[]",
          "name": "symbols",
          "type": "string[]"
        },
        {
          "internalType": "uint256[]",
          "name": "prices",
          "type": "uint256[]"
        }
      ],
      "name": "setupInitialPrices",
      "outputs": [],
      "stateMutability": "nonpayable",
      "type": "function"
    },
    {
      "inputs": [
        {
          "internalType": "bytes4",
          "name": "interfaceId",
          "type": "bytes4"
        }
      ],
      "name": "supportsInterface",
      "outputs": [
        {
          "internalType": "bool",
          "name": "",
          "type": "bool"
        }
      ],
      "stateMutability": "view",
      "type": "function"
    }
  ],
  "bytecode": {
    "object": "0x60806040523480156200001157600080fd5b506040516200199838038062001998833981016040819052620000349162000298565b60008251116200004357600080fd5b60005b8251811015620000b3576200009e7fc679038626499ff86a7debd1abe47cfee1e32a1afc3748d333416c2e93460ee58483815181106200008a576200008a6200037e565b6020026020010151620000ef60201b60201c565b80620000aa8162000394565b91505062000046565b508015620000e757620000e77f30d41a597cac127d8249d31298b50e481ee82c3f4a49ff93c76a22735aa9f3ad33620000ef565b5050620003bc565b620000fb8282620000ff565b5050565b6200011682826200014260201b620006b31760201c565b60008281526001602090815260409091206200013d91839062000737620001e2821b17901c565b505050565b6000828152602081815260408083206001600160a01b038516845290915290205460ff16620000fb576000828152602081815260408083206001600160a01b03851684529091529020805460ff191660011790556200019e3390565b6001600160a01b0316816001600160a01b0316837f2f8788117e7eff1d82e926ec794901d17c78024a50270940304540a733656f0d60405160405180910390a45050565b6000620001f9836001600160a01b03841662000202565b90505b92915050565b60008181526001830160205260408120546200024b57508154600181810184556000848152602080822090930184905584548482528286019093526040902091909155620001fc565b506000620001fc565b634e487b7160e01b600052604160045260246000fd5b80516001600160a01b03811681146200028257600080fd5b919050565b805180151581146200028257600080fd5b60008060408385031215620002ac57600080fd5b82516001600160401b0380821115620002c457600080fd5b818501915085601f830112620002d957600080fd5b8151602082821115620002f057620002f062000254565b8160051b604051601f19603f8301168101818110868211171562000318576200031862000254565b6040529283528183019350848101820192898411156200033757600080fd5b948201945b83861015620003605762000350866200026a565b855294820194938201936200033c565b965062000371905087820162000287565b9450505050509250929050565b634e487b7160e01b600052603260045260246000fd5b600060018201620003b557634e487b7160e01b600052601160045260246000fd5b5060010190565b6115cc80620003cc6000396000f3fe608060405234801561001057600080fd5b506004361061010b5760003560e01c80639010d07c116100a2578063a217fddf11610071578063a217fddf14610259578063bcc82dc414610261578063ca15c87314610274578063d547741f14610287578063d965b3081461029a57600080fd5b80639010d07c146101e657806391691fd91461021157806391d14854146102265780639abd4a251461023957600080fd5b80632f2ff15d116100de5780632f2ff15d146101a357806336568abe146101b857806351c454db146101cb57806366932d86146101d357600080fd5b806301ffc9a714610110578063248a9ca31461013857806327df3d3e1461016957806329d1471014610190575b600080fd5b61012361011e366004610e90565b6102ad565b60405190151581526020015b60405180910390f35b61015b610146366004610eba565b60009081526020819052604090206001015490565b60405190815260200161012f565b61015b7f30d41a597cac127d8249d31298b50e481ee82c3f4a49ff93c76a22735aa9f3ad81565b61015b61019e366004610fa6565b6102d8565b6101b66101b1366004610ff4565b610315565b005b6101b66101c6366004610ff4565b61033f565b61015b6103c2565b6101b66101e1366004611126565b6103e0565b6101f96101f436600461120a565b6104cd565b6040516001600160a01b03909116815260200161012f565b61015b60008051602061157783398151915281565b610123610234366004610ff4565b6104ec565b61024c61024736600461122c565b610515565b60405161012f9190611269565b61015b600081565b6101b661026f3660046112f6565b6105d3565b61015b610282366004610eba565b610636565b6101b6610295366004610ff4565b61064d565b61015b6102a8366004611342565b610672565b60006001600160e01b03198216635a05180f60e01b14806102d257506102d28261074c565b92915050565b6001600160a01b03811660009081526002602052604080822090516102fe9085906113b4565b908152602001604051809103902054905092915050565b60008281526020819052604090206001015461033081610781565b61033a838361078e565b505050565b6001600160a01b03811633146103b45760405162461bcd60e51b815260206004820152602f60248201527f416363657373436f6e74726f6c3a2063616e206f6e6c792072656e6f756e636560448201526e103937b632b9903337b91039b2b63360891b60648201526084015b60405180910390fd5b6103be82826107b0565b5050565b60006103db600080516020611577833981519152610636565b905090565b61040a7f30d41a597cac127d8249d31298b50e481ee82c3f4a49ff93c76a22735aa9f3ad336104ec565b61041357600080fd5b81518351148015610425575080518251145b61042e57600080fd5b60005b83518110156104a25761049084828151811061044f5761044f6113d0565b6020026020010151848381518110610469576104696113d0565b6020026020010151848481518110610483576104836113d0565b60200260200101516107d2565b8061049a816113fc565b915050610431565b5061033a7f30d41a597cac127d8249d31298b50e481ee82c3f4a49ff93c76a22735aa9f3ad3361033f565b60008281526001602052604081206104e590836108ac565b9392505050565b6000918252602082815260408084206001600160a01b0393909316845291905290205460ff1690565b606060006105216103c2565b905060008167ffffffffffffffff81111561053e5761053e610ed3565b604051908082528060200260200182016040528015610567578160200160208202803683370190505b50905060005b828110156105cb57600061058f600080516020611577833981519152836104cd565b905061059b86826102d8565b8383815181106105ad576105ad6113d0565b602090810291909101015250806105c3816113fc565b91505061056d565b509392505050565b6105eb600080516020611577833981519152336104ec565b6105f457600080fd5b61033a3384848080601f0160208091040260200160405190810160405280939291908181526020018383808284376000920191909152508692506107d2915050565b60008181526001602052604081206102d2906108b8565b60008281526020819052604090206001015461066881610781565b61033a83836107b0565b60006104e583838080601f0160208091040260200160405190810160405280939291908181526020018383808284376000920191909152506108c292505050565b6106bd82826104ec565b6103be576000828152602081815260408083206001600160a01b03851684529091529020805460ff191660011790556106f33390565b6001600160a01b0316816001600160a01b0316837f2f8788117e7eff1d82e926ec794901d17c78024a50270940304540a733656f0d60405160405180910390a45050565b60006104e5836001600160a01b03841661099f565b60006001600160e01b03198216637965db0b60e01b14806102d257506301ffc9a760e01b6001600160e01b03198316146102d2565b61078b81336109ee565b50565b61079882826106b3565b600082815260016020526040902061033a9082610737565b6107ba8282610a47565b600082815260016020526040902061033a9082610aac565b6001600160a01b03831660009081526002602052604080822090516107f89085906113b4565b90815260200160405180910390205490508160026000866001600160a01b03166001600160a01b031681526020019081526020016000208460405161083d91906113b4565b9081526040519081900360200181209190915561085b9084906113b4565b6040805191829003822083835260208301859052916001600160a01b038716917f7ebfc8f1d3dff8b56ce70e115d8ba5b18d9af762183f27ee34e3e7ec5ef95f9f910160405180910390a350505050565b60006104e58383610ac1565b60006102d2825490565b6000806108d66108d184610515565b610aeb565b9050600281516108e6919061142b565b60000361097057600081600160028451610900919061143f565b61090a9190611453565b8151811061091a5761091a6113d0565b6020026020010151905060008260028451610935919061143f565b81518110610945576109456113d0565b602002602001015190506002818361095d919061146a565b610967919061143f565b95945050505050565b806002825161097f919061143f565b8151811061098f5761098f6113d0565b6020026020010151915050919050565b60008181526001830160205260408120546109e6575081546001818101845560008481526020808220909301849055845484825282860190935260409020919091556102d2565b5060006102d2565b6109f882826104ec565b6103be57610a0581610bef565b610a10836020610c01565b604051602001610a21929190611482565b60408051601f198184030181529082905262461bcd60e51b82526103ab916004016114f7565b610a5182826104ec565b156103be576000828152602081815260408083206001600160a01b0385168085529252808320805460ff1916905551339285917ff6391f5c32d9c69d2a47ea670b442974b53935d1edc7fd64eb21e047a839171b9190a45050565b60006104e5836001600160a01b038416610d9d565b6000826000018281548110610ad857610ad86113d0565b9060005260206000200154905092915050565b606060005b8251811015610be8576000610b0682600161146a565b90505b8351811015610bd557838181518110610b2457610b246113d0565b6020026020010151848381518110610b3e57610b3e6113d0565b60200260200101511115610bc3576000848381518110610b6057610b606113d0565b60200260200101519050848281518110610b7c57610b7c6113d0565b6020026020010151858481518110610b9657610b966113d0565b60200260200101818152505080858381518110610bb557610bb56113d0565b602002602001018181525050505b80610bcd816113fc565b915050610b09565b5080610be0816113fc565b915050610af0565b5090919050565b60606102d26001600160a01b03831660145b60606000610c1083600261152a565b610c1b90600261146a565b67ffffffffffffffff811115610c3357610c33610ed3565b6040519080825280601f01601f191660200182016040528015610c5d576020820181803683370190505b509050600360fc1b81600081518110610c7857610c786113d0565b60200101906001600160f81b031916908160001a905350600f60fb1b81600181518110610ca757610ca76113d0565b60200101906001600160f81b031916908160001a9053506000610ccb84600261152a565b610cd690600161146a565b90505b6001811115610d4e576f181899199a1a9b1b9c1cb0b131b232b360811b85600f1660108110610d0a57610d0a6113d0565b1a60f81b828281518110610d2057610d206113d0565b60200101906001600160f81b031916908160001a90535060049490941c93610d4781611549565b9050610cd9565b5083156104e55760405162461bcd60e51b815260206004820181905260248201527f537472696e67733a20686578206c656e67746820696e73756666696369656e7460448201526064016103ab565b60008181526001830160205260408120548015610e86576000610dc1600183611453565b8554909150600090610dd590600190611453565b9050818114610e3a576000866000018281548110610df557610df56113d0565b9060005260206000200154905080876000018481548110610e1857610e186113d0565b6000918252602080832090910192909255918252600188019052604090208390555b8554869080610e4b57610e4b611560565b6001900381819060005260206000200160009055905585600101600086815260200190815260200160002060009055600193505050506102d2565b60009150506102d2565b600060208284031215610ea257600080fd5b81356001600160e01b0319811681146104e557600080fd5b600060208284031215610ecc57600080fd5b5035919050565b634e487b7160e01b600052604160045260246000fd5b604051601f8201601f1916810167ffffffffffffffff81118282101715610f1257610f12610ed3565b604052919050565b600082601f830112610f2b57600080fd5b813567ffffffffffffffff811115610f4557610f45610ed3565b610f58601f8201601f1916602001610ee9565b818152846020838601011115610f6d57600080fd5b816020850160208301376000918101602001919091529392505050565b80356001600160a01b0381168114610fa157600080fd5b919050565b60008060408385031215610fb957600080fd5b823567ffffffffffffffff811115610fd057600080fd5b610fdc85828601610f1a565b925050610feb60208401610f8a565b90509250929050565b6000806040838503121561100757600080fd5b82359150610feb60208401610f8a565b600067ffffffffffffffff82111561103157611031610ed3565b5060051b60200190565b600082601f83011261104c57600080fd5b8135602061106161105c83611017565b610ee9565b82815260059290921b8401810191818101908684111561108057600080fd5b8286015b848110156110c057803567ffffffffffffffff8111156110a45760008081fd5b6110b28986838b0101610f1a565b845250918301918301611084565b509695505050505050565b600082601f8301126110dc57600080fd5b813560206110ec61105c83611017565b82815260059290921b8401810191818101908684111561110b57600080fd5b8286015b848110156110c0578035835291830191830161110f565b60008060006060848603121561113b57600080fd5b833567ffffffffffffffff8082111561115357600080fd5b818601915086601f83011261116757600080fd5b8135602061117761105c83611017565b82815260059290921b8401810191818101908a84111561119657600080fd5b948201945b838610156111bb576111ac86610f8a565b8252948201949082019061119b565b975050870135925050808211156111d157600080fd5b6111dd8783880161103b565b935060408601359150808211156111f357600080fd5b50611200868287016110cb565b9150509250925092565b6000806040838503121561121d57600080fd5b50508035926020909101359150565b60006020828403121561123e57600080fd5b813567ffffffffffffffff81111561125557600080fd5b61126184828501610f1a565b949350505050565b6020808252825182820181905260009190848201906040850190845b818110156112a157835183529284019291840191600101611285565b50909695505050505050565b60008083601f8401126112bf57600080fd5b50813567ffffffffffffffff8111156112d757600080fd5b6020830191508360208285010111156112ef57600080fd5b9250929050565b60008060006040848603121561130b57600080fd5b833567ffffffffffffffff81111561132257600080fd5b61132e868287016112ad565b909790965060209590950135949350505050565b6000806020838503121561135557600080fd5b823567ffffffffffffffff81111561136c57600080fd5b611378858286016112ad565b90969095509350505050565b60005b8381101561139f578181015183820152602001611387565b838111156113ae576000848401525b50505050565b600082516113c6818460208701611384565b9190910192915050565b634e487b7160e01b600052603260045260246000fd5b634e487b7160e01b600052601160045260246000fd5b60006001820161140e5761140e6113e6565b5060010190565b634e487b7160e01b600052601260045260246000fd5b60008261143a5761143a611415565b500690565b60008261144e5761144e611415565b500490565b600082821015611465576114656113e6565b500390565b6000821982111561147d5761147d6113e6565b500190565b7f416363657373436f6e74726f6c3a206163636f756e74200000000000000000008152600083516114ba816017850160208801611384565b7001034b99036b4b9b9b4b733903937b6329607d1b60179184019182015283516114eb816028840160208801611384565b01602801949350505050565b6020815260008251806020840152611516816040850160208701611384565b601f01601f19169190910160400192915050565b6000816000190483118215151615611544576115446113e6565b500290565b600081611558576115586113e6565b506000190190565b634e487b7160e01b600052603160045260246000fdfec679038626499ff86a7debd1abe47cfee1e32a1afc3748d333416c2e93460ee5a26469706673582212200dc3e2596e9e0f050d29319c08ab5c5c606e0c687991b703583e1140c6bd102564736f6c634300080f0033",
    "linkReferences": {}
  },
  "methodIdentifiers": {
    "DEFAULT_ADMIN_ROLE()": "a217fddf",
    "INITIALIZER_ROLE()": "27df3d3e",
    "TRUSTED_SOURCE_ROLE()": "91691fd9",
    "getAllPricesForSymbol(string)": "9abd4a25",
    "getMedianPrice(string)": "d965b308",
    "getNumberOfSources()": "51c454db",
    "getPriceBySource(string,address)": "29d14710",
    "getRoleAdmin(bytes32)": "248a9ca3",
    "getRoleMember(bytes32,uint256)": "9010d07c",
    "getRoleMemberCount(bytes32)": "ca15c873",
    "grantRole(bytes32,address)": "2f2ff15d",
    "hasRole(bytes32,address)": "91d14854",
    "postPrice(string,uint256)": "bcc82dc4",
    "renounceRole(bytes32,address)": "36568abe",
    "revokeRole(bytes32,address)": "d547741f",
    "setupInitialPrices(address[],string[],uint256[])": "66932d86",
    "supportsInterface(bytes4)": "01ffc9a7"
  },
  "id": 80
}