{
  "abi": [
    {
      "inputs": [
        {
          "internalType": "address payable",
          "name": "poolAddress",
          "type": "address"
        }
      ],
      "stateMutability": "nonpayable",
      "type": "constructor"
    },
    {
      "inputs": [
        {
          "internalType": "uint256",
          "name": "fee",
          "type": "uint256"
        }
      ],
      "name": "receiveEther",
      "outputs": [],
      "stateMutability": "payable",
      "type": "function"
    },
    {
      "stateMutability": "payable",
      "type": "receive"
    }
  ],
  "bytecode": {
    "object": "0x608060405234801561001057600080fd5b5060405161033638038061033683398101604081905261002f91610054565b600080546001600160a01b0319166001600160a01b0392909216919091179055610084565b60006020828403121561006657600080fd5b81516001600160a01b038116811461007d57600080fd5b9392505050565b6102a3806100936000396000f3fe6080604052600436106100225760003560e01c80631efa4ec01461002e57600080fd5b3661002957005b600080fd5b61004161003c36600461022e565b610043565b005b6000546001600160a01b031633146100985760405162461bcd60e51b815260206004820152601360248201527214d95b99195c881b5d5cdd081899481c1bdbdb606a1b60448201526064015b60405180910390fd5b60006100a48234610247565b9050804710156100f65760405162461bcd60e51b815260206004820152601760248201527f43616e6e6f7420626f72726f772074686174206d756368000000000000000000604482015260640161008f565b60005461010c906001600160a01b031682610110565b5050565b804710156101605760405162461bcd60e51b815260206004820152601d60248201527f416464726573733a20696e73756666696369656e742062616c616e6365000000604482015260640161008f565b6000826001600160a01b03168260405160006040518083038185875af1925050503d80600081146101ad576040519150601f19603f3d011682016040523d82523d6000602084013e6101b2565b606091505b50509050806102295760405162461bcd60e51b815260206004820152603a60248201527f416464726573733a20756e61626c6520746f2073656e642076616c75652c207260448201527f6563697069656e74206d61792068617665207265766572746564000000000000606482015260840161008f565b505050565b60006020828403121561024057600080fd5b5035919050565b6000821982111561026857634e487b7160e01b600052601160045260246000fd5b50019056fea2646970667358221220a63f95cb70686059ffbdd01b332a16851731f7147d98328db53731f35e57ef0d64736f6c634300080f0033",
    "linkReferences": {}
  },
  "methodIdentifiers": {
    "receiveEther(uint256)": "1efa4ec0"
  },
  "id": 78
}