{
  "abi": [
    {
      "inputs": [
        {
          "internalType": "address",
          "name": "governanceTokenAddress",
          "type": "address"
        }
      ],
      "stateMutability": "nonpayable",
      "type": "constructor"
    },
    {
      "anonymous": false,
      "inputs": [
        {
          "indexed": false,
          "internalType": "uint256",
          "name": "actionId",
          "type": "uint256"
        },
        {
          "indexed": true,
          "internalType": "address",
          "name": "caller",
          "type": "address"
        }
      ],
      "name": "ActionExecuted",
      "type": "event"
    },
    {
      "anonymous": false,
      "inputs": [
        {
          "indexed": false,
          "internalType": "uint256",
          "name": "actionId",
          "type": "uint256"
        },
        {
          "indexed": true,
          "internalType": "address",
          "name": "caller",
          "type": "address"
        }
      ],
      "name": "ActionQueued",
      "type": "event"
    },
    {
      "inputs": [
        {
          "internalType": "uint256",
          "name": "",
          "type": "uint256"
        }
      ],
      "name": "actions",
      "outputs": [
        {
          "internalType": "address",
          "name": "receiver",
          "type": "address"
        },
        {
          "internalType": "bytes",
          "name": "data",
          "type": "bytes"
        },
        {
          "internalType": "uint256",
          "name": "weiAmount",
          "type": "uint256"
        },
        {
          "internalType": "uint256",
          "name": "proposedAt",
          "type": "uint256"
        },
        {
          "internalType": "uint256",
          "name": "executedAt",
          "type": "uint256"
        }
      ],
      "stateMutability": "view",
      "type": "function"
    },
    {
      "inputs": [
        {
          "internalType": "uint256",
          "name": "actionId",
          "type": "uint256"
        }
      ],
      "name": "executeAction",
      "outputs": [],
      "stateMutability": "payable",
      "type": "function"
    },
    {
      "inputs": [],
      "name": "getActionDelay",
      "outputs": [
        {
          "internalType": "uint256",
          "name": "",
          "type": "uint256"
        }
      ],
      "stateMutability": "view",
      "type": "function"
    },
    {
      "inputs": [],
      "name": "governanceToken",
      "outputs": [
        {
          "internalType": "contract DefiCtfTokenSnapshot",
          "name": "",
          "type": "address"
        }
      ],
      "stateMutability": "view",
      "type": "function"
    },
    {
      "inputs": [
        {
          "internalType": "address",
          "name": "receiver",
          "type": "address"
        },
        {
          "internalType": "bytes",
          "name": "data",
          "type": "bytes"
        },
        {
          "internalType": "uint256",
          "name": "weiAmount",
          "type": "uint256"
        }
      ],
      "name": "queueAction",
      "outputs": [
        {
          "internalType": "uint256",
          "name": "",
          "type": "uint256"
        }
      ],
      "stateMutability": "nonpayable",
      "type": "function"
    }
  ],
  "bytecode": {
    "object": "0x60806040526202a30060035534801561001757600080fd5b50604051610d04380380610d04833981016040819052610036916100ca565b6001600160a01b0381166100a05760405162461bcd60e51b815260206004820152602760248201527f476f7665726e616e636520746f6b656e2063616e6e6f74206265207a65726f206044820152666164647265737360c81b606482015260840160405180910390fd5b600080546001600160a01b0319166001600160a01b039290921691909117905560016002556100fa565b6000602082840312156100dc57600080fd5b81516001600160a01b03811681146100f357600080fd5b9392505050565b610bfb806101096000396000f3fe60806040526004361061004a5760003560e01c806312057a141461004f57806383240f8314610073578063c0c1cf55146100a4578063c21f37ca146100b9578063f96dae0a146100d9575b600080fd5b34801561005b57600080fd5b506003545b6040519081526020015b60405180910390f35b34801561007f57600080fd5b5061009361008e36600461083f565b610111565b60405161006a9594939291906108b4565b6100b76100b236600461083f565b6101d3565b005b3480156100c557600080fd5b506100606100d43660046108f5565b610326565b3480156100e557600080fd5b506000546100f9906001600160a01b031681565b6040516001600160a01b03909116815260200161006a565b6001602081905260009182526040909120805491810180546001600160a01b039093169261013e9061098c565b80601f016020809104026020016040519081016040528092919081815260200182805461016a9061098c565b80156101b75780601f1061018c576101008083540402835291602001916101b7565b820191906000526020600020905b81548152906001019060200180831161019a57829003601f168201915b5050505050908060020154908060030154908060040154905085565b6101dc81610498565b61022d5760405162461bcd60e51b815260206004820152601a60248201527f43616e6e6f742065786563757465207468697320616374696f6e00000000000060448201526064015b60405180910390fd5b600081815260016020819052604090912042600482015590810180546102ec91906102579061098c565b80601f01602080910402602001604051908101604052809291908181526020018280546102839061098c565b80156102d05780601f106102a5576101008083540402835291602001916102d0565b820191906000526020600020905b8154815290600101906020018083116102b357829003601f168201915b50505050600284015484546001600160a01b03169291506105a2565b5060405182815233907f78a7d64f64ef6891bedfc1b6854447113cca07ace8747b8a6cf32a0fd5a80b179060200160405180910390a25050565b6000610331336105c8565b61038b5760405162461bcd60e51b815260206004820152602560248201527f4e6f7420656e6f75676820766f74657320746f2070726f706f736520616e206160448201526431ba34b7b760d91b6064820152608401610224565b306001600160a01b038616036103f75760405162461bcd60e51b815260206004820152602b60248201527f43616e6e6f7420717565756520616374696f6e7320746861742061666665637460448201526a20476f7665726e616e636560a81b6064820152608401610224565b60028054600081815260016020819052604090912080546001600160a01b0319166001600160a01b038a16178155928301859055909190810161043b868883610a2b565b504260038201556002805490600061045283610b02565b909155505060405182815233907f4dfd92f69e02f82c8f6705b2e4a364465b588fa4773cda26786c3ca8df43a1959060200160405180910390a25090505b949350505050565b6000818152600160208181526040808420815160a0810190925280546001600160a01b03168252928301805485949293840191906104d59061098c565b80601f01602080910402602001604051908101604052809291908181526020018280546105019061098c565b801561054e5780601f106105235761010080835404028352916020019161054e565b820191906000526020600020905b81548152906001019060200180831161053157829003601f168201915b50505050508152602001600282015481526020016003820154815260200160048201548152505090508060800151600014801561059b575060035460608201516105989042610b1b565b10155b9392505050565b6060610490848484604051806060016040528060298152602001610b9d602991396106c6565b600080546040516322c88b2760e11b81526001600160a01b03848116600483015283921690634591164e90602401602060405180830381865afa158015610613573d6000803e3d6000fd5b505050506040513d601f19601f820116820180604052508101906106379190610b32565b90506000600260008054906101000a90046001600160a01b03166001600160a01b031663a3ec73fb6040518163ffffffff1660e01b8152600401602060405180830381865afa15801561068e573d6000803e3d6000fd5b505050506040513d601f19601f820116820180604052508101906106b29190610b32565b6106bc9190610b4b565b9091119392505050565b6060824710156107275760405162461bcd60e51b815260206004820152602660248201527f416464726573733a20696e73756666696369656e742062616c616e636520666f6044820152651c8818d85b1b60d21b6064820152608401610224565b600080866001600160a01b031685876040516107439190610b6d565b60006040518083038185875af1925050503d8060008114610780576040519150601f19603f3d011682016040523d82523d6000602084013e610785565b606091505b5091509150610796878383876107a1565b979650505050505050565b60608315610810578251600003610809576001600160a01b0385163b6108095760405162461bcd60e51b815260206004820152601d60248201527f416464726573733a2063616c6c20746f206e6f6e2d636f6e74726163740000006044820152606401610224565b5081610490565b61049083838151156108255781518083602001fd5b8060405162461bcd60e51b81526004016102249190610b89565b60006020828403121561085157600080fd5b5035919050565b60005b8381101561087357818101518382015260200161085b565b83811115610882576000848401525b50505050565b600081518084526108a0816020860160208601610858565b601f01601f19169290920160200192915050565b6001600160a01b038616815260a0602082018190526000906108d890830187610888565b604083019590955250606081019290925260809091015292915050565b6000806000806060858703121561090b57600080fd5b84356001600160a01b038116811461092257600080fd5b9350602085013567ffffffffffffffff8082111561093f57600080fd5b818701915087601f83011261095357600080fd5b81358181111561096257600080fd5b88602082850101111561097457600080fd5b95986020929092019750949560400135945092505050565b600181811c908216806109a057607f821691505b6020821081036109c057634e487b7160e01b600052602260045260246000fd5b50919050565b634e487b7160e01b600052604160045260246000fd5b601f821115610a2657600081815260208120601f850160051c81016020861015610a035750805b601f850160051c820191505b81811015610a2257828155600101610a0f565b5050505b505050565b67ffffffffffffffff831115610a4357610a436109c6565b610a5783610a51835461098c565b836109dc565b6000601f841160018114610a8b5760008515610a735750838201355b600019600387901b1c1916600186901b178355610ae5565b600083815260209020601f19861690835b82811015610abc5786850135825560209485019460019092019101610a9c565b5086821015610ad95760001960f88860031b161c19848701351681555b505060018560011b0183555b5050505050565b634e487b7160e01b600052601160045260246000fd5b600060018201610b1457610b14610aec565b5060010190565b600082821015610b2d57610b2d610aec565b500390565b600060208284031215610b4457600080fd5b5051919050565b600082610b6857634e487b7160e01b600052601260045260246000fd5b500490565b60008251610b7f818460208701610858565b9190910192915050565b60208152600061059b602083018461088856fe416464726573733a206c6f772d6c6576656c2063616c6c20776974682076616c7565206661696c6564a264697066735822122044ecb7f47a4a0e9e5ace8e81ec7cbaea2adb9067fea4afbbd2d287f7ff28313e64736f6c634300080f0033",
    "linkReferences": {}
  },
  "methodIdentifiers": {
    "actions(uint256)": "83240f83",
    "executeAction(uint256)": "c0c1cf55",
    "getActionDelay()": "12057a14",
    "governanceToken()": "f96dae0a",
    "queueAction(address,bytes,uint256)": "c21f37ca"
  },
  "id": 89
}